{
  "_format": "hh-sol-artifact-1",
  "contractName": "AccessNFT",
  "sourceName": "contracts/AccessNFT.sol",
  "abi": [
    {
      "inputs": [
        {
          "internalType": "address payable",
          "name": "_controlCenter",
          "type": "address"
        },
        {
          "internalType": "address",
          "name": "_trustedForwarder",
          "type": "address"
        },
        {
          "internalType": "string",
          "name": "_uri",
          "type": "string"
        },
        {
          "internalType": "uint256",
          "name": "_royaltyBps",
          "type": "uint256"
        }
      ],
      "stateMutability": "nonpayable",
      "type": "constructor"
    },
    {
      "anonymous": false,
      "inputs": [
        {
          "indexed": true,
          "internalType": "address",
          "name": "redeemer",
          "type": "address"
        },
        {
          "indexed": true,
          "internalType": "uint256",
          "name": "nftTokenId",
          "type": "uint256"
        },
        {
          "indexed": true,
          "internalType": "uint256",
          "name": "accessNftId",
          "type": "uint256"
        },
        {
          "indexed": false,
          "internalType": "uint256",
          "name": "amount",
          "type": "uint256"
        }
      ],
      "name": "AccessNFTRedeemed",
      "type": "event"
    },
    {
      "anonymous": false,
      "inputs": [
        {
          "indexed": true,
          "internalType": "address",
          "name": "creator",
          "type": "address"
        },
        {
          "indexed": false,
          "internalType": "uint256[]",
          "name": "nftIds",
          "type": "uint256[]"
        },
        {
          "indexed": false,
          "internalType": "string[]",
          "name": "nftURIs",
          "type": "string[]"
        },
        {
          "indexed": false,
          "internalType": "uint256[]",
          "name": "acessNftIds",
          "type": "uint256[]"
        },
        {
          "indexed": false,
          "internalType": "string[]",
          "name": "accessNftURIs",
          "type": "string[]"
        },
        {
          "indexed": false,
          "internalType": "uint256[]",
          "name": "nftSupplies",
          "type": "uint256[]"
        }
      ],
      "name": "AccessNFTsCreated",
      "type": "event"
    },
    {
      "anonymous": false,
      "inputs": [
        {
          "indexed": false,
          "internalType": "bool",
          "name": "isTransferable",
          "type": "bool"
        }
      ],
      "name": "AccessTransferabilityUpdated",
      "type": "event"
    },
    {
      "anonymous": false,
      "inputs": [
        {
          "indexed": true,
          "internalType": "address",
          "name": "account",
          "type": "address"
        },
        {
          "indexed": true,
          "internalType": "address",
          "name": "operator",
          "type": "address"
        },
        {
          "indexed": false,
          "internalType": "bool",
          "name": "approved",
          "type": "bool"
        }
      ],
      "name": "ApprovalForAll",
      "type": "event"
    },
    {
      "anonymous": false,
      "inputs": [
        {
          "indexed": false,
          "internalType": "uint256",
          "name": "accessNftId",
          "type": "uint256"
        },
        {
          "indexed": false,
          "internalType": "address",
          "name": "creator",
          "type": "address"
        },
        {
          "indexed": false,
          "internalType": "uint256",
          "name": "lastTimeToRedeem",
          "type": "uint256"
        }
      ],
      "name": "LastRedeemTimeUpdated",
      "type": "event"
    },
    {
      "anonymous": false,
      "inputs": [
        {
          "indexed": false,
          "internalType": "address",
          "name": "account",
          "type": "address"
        }
      ],
      "name": "Paused",
      "type": "event"
    },
    {
      "anonymous": false,
      "inputs": [
        {
          "indexed": false,
          "internalType": "bool",
          "name": "transferable",
          "type": "bool"
        }
      ],
      "name": "RestrictedTransferUpdated",
      "type": "event"
    },
    {
      "anonymous": false,
      "inputs": [
        {
          "indexed": true,
          "internalType": "bytes32",
          "name": "role",
          "type": "bytes32"
        },
        {
          "indexed": true,
          "internalType": "bytes32",
          "name": "previousAdminRole",
          "type": "bytes32"
        },
        {
          "indexed": true,
          "internalType": "bytes32",
          "name": "newAdminRole",
          "type": "bytes32"
        }
      ],
      "name": "RoleAdminChanged",
      "type": "event"
    },
    {
      "anonymous": false,
      "inputs": [
        {
          "indexed": true,
          "internalType": "bytes32",
          "name": "role",
          "type": "bytes32"
        },
        {
          "indexed": true,
          "internalType": "address",
          "name": "account",
          "type": "address"
        },
        {
          "indexed": true,
          "internalType": "address",
          "name": "sender",
          "type": "address"
        }
      ],
      "name": "RoleGranted",
      "type": "event"
    },
    {
      "anonymous": false,
      "inputs": [
        {
          "indexed": true,
          "internalType": "bytes32",
          "name": "role",
          "type": "bytes32"
        },
        {
          "indexed": true,
          "internalType": "address",
          "name": "account",
          "type": "address"
        },
        {
          "indexed": true,
          "internalType": "address",
          "name": "sender",
          "type": "address"
        }
      ],
      "name": "RoleRevoked",
      "type": "event"
    },
    {
      "anonymous": false,
      "inputs": [
        {
          "indexed": false,
          "internalType": "uint256",
          "name": "royaltyBps",
          "type": "uint256"
        }
      ],
      "name": "RoyaltyUpdated",
      "type": "event"
    },
    {
      "anonymous": false,
      "inputs": [
        {
          "indexed": true,
          "internalType": "address",
          "name": "operator",
          "type": "address"
        },
        {
          "indexed": true,
          "internalType": "address",
          "name": "from",
          "type": "address"
        },
        {
          "indexed": true,
          "internalType": "address",
          "name": "to",
          "type": "address"
        },
        {
          "indexed": false,
          "internalType": "uint256[]",
          "name": "ids",
          "type": "uint256[]"
        },
        {
          "indexed": false,
          "internalType": "uint256[]",
          "name": "values",
          "type": "uint256[]"
        }
      ],
      "name": "TransferBatch",
      "type": "event"
    },
    {
      "anonymous": false,
      "inputs": [
        {
          "indexed": true,
          "internalType": "address",
          "name": "operator",
          "type": "address"
        },
        {
          "indexed": true,
          "internalType": "address",
          "name": "from",
          "type": "address"
        },
        {
          "indexed": true,
          "internalType": "address",
          "name": "to",
          "type": "address"
        },
        {
          "indexed": false,
          "internalType": "uint256",
          "name": "id",
          "type": "uint256"
        },
        {
          "indexed": false,
          "internalType": "uint256",
          "name": "value",
          "type": "uint256"
        }
      ],
      "name": "TransferSingle",
      "type": "event"
    },
    {
      "anonymous": false,
      "inputs": [
        {
          "indexed": false,
          "internalType": "string",
          "name": "value",
          "type": "string"
        },
        {
          "indexed": true,
          "internalType": "uint256",
          "name": "id",
          "type": "uint256"
        }
      ],
      "name": "URI",
      "type": "event"
    },
    {
      "anonymous": false,
      "inputs": [
        {
          "indexed": false,
          "internalType": "address",
          "name": "account",
          "type": "address"
        }
      ],
      "name": "Unpaused",
      "type": "event"
    },
    {
      "inputs": [],
      "name": "DEFAULT_ADMIN_ROLE",
      "outputs": [
        {
          "internalType": "bytes32",
          "name": "",
          "type": "bytes32"
        }
      ],
      "stateMutability": "view",
      "type": "function"
    },
    {
      "inputs": [],
      "name": "MINTER_ROLE",
      "outputs": [
        {
          "internalType": "bytes32",
          "name": "",
          "type": "bytes32"
        }
      ],
      "stateMutability": "view",
      "type": "function"
    },
    {
      "inputs": [],
      "name": "PAUSER_ROLE",
      "outputs": [
        {
          "internalType": "bytes32",
          "name": "",
          "type": "bytes32"
        }
      ],
      "stateMutability": "view",
      "type": "function"
    },
    {
      "inputs": [],
      "name": "TRANSFER_ROLE",
      "outputs": [
        {
          "internalType": "bytes32",
          "name": "",
          "type": "bytes32"
        }
      ],
      "stateMutability": "view",
      "type": "function"
    },
    {
      "inputs": [],
      "name": "_contractURI",
      "outputs": [
        {
          "internalType": "string",
          "name": "",
          "type": "string"
        }
      ],
      "stateMutability": "view",
      "type": "function"
    },
    {
      "inputs": [],
      "name": "accessNftIsTransferable",
      "outputs": [
        {
          "internalType": "bool",
          "name": "",
          "type": "bool"
        }
      ],
      "stateMutability": "view",
      "type": "function"
    },
    {
      "inputs": [
        {
          "internalType": "address",
          "name": "account",
          "type": "address"
        },
        {
          "internalType": "uint256",
          "name": "id",
          "type": "uint256"
        }
      ],
      "name": "balanceOf",
      "outputs": [
        {
          "internalType": "uint256",
          "name": "",
          "type": "uint256"
        }
      ],
      "stateMutability": "view",
      "type": "function"
    },
    {
      "inputs": [
        {
          "internalType": "address[]",
          "name": "accounts",
          "type": "address[]"
        },
        {
          "internalType": "uint256[]",
          "name": "ids",
          "type": "uint256[]"
        }
      ],
      "name": "balanceOfBatch",
      "outputs": [
        {
          "internalType": "uint256[]",
          "name": "",
          "type": "uint256[]"
        }
      ],
      "stateMutability": "view",
      "type": "function"
    },
    {
      "inputs": [
        {
          "internalType": "address",
          "name": "account",
          "type": "address"
        },
        {
          "internalType": "uint256",
          "name": "id",
          "type": "uint256"
        },
        {
          "internalType": "uint256",
          "name": "value",
          "type": "uint256"
        }
      ],
      "name": "burn",
      "outputs": [],
      "stateMutability": "nonpayable",
      "type": "function"
    },
    {
      "inputs": [
        {
          "internalType": "address",
          "name": "account",
          "type": "address"
        },
        {
          "internalType": "uint256[]",
          "name": "ids",
          "type": "uint256[]"
        },
        {
          "internalType": "uint256[]",
          "name": "values",
          "type": "uint256[]"
        }
      ],
      "name": "burnBatch",
      "outputs": [],
      "stateMutability": "nonpayable",
      "type": "function"
    },
    {
      "inputs": [],
      "name": "contractURI",
      "outputs": [
        {
          "internalType": "string",
          "name": "",
          "type": "string"
        }
      ],
      "stateMutability": "view",
      "type": "function"
    },
    {
      "inputs": [
        {
          "internalType": "address",
          "name": "to",
          "type": "address"
        },
        {
          "internalType": "string[]",
          "name": "_nftURIs",
          "type": "string[]"
        },
        {
          "internalType": "string[]",
          "name": "_accessNftURIs",
          "type": "string[]"
        },
        {
          "internalType": "uint256[]",
          "name": "_nftSupplies",
          "type": "uint256[]"
        },
        {
          "internalType": "bytes",
          "name": "data",
          "type": "bytes"
        }
      ],
      "name": "createAccessTokens",
      "outputs": [],
      "stateMutability": "nonpayable",
      "type": "function"
    },
    {
      "inputs": [
        {
          "internalType": "bytes32",
          "name": "role",
          "type": "bytes32"
        }
      ],
      "name": "getRoleAdmin",
      "outputs": [
        {
          "internalType": "bytes32",
          "name": "",
          "type": "bytes32"
        }
      ],
      "stateMutability": "view",
      "type": "function"
    },
    {
      "inputs": [
        {
          "internalType": "bytes32",
          "name": "role",
          "type": "bytes32"
        },
        {
          "internalType": "uint256",
          "name": "index",
          "type": "uint256"
        }
      ],
      "name": "getRoleMember",
      "outputs": [
        {
          "internalType": "address",
          "name": "",
          "type": "address"
        }
      ],
      "stateMutability": "view",
      "type": "function"
    },
    {
      "inputs": [
        {
          "internalType": "bytes32",
          "name": "role",
          "type": "bytes32"
        }
      ],
      "name": "getRoleMemberCount",
      "outputs": [
        {
          "internalType": "uint256",
          "name": "",
          "type": "uint256"
        }
      ],
      "stateMutability": "view",
      "type": "function"
    },
    {
      "inputs": [
        {
          "internalType": "bytes32",
          "name": "role",
          "type": "bytes32"
        },
        {
          "internalType": "address",
          "name": "account",
          "type": "address"
        }
      ],
      "name": "grantRole",
      "outputs": [],
      "stateMutability": "nonpayable",
      "type": "function"
    },
    {
      "inputs": [
        {
          "internalType": "bytes32",
          "name": "role",
          "type": "bytes32"
        },
        {
          "internalType": "address",
          "name": "account",
          "type": "address"
        }
      ],
      "name": "hasRole",
      "outputs": [
        {
          "internalType": "bool",
          "name": "",
          "type": "bool"
        }
      ],
      "stateMutability": "view",
      "type": "function"
    },
    {
      "inputs": [
        {
          "internalType": "address",
          "name": "account",
          "type": "address"
        },
        {
          "internalType": "address",
          "name": "operator",
          "type": "address"
        }
      ],
      "name": "isApprovedForAll",
      "outputs": [
        {
          "internalType": "bool",
          "name": "",
          "type": "bool"
        }
      ],
      "stateMutability": "view",
      "type": "function"
    },
    {
      "inputs": [
        {
          "internalType": "uint256",
          "name": "_nftId",
          "type": "uint256"
        }
      ],
      "name": "isRedeemable",
      "outputs": [
        {
          "internalType": "bool",
          "name": "",
          "type": "bool"
        }
      ],
      "stateMutability": "view",
      "type": "function"
    },
    {
      "inputs": [
        {
          "internalType": "address",
          "name": "forwarder",
          "type": "address"
        }
      ],
      "name": "isTrustedForwarder",
      "outputs": [
        {
          "internalType": "bool",
          "name": "",
          "type": "bool"
        }
      ],
      "stateMutability": "view",
      "type": "function"
    },
    {
      "inputs": [
        {
          "internalType": "uint256",
          "name": "",
          "type": "uint256"
        }
      ],
      "name": "lastTimeToRedeem",
      "outputs": [
        {
          "internalType": "uint256",
          "name": "",
          "type": "uint256"
        }
      ],
      "stateMutability": "view",
      "type": "function"
    },
    {
      "inputs": [
        {
          "internalType": "address",
          "name": "to",
          "type": "address"
        },
        {
          "internalType": "uint256",
          "name": "id",
          "type": "uint256"
        },
        {
          "internalType": "uint256",
          "name": "amount",
          "type": "uint256"
        },
        {
          "internalType": "bytes",
          "name": "data",
          "type": "bytes"
        }
      ],
      "name": "mint",
      "outputs": [],
      "stateMutability": "nonpayable",
      "type": "function"
    },
    {
      "inputs": [
        {
          "internalType": "address",
          "name": "to",
          "type": "address"
        },
        {
          "internalType": "uint256[]",
          "name": "ids",
          "type": "uint256[]"
        },
        {
          "internalType": "uint256[]",
          "name": "amounts",
          "type": "uint256[]"
        },
        {
          "internalType": "bytes",
          "name": "data",
          "type": "bytes"
        }
      ],
      "name": "mintBatch",
      "outputs": [],
      "stateMutability": "nonpayable",
      "type": "function"
    },
    {
      "inputs": [
        {
          "internalType": "bytes[]",
          "name": "data",
          "type": "bytes[]"
        }
      ],
      "name": "multicall",
      "outputs": [
        {
          "internalType": "bytes[]",
          "name": "results",
          "type": "bytes[]"
        }
      ],
      "stateMutability": "nonpayable",
      "type": "function"
    },
    {
      "inputs": [],
      "name": "nextTokenId",
      "outputs": [
        {
          "internalType": "uint256",
          "name": "",
          "type": "uint256"
        }
      ],
      "stateMutability": "view",
      "type": "function"
    },
    {
      "inputs": [
        {
          "internalType": "address",
          "name": "",
          "type": "address"
        },
        {
          "internalType": "address",
          "name": "",
          "type": "address"
        },
        {
          "internalType": "uint256[]",
          "name": "",
          "type": "uint256[]"
        },
        {
          "internalType": "uint256[]",
          "name": "",
          "type": "uint256[]"
        },
        {
          "internalType": "bytes",
          "name": "",
          "type": "bytes"
        }
      ],
      "name": "onERC1155BatchReceived",
      "outputs": [
        {
          "internalType": "bytes4",
          "name": "",
          "type": "bytes4"
        }
      ],
      "stateMutability": "nonpayable",
      "type": "function"
    },
    {
      "inputs": [
        {
          "internalType": "address",
          "name": "",
          "type": "address"
        },
        {
          "internalType": "address",
          "name": "",
          "type": "address"
        },
        {
          "internalType": "uint256",
          "name": "",
          "type": "uint256"
        },
        {
          "internalType": "uint256",
          "name": "",
          "type": "uint256"
        },
        {
          "internalType": "bytes",
          "name": "",
          "type": "bytes"
        }
      ],
      "name": "onERC1155Received",
      "outputs": [
        {
          "internalType": "bytes4",
          "name": "",
          "type": "bytes4"
        }
      ],
      "stateMutability": "nonpayable",
      "type": "function"
    },
    {
      "inputs": [
        {
          "internalType": "address",
          "name": "",
          "type": "address"
        },
        {
          "internalType": "address",
          "name": "",
          "type": "address"
        },
        {
          "internalType": "uint256",
          "name": "",
          "type": "uint256"
        },
        {
          "internalType": "bytes",
          "name": "",
          "type": "bytes"
        }
      ],
      "name": "onERC721Received",
      "outputs": [
        {
          "internalType": "bytes4",
          "name": "",
          "type": "bytes4"
        }
      ],
      "stateMutability": "nonpayable",
      "type": "function"
    },
    {
      "inputs": [],
      "name": "pause",
      "outputs": [],
      "stateMutability": "nonpayable",
      "type": "function"
    },
    {
      "inputs": [],
      "name": "paused",
      "outputs": [
        {
          "internalType": "bool",
          "name": "",
          "type": "bool"
        }
      ],
      "stateMutability": "view",
      "type": "function"
    },
    {
      "inputs": [
        {
          "internalType": "uint256",
          "name": "_tokenId",
          "type": "uint256"
        },
        {
          "internalType": "uint256",
          "name": "_amount",
          "type": "uint256"
        }
      ],
      "name": "redeemToken",
      "outputs": [],
      "stateMutability": "nonpayable",
      "type": "function"
    },
    {
      "inputs": [
        {
          "internalType": "bytes32",
          "name": "role",
          "type": "bytes32"
        },
        {
          "internalType": "address",
          "name": "account",
          "type": "address"
        }
      ],
      "name": "renounceRole",
      "outputs": [],
      "stateMutability": "nonpayable",
      "type": "function"
    },
    {
      "inputs": [
        {
          "internalType": "bytes32",
          "name": "role",
          "type": "bytes32"
        },
        {
          "internalType": "address",
          "name": "account",
          "type": "address"
        }
      ],
      "name": "revokeRole",
      "outputs": [],
      "stateMutability": "nonpayable",
      "type": "function"
    },
    {
      "inputs": [],
      "name": "royaltyBps",
      "outputs": [
        {
          "internalType": "uint256",
          "name": "",
          "type": "uint256"
        }
      ],
      "stateMutability": "view",
      "type": "function"
    },
    {
      "inputs": [
        {
          "internalType": "uint256",
          "name": "",
          "type": "uint256"
        },
        {
          "internalType": "uint256",
          "name": "salePrice",
          "type": "uint256"
        }
      ],
      "name": "royaltyInfo",
      "outputs": [
        {
          "internalType": "address",
          "name": "receiver",
          "type": "address"
        },
        {
          "internalType": "uint256",
          "name": "royaltyAmount",
          "type": "uint256"
        }
      ],
      "stateMutability": "view",
      "type": "function"
    },
    {
      "inputs": [
        {
          "internalType": "address",
          "name": "from",
          "type": "address"
        },
        {
          "internalType": "address",
          "name": "to",
          "type": "address"
        },
        {
          "internalType": "uint256[]",
          "name": "ids",
          "type": "uint256[]"
        },
        {
          "internalType": "uint256[]",
          "name": "amounts",
          "type": "uint256[]"
        },
        {
          "internalType": "bytes",
          "name": "data",
          "type": "bytes"
        }
      ],
      "name": "safeBatchTransferFrom",
      "outputs": [],
      "stateMutability": "nonpayable",
      "type": "function"
    },
    {
      "inputs": [
        {
          "internalType": "address",
          "name": "from",
          "type": "address"
        },
        {
          "internalType": "address",
          "name": "to",
          "type": "address"
        },
        {
          "internalType": "uint256",
          "name": "id",
          "type": "uint256"
        },
        {
          "internalType": "uint256",
          "name": "amount",
          "type": "uint256"
        },
        {
          "internalType": "bytes",
          "name": "data",
          "type": "bytes"
        }
      ],
      "name": "safeTransferFrom",
      "outputs": [],
      "stateMutability": "nonpayable",
      "type": "function"
    },
    {
      "inputs": [
        {
          "internalType": "bool",
          "name": "_isTransferable",
          "type": "bool"
        }
      ],
      "name": "setAccessNftTransferability",
      "outputs": [],
      "stateMutability": "nonpayable",
      "type": "function"
    },
    {
      "inputs": [
        {
          "internalType": "address",
          "name": "operator",
          "type": "address"
        },
        {
          "internalType": "bool",
          "name": "approved",
          "type": "bool"
        }
      ],
      "name": "setApprovalForAll",
      "outputs": [],
      "stateMutability": "nonpayable",
      "type": "function"
    },
    {
      "inputs": [
        {
          "internalType": "string",
          "name": "_uri",
          "type": "string"
        }
      ],
      "name": "setContractURI",
      "outputs": [],
      "stateMutability": "nonpayable",
      "type": "function"
    },
    {
      "inputs": [
        {
          "internalType": "uint256",
          "name": "_tokenId",
          "type": "uint256"
        },
        {
          "internalType": "uint256",
          "name": "_secondsUntilRedeem",
          "type": "uint256"
        }
      ],
      "name": "setLastTimeToRedeem",
      "outputs": [],
      "stateMutability": "nonpayable",
      "type": "function"
    },
    {
      "inputs": [
        {
          "internalType": "bool",
          "name": "_restrictedTransfer",
          "type": "bool"
        }
      ],
      "name": "setRestrictedTransfer",
      "outputs": [],
      "stateMutability": "nonpayable",
      "type": "function"
    },
    {
      "inputs": [
        {
          "internalType": "uint256",
          "name": "_royaltyBps",
          "type": "uint256"
        }
      ],
      "name": "setRoyaltyBps",
      "outputs": [],
      "stateMutability": "nonpayable",
      "type": "function"
    },
    {
      "inputs": [
        {
          "internalType": "bytes4",
          "name": "interfaceId",
          "type": "bytes4"
        }
      ],
      "name": "supportsInterface",
      "outputs": [
        {
          "internalType": "bool",
          "name": "",
          "type": "bool"
        }
      ],
      "stateMutability": "view",
      "type": "function"
    },
    {
      "inputs": [
        {
          "internalType": "uint256",
          "name": "",
          "type": "uint256"
        }
      ],
      "name": "tokenState",
      "outputs": [
        {
          "internalType": "address",
          "name": "creator",
          "type": "address"
        },
        {
          "internalType": "string",
          "name": "uri",
          "type": "string"
        },
        {
          "internalType": "bool",
          "name": "isRedeemable",
          "type": "bool"
        },
        {
          "internalType": "uint256",
          "name": "accessNftId",
          "type": "uint256"
        },
        {
          "internalType": "enum AccessNFT.UnderlyingType",
          "name": "underlyingType",
          "type": "uint8"
        }
      ],
      "stateMutability": "view",
      "type": "function"
    },
    {
      "inputs": [
        {
          "internalType": "uint256",
          "name": "_nftId",
          "type": "uint256"
        }
      ],
      "name": "tokenURI",
      "outputs": [
        {
          "internalType": "string",
          "name": "",
          "type": "string"
        }
      ],
      "stateMutability": "view",
      "type": "function"
    },
    {
      "inputs": [
        {
          "internalType": "uint256",
          "name": "id",
          "type": "uint256"
        }
      ],
      "name": "totalSupply",
      "outputs": [
        {
          "internalType": "uint256",
          "name": "",
          "type": "uint256"
        }
      ],
      "stateMutability": "view",
      "type": "function"
    },
    {
      "inputs": [],
      "name": "transfersRestricted",
      "outputs": [
        {
          "internalType": "bool",
          "name": "",
          "type": "bool"
        }
      ],
      "stateMutability": "view",
      "type": "function"
    },
    {
      "inputs": [],
      "name": "unpause",
      "outputs": [],
      "stateMutability": "nonpayable",
      "type": "function"
    },
    {
      "inputs": [
        {
          "internalType": "uint256",
          "name": "_nftId",
          "type": "uint256"
        }
      ],
      "name": "uri",
      "outputs": [
        {
          "internalType": "string",
          "name": "",
          "type": "string"
        }
      ],
      "stateMutability": "view",
      "type": "function"
    }
  ],
  "bytecode": "0x60806040523480156200001157600080fd5b50604051620059e6380380620059e6833981016040819052620000349162000548565b82828062000042816200014b565b506005805460ff191690556200006360006200005d62000164565b62000180565b620000927f9f2df0fed2c77648de5860a4cc508cd0818c85b8b8a1ab4ceeef8d981c8956a66200005d62000164565b620000c17f65d7a28e3265b37a6474929f336521b332c1681b933f6cb9f3376673440d862a6200005d62000164565b50600780546001600160a01b03199081166001600160a01b03938416179091556008805490911691861691909117905581516200010690600b90602085019062000473565b50620001367f8502233096d909befbda0999bb8ea2f3a6be3c138b9fbf003752a4c8bce86f6c6200005d62000164565b6200014181620001c3565b5050505062000695565b80516200016090600490602084019062000473565b5050565b60006200017b6200031660201b620025cb1760201c565b905090565b6200019782826200034f60201b620025fb1760201c565b6000828152600160209081526040909120620001be918390620026096200035b821b17901c565b505050565b620001fc6000620001d362000164565b6000918252602082815260408084206001600160a01b0393909316845291905290205460ff1690565b620002745760405162461bcd60e51b815260206004820152603660248201527f4163636573734e46543a206f6e6c792061206d6f64756c652061646d696e206360448201527f616e2063616c6c20746869732066756e6374696f6e2e0000000000000000000060648201526084015b60405180910390fd5b612710811115620002db5760405162461bcd60e51b815260206004820152602a60248201527f4e46543a204270732070726f7669646564206d757374206265206c6573732074604482015269068616e2031302c3030360b41b60648201526084016200026b565b600a8190556040518181527f244ea8d7627f5a08f4299862bd5a45752842c183aee5b0fb0d1e4887bfa605b39060200160405180910390a150565b6007546000906001600160a01b03163314156200033a575060131936013560601c90565b6200017b6200037b60201b6200261e1760201c565b6200016082826200037f565b600062000372836001600160a01b03841662000421565b90505b92915050565b3390565b6000828152602081815260408083206001600160a01b038516845290915290205460ff1662000160576000828152602081815260408083206001600160a01b03851684529091529020805460ff19166001179055620003dd62000164565b6001600160a01b0316816001600160a01b0316837f2f8788117e7eff1d82e926ec794901d17c78024a50270940304540a733656f0d60405160405180910390a45050565b60008181526001830160205260408120546200046a5750815460018181018455600084815260208082209093018490558454848252828601909352604090209190915562000375565b50600062000375565b828054620004819062000658565b90600052602060002090601f016020900481019282620004a55760008555620004f0565b82601f10620004c057805160ff1916838001178555620004f0565b82800160010185558215620004f0579182015b82811115620004f0578251825591602001919060010190620004d3565b50620004fe92915062000502565b5090565b5b80821115620004fe576000815560010162000503565b6001600160a01b03811681146200052f57600080fd5b50565b634e487b7160e01b600052604160045260246000fd5b600080600080608085870312156200055f57600080fd5b84516200056c8162000519565b80945050602080860151620005818162000519565b60408701519094506001600160401b03808211156200059f57600080fd5b818801915088601f830112620005b457600080fd5b815181811115620005c957620005c962000532565b604051601f8201601f19908116603f01168101908382118183101715620005f457620005f462000532565b816040528281528b868487010111156200060d57600080fd5b600093505b8284101562000631578484018601518185018701529285019262000612565b82841115620006435760008684830101525b60609a909a0151989b979a5050505050505050565b600181811c908216806200066d57607f821691505b602082108114156200068f57634e487b7160e01b600052602260045260246000fd5b50919050565b61534180620006a56000396000f3fe608060405234801561001057600080fd5b50600436106103355760003560e01c80639010d07c116101b2578063c87b56dd116100f9578063e63ab1e9116100a2578063f23a6e611161007c578063f23a6e61146107bd578063f242432a146107dc578063f48cc326146107ef578063f5298aca1461081557600080fd5b8063e63ab1e914610752578063e8a3d48514610779578063e985e9c51461078157600080fd5b8063d5391393116100d3578063d539139314610706578063d547741f1461072d578063d9371ddd1461074057600080fd5b8063c87b56dd14610383578063ca15c873146106e0578063ca551b02146106f357600080fd5b8063a22cb4651161015b578063bd85b03911610135578063bd85b039146106af578063c0e72740146106cf578063c63adb2b146106d757600080fd5b8063a22cb4651461065d578063ac9650d814610670578063bc197c811461069057600080fd5b80639745cc3d1161018c5780639745cc3d1461061e5780639f1d947714610642578063a217fddf1461065557600080fd5b80639010d07c146105a957806391d14854146105d4578063938e3d7b1461060b57600080fd5b806336568abe116102815780635c975abb1161022a57806375794a3c1161020457806375794a3c146105785780638423df79146105815780638456cb591461058e5780638ba448c21461059657600080fd5b80635c975abb146105475780636b20c45414610552578063731133e91461056557600080fd5b80634487f6b41161025b5780634487f6b4146104f25780634e1273f414610505578063572b6c051461052557600080fd5b806336568abe146104c45780633f4ba83a146104d7578063400c477a146104df57600080fd5b80631f7fdffa116102e35780632a55205a116102bd5780632a55205a1461046c5780632eb2c2d61461049e5780632f2ff15d146104b157600080fd5b80631f7fdffa1461040f578063206b60f914610422578063248a9ca31461044957600080fd5b8063150b7a0211610314578063150b7a02146103a357806317ffeba2146103da5780631f72d831146103fa57600080fd5b8062fdd58e1461033a57806301ffc9a7146103605780630e89341c14610383575b600080fd5b61034d6103483660046143c4565b610828565b6040519081526020015b60405180910390f35b61037361036e366004614406565b6108d6565b6040519015158152602001610357565b610396610391366004614423565b610901565b6040516103579190614494565b6103c16103b136600461455e565b630a85bd0160e11b949350505050565b6040516001600160e01b03199091168152602001610357565b61034d6103e8366004614423565b600e6020526000908152604090205481565b61040d610408366004614423565b6109a6565b005b61040d61041d36600461465f565b610ad9565b61034d7f8502233096d909befbda0999bb8ea2f3a6be3c138b9fbf003752a4c8bce86f6c81565b61034d610457366004614423565b60009081526020819052604090206001015490565b61047f61047a3660046146ee565b610c55565b604080516001600160a01b039093168352602083019190915201610357565b61040d6104ac366004614710565b610cfc565b61040d6104bf3660046147be565b610db0565b61040d6104d23660046147be565b610dd7565b61040d610df9565b61040d6104ed36600461487c565b610ea1565b61040d6105003660046146ee565b611522565b610518610513366004614955565b6116c9565b6040516103579190614a5d565b610373610533366004614a70565b6007546001600160a01b0391821691161490565b60055460ff16610373565b61040d610560366004614a8d565b611807565b61040d610573366004614b03565b61189e565b61034d60095481565b600c546103739060ff1681565b61040d6119ba565b61040d6105a4366004614b5c565b611a60565b6105bc6105b73660046146ee565b611b20565b6040516001600160a01b039091168152602001610357565b6103736105e23660046147be565b6000918252602082815260408084206001600160a01b0393909316845291905290205460ff1690565b61040d610619366004614b79565b611b3f565b61063161062c366004614423565b611cc7565b604051610357959493929190614bd1565b61040d610650366004614b5c565b611d8f565b61034d600081565b61040d61066b366004614c31565b611e56565b61068361067e366004614c5f565b611f7e565b6040516103579190614c95565b6103c161069e366004614710565b63bc197c8160e01b95945050505050565b61034d6106bd366004614423565b60009081526006602052604090205490565b610396612073565b61034d600a5481565b61034d6106ee366004614423565b612101565b61040d6107013660046146ee565b612118565b61034d7f9f2df0fed2c77648de5860a4cc508cd0818c85b8b8a1ab4ceeef8d981c8956a681565b61040d61073b3660046147be565b6123ff565b600c5461037390610100900460ff1681565b61034d7f65d7a28e3265b37a6474929f336521b332c1681b933f6cb9f3376673440d862a81565b610396612409565b61037361078f366004614cf7565b6001600160a01b03918216600090815260036020908152604080832093909416825291909152205460ff1690565b6103c16107cb366004614d25565b63f23a6e6160e01b95945050505050565b61040d6107ea366004614d25565b61249b565b6103736107fd366004614423565b6000908152600d602052604090206002015460ff1690565b61040d610823366004614d8e565b612534565b60006001600160a01b0383166108ab5760405162461bcd60e51b815260206004820152602b60248201527f455243313135353a2062616c616e636520717565727920666f7220746865207a60448201527f65726f206164647265737300000000000000000000000000000000000000000060648201526084015b60405180910390fd5b5060008181526002602090815260408083206001600160a01b03861684529091529020545b92915050565b60006108e182612622565b806108d057506001600160e01b0319821663152a902d60e11b1492915050565b6000818152600d6020526040902060010180546060919061092190614dc3565b80601f016020809104026020016040519081016040528092919081815260200182805461094d90614dc3565b801561099a5780601f1061096f5761010080835404028352916020019161099a565b820191906000526020600020905b81548152906001019060200180831161097d57829003601f168201915b50505050509050919050565b6109b360006105e261262d565b610a255760405162461bcd60e51b815260206004820152603660248201527f4163636573734e46543a206f6e6c792061206d6f64756c652061646d696e206360448201527f616e2063616c6c20746869732066756e6374696f6e2e0000000000000000000060648201526084016108a2565b612710811115610a9d5760405162461bcd60e51b815260206004820152602a60248201527f4e46543a204270732070726f7669646564206d757374206265206c657373207460448201527f68616e2031302c3030300000000000000000000000000000000000000000000060648201526084016108a2565b600a8190556040518181527f244ea8d7627f5a08f4299862bd5a45752842c183aee5b0fb0d1e4887bfa605b3906020015b60405180910390a150565b60005b8351811015610c4257600954848281518110610afa57610afa614dfe565b602002602001015110610b755760405162461bcd60e51b815260206004820152603960248201527f4e4654436f6c6c656374696f6e3a2063616e6e6f742063616c6c20746869732060448201527f666e20666f72206372656174696e67206e6577204e4654732e0000000000000060648201526084016108a2565b6000600d6000868481518110610b8d57610b8d614dfe565b60209081029190910181015182528101919091526040016000206004015460ff166002811115610bbf57610bbf614bbb565b14610c325760405162461bcd60e51b815260206004820152603a60248201527f4e4654436f6c6c656374696f6e3a2063616e6e6f7420667265656c79206d696e60448201527f74206d6f7265206f66204552433230206f72204552433732312e00000000000060648201526084016108a2565b610c3b81614e2a565b9050610adc565b50610c4f84848484612637565b50505050565b60085460405163f2aab4b360e01b815230600482015260009182916001600160a01b039091169063f2aab4b39060240160206040518083038186803b158015610c9d57600080fd5b505afa158015610cb1573d6000803e3d6000fd5b505050506040513d601f19601f82011682018060405250810190610cd59190614e45565b600a5490925061271090610ce99085614e62565b610cf39190614e81565b90509250929050565b610d0461262d565b6001600160a01b0316856001600160a01b03161480610d2a5750610d2a8561078f61262d565b610d9c5760405162461bcd60e51b815260206004820152603260248201527f455243313135353a207472616e736665722063616c6c6572206973206e6f742060448201527f6f776e6572206e6f7220617070726f766564000000000000000000000000000060648201526084016108a2565b610da985858585856126e1565b5050505050565b610dba828261295b565b6000828152600160205260409020610dd29082612609565b505050565b610de18282612988565b6000828152600160205260409020610dd29082612a20565b610e257f65d7a28e3265b37a6474929f336521b332c1681b933f6cb9f3376673440d862a6105e261262d565b610e975760405162461bcd60e51b815260206004820152603b60248201527f455243313135355072657365744d696e7465725061757365723a206d7573742060448201527f686176652070617573657220726f6c6520746f20756e7061757365000000000060648201526084016108a2565b610e9f612a35565b565b60055460ff1615610ee75760405162461bcd60e51b815260206004820152601060248201526f14185d5cd8589b194e881c185d5cd95960821b60448201526064016108a2565b610f137f9f2df0fed2c77648de5860a4cc508cd0818c85b8b8a1ab4ceeef8d981c8956a66105e261262d565b610f855760405162461bcd60e51b815260206004820152602d60248201527f4163636573734e46543a206163636f756e7420646f6573206e6f74206861766560448201527f204d494e5445525f524f4c452e0000000000000000000000000000000000000060648201526084016108a2565b8683148015610f9357508685145b6110055760405162461bcd60e51b815260206004820152603660248201527f4163636573734e46543a204d757374207370656369667920657175616c206e7560448201527f6d626572206f6620636f6e6669672076616c7565732e0000000000000000000060648201526084016108a2565b866110785760405162461bcd60e51b815260206004820152602860248201527f4163636573734e46543a204d75737420637265617465206174206c656173742060448201527f6f6e65204e46542e00000000000000000000000000000000000000000000000060648201526084016108a2565b60008767ffffffffffffffff811115611093576110936144a7565b6040519080825280602002602001820160405280156110bc578160200160208202803683370190505b50905060008867ffffffffffffffff8111156110da576110da6144a7565b604051908082528060200260200182016040528015611103578160200160208202803683370190505b5060095490915060005b8a8110156113f8578183828151811061112857611128614dfe565b6020026020010181815250506040518060a0016040528061114761262d565b6001600160a01b031681526020018b8b8481811061116757611167614dfe565b90506020028101906111799190614ea3565b8080601f016020809104026020016040519081016040528093929190818152602001838380828437600092018290525093855250505060208201819052604082018190526060909101526000838152600d602090815260409091208251815473ffffffffffffffffffffffffffffffffffffffff19166001600160a01b0390911617815582820151805191926112179260018501929091019061429f565b5060408201516002808301805492151560ff1993841617905560608401516003840155608084015160048401805491939092911690600190849081111561126057611260614bbb565b021790555061127491506001905083614eea565b91508184828151811061128957611289614dfe565b6020026020010181815250506040518060a001604052806112a861262d565b6001600160a01b031681526020018d8d848181106112c8576112c8614dfe565b90506020028101906112da9190614ea3565b8080601f01602080910402602001604051908101604052809392919081815260200183838082843760009201919091525050509082525060016020820181905260409091019061132a9085614f02565b8152602001600090526000838152600d602090815260409091208251815473ffffffffffffffffffffffffffffffffffffffff19166001600160a01b0390911617815582820151805191926113879260018501929091019061429f565b5060408201516002808301805492151560ff199384161790556060840151600384015560808401516004840180549193909291169060019084908111156113d0576113d0614bbb565b02179055506113e491506001905083614eea565b9150806113f081614e2a565b91505061110d565b508060098190555061144c3083898980806020026020016040519081016040528093929190818152602001838360200280828437600092018290525060408051602081019091529081529250612ad7915050565b6114be8c8489898080602002602001604051908101604052809392919081815260200183836020028082843760009201919091525050604080516020601f8d018190048102820181019092528b815292508b91508a9081908401838280828437600092019190915250612ad792505050565b6114c661262d565b6001600160a01b03167fe309c6cae6e35dcc6c2f37d5da32b19e0346074be56b9722cdf852d20fced6ee848d8d868e8e8e8e60405161150c989796959493929190614fd0565b60405180910390a2505050505050505050505050565b6000828152600d60205260409020546001600160a01b031661154261262d565b6001600160a01b0316146115be5760405162461bcd60e51b815260206004820152603360248201527f4163636573734e46543a206f6e6c79207468652063726561746f722063616e2060448201527f63616c6c20746869732066756e6374696f6e2e0000000000000000000000000060648201526084016108a2565b6000828152600d602052604090206002015460ff166116455760405162461bcd60e51b815260206004820152603860248201527f4163636573734e46543a2063616e207365742072656465656d2074696d65206660448201527f6f72206f6e6c792072656465656d61626c65204e4654732e000000000000000060648201526084016108a2565b6000811561165c576116578242614eea565b611660565b6000195b6000848152600e6020526040902081905590507ff01057f3c55599179571189c7758b5ce72994adea5a8dc33095fdc8fdff071198361169d61262d565b604080519283526001600160a01b039091166020830152810183905260600160405180910390a1505050565b606081518351146117425760405162461bcd60e51b815260206004820152602960248201527f455243313135353a206163636f756e747320616e6420696473206c656e67746860448201527f206d69736d61746368000000000000000000000000000000000000000000000060648201526084016108a2565b6000835167ffffffffffffffff81111561175e5761175e6144a7565b604051908082528060200260200182016040528015611787578160200160208202803683370190505b50905060005b84518110156117ff576117d28582815181106117ab576117ab614dfe565b60200260200101518583815181106117c5576117c5614dfe565b6020026020010151610828565b8282815181106117e4576117e4614dfe565b60209081029190910101526117f881614e2a565b905061178d565b509392505050565b61180f61262d565b6001600160a01b0316836001600160a01b0316148061183557506118358361078f61262d565b6118935760405162461bcd60e51b815260206004820152602960248201527f455243313135353a2063616c6c6572206973206e6f74206f776e6572206e6f7260448201526808185c1c1c9bdd995960ba1b60648201526084016108a2565b610dd2838383612b5a565b60095483106119155760405162461bcd60e51b815260206004820152603960248201527f4e4654436f6c6c656374696f6e3a2063616e6e6f742063616c6c20746869732060448201527f666e20666f72206372656174696e67206e6577204e4654732e0000000000000060648201526084016108a2565b6000838152600d602052604081206004015460ff16600281111561193b5761193b614bbb565b146119ae5760405162461bcd60e51b815260206004820152603a60248201527f4e4654436f6c6c656374696f6e3a2063616e6e6f7420667265656c79206d696e60448201527f74206d6f7265206f66204552433230206f72204552433732312e00000000000060648201526084016108a2565b610c4f84848484612bdc565b6119e67f65d7a28e3265b37a6474929f336521b332c1681b933f6cb9f3376673440d862a6105e261262d565b611a585760405162461bcd60e51b815260206004820152603960248201527f455243313135355072657365744d696e7465725061757365723a206d7573742060448201527f686176652070617573657220726f6c6520746f2070617573650000000000000060648201526084016108a2565b610e9f612c86565b611a6d60006105e261262d565b611adf5760405162461bcd60e51b815260206004820152603660248201527f4163636573734e46543a206f6e6c792061206d6f64756c652061646d696e206360448201527f616e2063616c6c20746869732066756e6374696f6e2e0000000000000000000060648201526084016108a2565b600c805460ff19168215159081179091556040519081527ffb4ba02cee22486df888d7ffb97c6100ec3193781e025cb9a4bc6fc358d626cc90602001610ace565b6000828152600160205260408120611b389083612d02565b9392505050565b6008546040805163a217fddf60e01b815290516001600160a01b03909216916391d1485491839163a217fddf91600480820192602092909190829003018186803b158015611b8c57600080fd5b505afa158015611ba0573d6000803e3d6000fd5b505050506040513d601f19601f82011682018060405250810190611bc4919061507c565b611bcc61262d565b6040516001600160e01b031960e085901b16815260048101929092526001600160a01b0316602482015260440160206040518083038186803b158015611c1157600080fd5b505afa158015611c25573d6000803e3d6000fd5b505050506040513d601f19601f82011682018060405250810190611c499190615095565b611cbb5760405162461bcd60e51b815260206004820152603860248201527f4163636573734e46543a206f6e6c7920612070726f746f636f6c2061646d696e60448201527f2063616e2063616c6c20746869732066756e6374696f6e2e000000000000000060648201526084016108a2565b610dd2600b8383614323565b600d60205260009081526040902080546001820180546001600160a01b039092169291611cf390614dc3565b80601f0160208091040260200160405190810160405280929190818152602001828054611d1f90614dc3565b8015611d6c5780601f10611d4157610100808354040283529160200191611d6c565b820191906000526020600020905b815481529060010190602001808311611d4f57829003601f168201915b5050505060028301546003840154600490940154929360ff918216939092501685565b611d9c60006105e261262d565b611e0e5760405162461bcd60e51b815260206004820152603660248201527f4163636573734e46543a206f6e6c792061206d6f64756c652061646d696e206360448201527f616e2063616c6c20746869732066756e6374696f6e2e0000000000000000000060648201526084016108a2565b600c80548215156101000261ff00199091161790556040517e4701906729f069b76305c2c6a0bfa1d4ba4ff97d08206c8716078bf7a5e02790610ace90831515815260200190565b816001600160a01b0316611e6861262d565b6001600160a01b03161415611ee55760405162461bcd60e51b815260206004820152602960248201527f455243313135353a2073657474696e6720617070726f76616c2073746174757360448201527f20666f722073656c66000000000000000000000000000000000000000000000060648201526084016108a2565b8060036000611ef261262d565b6001600160a01b03908116825260208083019390935260409182016000908120918716808252919093529120805460ff191692151592909217909155611f3661262d565b6001600160a01b03167f17307eab39ab6107e8899845ad3d59bd9653f200f220920489ca2b5937696c3183604051611f72911515815260200190565b60405180910390a35050565b60608167ffffffffffffffff811115611f9957611f996144a7565b604051908082528060200260200182016040528015611fcc57816020015b6060815260200190600190039081611fb75790505b50905060005b8281101561206c5761203c30858584818110611ff057611ff0614dfe565b90506020028101906120029190614ea3565b8080601f016020809104026020016040519081016040528093929190818152602001838380828437600092019190915250612d0e92505050565b82828151811061204e5761204e614dfe565b6020026020010181905250808061206490614e2a565b915050611fd2565b5092915050565b600b805461208090614dc3565b80601f01602080910402602001604051908101604052809291908181526020018280546120ac90614dc3565b80156120f95780601f106120ce576101008083540402835291602001916120f9565b820191906000526020600020905b8154815290600101906020018083116120dc57829003601f168201915b505050505081565b60008181526001602052604081206108d090612d33565b60055460ff161561215e5760405162461bcd60e51b815260206004820152601060248201526f14185d5cd8589b194e881c185d5cd95960821b60448201526064016108a2565b600061216861262d565b6000848152600d602052604090206002015490915060ff166121f25760405162461bcd60e51b815260206004820152603360248201527f4163636573734e46543a205468697320746f6b656e206973206e6f742072656460448201527f65656d61626c6520666f72206163636573732e0000000000000000000000000060648201526084016108a2565b816121fd8285610828565b1015801561220b5750600082115b61227d5760405162461bcd60e51b815260206004820152602e60248201527f4163636573734e46543a2043616e6e6f742072656465656d206d6f7265204e4660448201527f5473207468616e206f776e65642e00000000000000000000000000000000000060648201526084016108a2565b6000838152600e6020526040902054421115806122a657506000838152600e6020526040902054155b6123185760405162461bcd60e51b815260206004820152602e60248201527f4163636573734e46543a2057696e646f7720746f2072656465656d206163636560448201527f73732068617320636c6f7365642e00000000000000000000000000000000000060648201526084016108a2565b612323818484612534565b6000838152600d6020526040808220600301549051637921219560e11b815230600482018190526001600160a01b0385166024830152604482018390526064820186905260a0608483015260a482019390935290919063f242432a9060c401600060405180830381600087803b15801561239c57600080fd5b505af11580156123b0573d6000803e3d6000fd5b505050508084836001600160a01b03167fa70022dc131dbd0be52c08bf87947e36b3e7d4934dce1efecf2d261c381d1017866040516123f191815260200190565b60405180910390a450505050565b610de18282612d3d565b6060600b805461241890614dc3565b80601f016020809104026020016040519081016040528092919081815260200182805461244490614dc3565b80156124915780601f1061246657610100808354040283529160200191612491565b820191906000526020600020905b81548152906001019060200180831161247457829003601f168201915b5050505050905090565b6124a361262d565b6001600160a01b0316856001600160a01b031614806124c957506124c98561078f61262d565b6125275760405162461bcd60e51b815260206004820152602960248201527f455243313135353a2063616c6c6572206973206e6f74206f776e6572206e6f7260448201526808185c1c1c9bdd995960ba1b60648201526084016108a2565b610da98585858585612d65565b61253c61262d565b6001600160a01b0316836001600160a01b0316148061256257506125628361078f61262d565b6125c05760405162461bcd60e51b815260206004820152602960248201527f455243313135353a2063616c6c6572206973206e6f74206f776e6572206e6f7260448201526808185c1c1c9bdd995960ba1b60648201526084016108a2565b610dd2838383612f21565b6007546000906001600160a01b03163314156125ee575060131936013560601c90565b503390565b905090565b90565b6126058282612f54565b5050565b6000611b38836001600160a01b038416612ff3565b3390565b60006108d082613042565b60006125f36125cb565b6126637f9f2df0fed2c77648de5860a4cc508cd0818c85b8b8a1ab4ceeef8d981c8956a66105e261262d565b6126d55760405162461bcd60e51b815260206004820152603860248201527f455243313135355072657365744d696e7465725061757365723a206d7573742060448201527f68617665206d696e74657220726f6c6520746f206d696e74000000000000000060648201526084016108a2565b610c4f84848484612ad7565b81518351146127435760405162461bcd60e51b815260206004820152602860248201527f455243313135353a2069647320616e6420616d6f756e7473206c656e677468206044820152670dad2e6dac2e8c6d60c31b60648201526084016108a2565b6001600160a01b0384166127a75760405162461bcd60e51b815260206004820152602560248201527f455243313135353a207472616e7366657220746f20746865207a65726f206164604482015264647265737360d81b60648201526084016108a2565b60006127b161262d565b90506127c1818787878787613067565b60005b84518110156128ed5760008582815181106127e1576127e1614dfe565b6020026020010151905060008583815181106127ff576127ff614dfe565b60209081029190910181015160008481526002835260408082206001600160a01b038e1683529093529190912054909150818110156128935760405162461bcd60e51b815260206004820152602a60248201527f455243313135353a20696e73756666696369656e742062616c616e636520666f60448201526939103a3930b739b332b960b11b60648201526084016108a2565b60008381526002602090815260408083206001600160a01b038e8116855292528083208585039055908b168252812080548492906128d2908490614eea565b92505081905550505050806128e690614e2a565b90506127c4565b50846001600160a01b0316866001600160a01b0316826001600160a01b03167f4a39dc06d4c0dbc64b70af90fd698a233a518aa5d07e595d983b8c0526c8f7fb878760405161293d9291906150b2565b60405180910390a4612953818787878787613296565b505050505050565b60008281526020819052604090206001015461297e8161297961262d565b61344b565b610dd28383612f54565b61299061262d565b6001600160a01b0316816001600160a01b031614612a165760405162461bcd60e51b815260206004820152602f60248201527f416363657373436f6e74726f6c3a2063616e206f6e6c792072656e6f756e636560448201527f20726f6c657320666f722073656c66000000000000000000000000000000000060648201526084016108a2565b61260582826134c9565b6000611b38836001600160a01b038416613566565b60055460ff16612a875760405162461bcd60e51b815260206004820152601460248201527f5061757361626c653a206e6f742070617573656400000000000000000000000060448201526064016108a2565b6005805460ff191690557f5db9ee0a495bf2e6ff9c91a7834c1ba4fdd244a5e8aa4e537bd38aeae4b073aa612aba61262d565b6040516001600160a01b03909116815260200160405180910390a1565b612ae384848484613659565b60005b8351811015610da957828181518110612b0157612b01614dfe565b602002602001015160066000868481518110612b1f57612b1f614dfe565b602002602001015181526020019081526020016000206000828254612b449190614eea565b90915550612b53905081614e2a565b9050612ae6565b612b6583838361383a565b60005b8251811015610c4f57818181518110612b8357612b83614dfe565b602002602001015160066000858481518110612ba157612ba1614dfe565b602002602001015181526020019081526020016000206000828254612bc69190614f02565b90915550612bd5905081614e2a565b9050612b68565b612c087f9f2df0fed2c77648de5860a4cc508cd0818c85b8b8a1ab4ceeef8d981c8956a66105e261262d565b612c7a5760405162461bcd60e51b815260206004820152603860248201527f455243313135355072657365744d696e7465725061757365723a206d7573742060448201527f68617665206d696e74657220726f6c6520746f206d696e74000000000000000060648201526084016108a2565b610c4f84848484613a7d565b60055460ff1615612ccc5760405162461bcd60e51b815260206004820152601060248201526f14185d5cd8589b194e881c185d5cd95960821b60448201526064016108a2565b6005805460ff191660011790557f62e78cea01bee320cd4e420270b5ea74000d11b0c9f74754ebdbfc544b05a258612aba61262d565b6000611b388383613ab2565b6060611b38838360405180606001604052806027815260200161530e60279139613adc565b60006108d0825490565b600082815260208190526040902060010154612d5b8161297961262d565b610dd283836134c9565b6001600160a01b038416612dc95760405162461bcd60e51b815260206004820152602560248201527f455243313135353a207472616e7366657220746f20746865207a65726f206164604482015264647265737360d81b60648201526084016108a2565b6000612dd361262d565b9050612df3818787612de488613bb0565b612ded88613bb0565b87613067565b60008481526002602090815260408083206001600160a01b038a16845290915290205483811015612e795760405162461bcd60e51b815260206004820152602a60248201527f455243313135353a20696e73756666696369656e742062616c616e636520666f60448201526939103a3930b739b332b960b11b60648201526084016108a2565b60008581526002602090815260408083206001600160a01b038b8116855292528083208785039055908816825281208054869290612eb8908490614eea565b909155505060408051868152602081018690526001600160a01b03808916928a821692918616917fc3d58168c5ae7397731d063d5bbf3d657854427343f4c083240f7aacaa2d0f62910160405180910390a4612f18828888888888613bfb565b50505050505050565b612f2c838383613d06565b60008281526006602052604081208054839290612f4a908490614f02565b9091555050505050565b6000828152602081815260408083206001600160a01b038516845290915290205460ff16612605576000828152602081815260408083206001600160a01b03851684529091529020805460ff19166001179055612faf61262d565b6001600160a01b0316816001600160a01b0316837f2f8788117e7eff1d82e926ec794901d17c78024a50270940304540a733656f0d60405160405180910390a45050565b600081815260018301602052604081205461303a575081546001818101845560008481526020808220909301849055845484825282860190935260409020919091556108d0565b5060006108d0565b60006001600160e01b03198216630271189760e51b14806108d057506108d082613e8e565b613075868686868686613ece565b600c5460ff16801561308f57506001600160a01b03851615155b80156130a357506001600160a01b03841615155b15613197576001600160a01b03851660009081527f7c7a990f752005aea38438cc35abc5417bd322e6c964ec21d52573494225142c602052604090205460ff168061312557506001600160a01b03841660009081527f7c7a990f752005aea38438cc35abc5417bd322e6c964ec21d52573494225142c602052604090205460ff165b6131975760405162461bcd60e51b815260206004820152603c60248201527f4163636573734e46543a205472616e736665727320617265207265737472696360448201527f74656420746f205452414e534645525f524f4c4520686f6c646572730000000060648201526084016108a2565b60005b8351811015612f1857600d60008583815181106131b9576131b9614dfe565b60209081029190910181015182528101919091526040016000206002015460ff161580156131ef5750600c54610100900460ff16155b15613284576001600160a01b038616158061321257506001600160a01b03861630145b6132845760405162461bcd60e51b815260206004820152603960248201527f4163636573734e46543a2063616e6e6f74207472616e7366657220616e20616360448201527f63657373204e465420746861742069732072656465656d65640000000000000060648201526084016108a2565b8061328e81614e2a565b91505061319a565b6001600160a01b0384163b156129535760405163bc197c8160e01b81526001600160a01b0385169063bc197c81906132da90899089908890889088906004016150e0565b602060405180830381600087803b1580156132f457600080fd5b505af1925050508015613324575060408051601f3d908101601f191682019092526133219181019061513e565b60015b6133da5761333061515b565b806308c379a0141561336a5750613345615176565b80613350575061336c565b8060405162461bcd60e51b81526004016108a29190614494565b505b60405162461bcd60e51b815260206004820152603460248201527f455243313135353a207472616e7366657220746f206e6f6e204552433131353560448201527f526563656976657220696d706c656d656e74657200000000000000000000000060648201526084016108a2565b6001600160e01b0319811663bc197c8160e01b14612f185760405162461bcd60e51b815260206004820152602860248201527f455243313135353a204552433131353552656365697665722072656a656374656044820152676420746f6b656e7360c01b60648201526084016108a2565b6000828152602081815260408083206001600160a01b038516845290915290205460ff1661260557613487816001600160a01b03166014613edc565b613492836020613edc565b6040516020016134a3929190615200565b60408051601f198184030181529082905262461bcd60e51b82526108a291600401614494565b6000828152602081815260408083206001600160a01b038516845290915290205460ff1615612605576000828152602081815260408083206001600160a01b03851684529091529020805460ff1916905561352261262d565b6001600160a01b0316816001600160a01b0316837ff6391f5c32d9c69d2a47ea670b442974b53935d1edc7fd64eb21e047a839171b60405160405180910390a45050565b6000818152600183016020526040812054801561364f57600061358a600183614f02565b855490915060009061359e90600190614f02565b90508181146136035760008660000182815481106135be576135be614dfe565b90600052602060002001549050808760000184815481106135e1576135e1614dfe565b6000918252602080832090910192909255918252600188019052604090208390555b855486908061361457613614615281565b6001900381819060005260206000200160009055905585600101600086815260200190815260200160002060009055600193505050506108d0565b60009150506108d0565b6001600160a01b0384166136b95760405162461bcd60e51b815260206004820152602160248201527f455243313135353a206d696e7420746f20746865207a65726f206164647265736044820152607360f81b60648201526084016108a2565b815183511461371b5760405162461bcd60e51b815260206004820152602860248201527f455243313135353a2069647320616e6420616d6f756e7473206c656e677468206044820152670dad2e6dac2e8c6d60c31b60648201526084016108a2565b600061372561262d565b905061373681600087878787613067565b60005b84518110156137d25783818151811061375457613754614dfe565b60200260200101516002600087848151811061377257613772614dfe565b602002602001015181526020019081526020016000206000886001600160a01b03166001600160a01b0316815260200190815260200160002060008282546137ba9190614eea565b909155508190506137ca81614e2a565b915050613739565b50846001600160a01b031660006001600160a01b0316826001600160a01b03167f4a39dc06d4c0dbc64b70af90fd698a233a518aa5d07e595d983b8c0526c8f7fb87876040516138239291906150b2565b60405180910390a4610da981600087878787613296565b6001600160a01b03831661389c5760405162461bcd60e51b815260206004820152602360248201527f455243313135353a206275726e2066726f6d20746865207a65726f206164647260448201526265737360e81b60648201526084016108a2565b80518251146138fe5760405162461bcd60e51b815260206004820152602860248201527f455243313135353a2069647320616e6420616d6f756e7473206c656e677468206044820152670dad2e6dac2e8c6d60c31b60648201526084016108a2565b600061390861262d565b905061392881856000868660405180602001604052806000815250613067565b60005b8351811015613a2c57600084828151811061394857613948614dfe565b60200260200101519050600084838151811061396657613966614dfe565b60209081029190910181015160008481526002835260408082206001600160a01b038c1683529093529190912054909150818110156139f35760405162461bcd60e51b8152602060048201526024808201527f455243313135353a206275726e20616d6f756e7420657863656564732062616c604482015263616e636560e01b60648201526084016108a2565b60009283526002602090815260408085206001600160a01b038b1686529091529092209103905580613a2481614e2a565b91505061392b565b5060006001600160a01b0316846001600160a01b0316826001600160a01b03167f4a39dc06d4c0dbc64b70af90fd698a233a518aa5d07e595d983b8c0526c8f7fb86866040516123f19291906150b2565b613a8984848484614085565b60008381526006602052604081208054849290613aa7908490614eea565b909155505050505050565b6000826000018281548110613ac957613ac9614dfe565b9060005260206000200154905092915050565b6060833b613b3b5760405162461bcd60e51b815260206004820152602660248201527f416464726573733a2064656c65676174652063616c6c20746f206e6f6e2d636f6044820152651b9d1c9858dd60d21b60648201526084016108a2565b600080856001600160a01b031685604051613b569190615297565b600060405180830381855af49150503d8060008114613b91576040519150601f19603f3d011682016040523d82523d6000602084013e613b96565b606091505b5091509150613ba6828286614193565b9695505050505050565b60408051600180825281830190925260609160009190602080830190803683370190505090508281600081518110613bea57613bea614dfe565b602090810291909101015292915050565b6001600160a01b0384163b156129535760405163f23a6e6160e01b81526001600160a01b0385169063f23a6e6190613c3f90899089908890889088906004016152b3565b602060405180830381600087803b158015613c5957600080fd5b505af1925050508015613c89575060408051601f3d908101601f19168201909252613c869181019061513e565b60015b613c955761333061515b565b6001600160e01b0319811663f23a6e6160e01b14612f185760405162461bcd60e51b815260206004820152602860248201527f455243313135353a204552433131353552656365697665722072656a656374656044820152676420746f6b656e7360c01b60648201526084016108a2565b6001600160a01b038316613d685760405162461bcd60e51b815260206004820152602360248201527f455243313135353a206275726e2066726f6d20746865207a65726f206164647260448201526265737360e81b60648201526084016108a2565b6000613d7261262d565b9050613da281856000613d8487613bb0565b613d8d87613bb0565b60405180602001604052806000815250613067565b60008381526002602090815260408083206001600160a01b038816845290915290205482811015613e215760405162461bcd60e51b8152602060048201526024808201527f455243313135353a206275726e20616d6f756e7420657863656564732062616c604482015263616e636560e01b60648201526084016108a2565b60008481526002602090815260408083206001600160a01b03898116808652918452828520888703905582518981529384018890529092908616917fc3d58168c5ae7397731d063d5bbf3d657854427343f4c083240f7aacaa2d0f62910160405180910390a45050505050565b60006001600160e01b03198216636cdb3d1360e11b1480613ebf57506001600160e01b031982166303a24d0760e21b145b806108d057506108d0826141cc565b6129538686868686866141f1565b60606000613eeb836002614e62565b613ef6906002614eea565b67ffffffffffffffff811115613f0e57613f0e6144a7565b6040519080825280601f01601f191660200182016040528015613f38576020820181803683370190505b509050600360fc1b81600081518110613f5357613f53614dfe565b60200101906001600160f81b031916908160001a905350600f60fb1b81600181518110613f8257613f82614dfe565b60200101906001600160f81b031916908160001a9053506000613fa6846002614e62565b613fb1906001614eea565b90505b6001811115614036577f303132333435363738396162636465660000000000000000000000000000000085600f1660108110613ff257613ff2614dfe565b1a60f81b82828151811061400857614008614dfe565b60200101906001600160f81b031916908160001a90535060049490941c9361402f816152f6565b9050613fb4565b508315611b385760405162461bcd60e51b815260206004820181905260248201527f537472696e67733a20686578206c656e67746820696e73756666696369656e7460448201526064016108a2565b6001600160a01b0384166140e55760405162461bcd60e51b815260206004820152602160248201527f455243313135353a206d696e7420746f20746865207a65726f206164647265736044820152607360f81b60648201526084016108a2565b60006140ef61262d565b905061410181600087612de488613bb0565b60008481526002602090815260408083206001600160a01b038916845290915281208054859290614133908490614eea565b909155505060408051858152602081018590526001600160a01b0380881692600092918516917fc3d58168c5ae7397731d063d5bbf3d657854427343f4c083240f7aacaa2d0f62910160405180910390a4610da981600087878787613bfb565b606083156141a2575081611b38565b8251156141b25782518084602001fd5b8160405162461bcd60e51b81526004016108a29190614494565b60006001600160e01b03198216635a05180f60e01b14806108d057506108d08261426a565b60055460ff16156129535760405162461bcd60e51b815260206004820152602c60248201527f455243313135355061757361626c653a20746f6b656e207472616e736665722060448201527f7768696c6520706175736564000000000000000000000000000000000000000060648201526084016108a2565b60006001600160e01b03198216637965db0b60e01b14806108d057506301ffc9a760e01b6001600160e01b03198316146108d0565b8280546142ab90614dc3565b90600052602060002090601f0160209004810192826142cd5760008555614313565b82601f106142e657805160ff1916838001178555614313565b82800160010185558215614313579182015b828111156143135782518255916020019190600101906142f8565b5061431f929150614397565b5090565b82805461432f90614dc3565b90600052602060002090601f0160209004810192826143515760008555614313565b82601f1061436a5782800160ff19823516178555614313565b82800160010185558215614313579182015b8281111561431357823582559160200191906001019061437c565b5b8082111561431f5760008155600101614398565b6001600160a01b03811681146143c157600080fd5b50565b600080604083850312156143d757600080fd5b82356143e2816143ac565b946020939093013593505050565b6001600160e01b0319811681146143c157600080fd5b60006020828403121561441857600080fd5b8135611b38816143f0565b60006020828403121561443557600080fd5b5035919050565b60005b8381101561445757818101518382015260200161443f565b83811115610c4f5750506000910152565b6000815180845261448081602086016020860161443c565b601f01601f19169290920160200192915050565b602081526000611b386020830184614468565b634e487b7160e01b600052604160045260246000fd5b601f8201601f1916810167ffffffffffffffff811182821017156144e3576144e36144a7565b6040525050565b600082601f8301126144fb57600080fd5b813567ffffffffffffffff811115614515576145156144a7565b60405161452c601f8301601f1916602001826144bd565b81815284602083860101111561454157600080fd5b816020850160208301376000918101602001919091529392505050565b6000806000806080858703121561457457600080fd5b843561457f816143ac565b9350602085013561458f816143ac565b925060408501359150606085013567ffffffffffffffff8111156145b257600080fd5b6145be878288016144ea565b91505092959194509250565b600067ffffffffffffffff8211156145e4576145e46144a7565b5060051b60200190565b600082601f8301126145ff57600080fd5b8135602061460c826145ca565b60405161461982826144bd565b83815260059390931b850182019282810191508684111561463957600080fd5b8286015b84811015614654578035835291830191830161463d565b509695505050505050565b6000806000806080858703121561467557600080fd5b8435614680816143ac565b9350602085013567ffffffffffffffff8082111561469d57600080fd5b6146a9888389016145ee565b945060408701359150808211156146bf57600080fd5b6146cb888389016145ee565b935060608701359150808211156146e157600080fd5b506145be878288016144ea565b6000806040838503121561470157600080fd5b50508035926020909101359150565b600080600080600060a0868803121561472857600080fd5b8535614733816143ac565b94506020860135614743816143ac565b9350604086013567ffffffffffffffff8082111561476057600080fd5b61476c89838a016145ee565b9450606088013591508082111561478257600080fd5b61478e89838a016145ee565b935060808801359150808211156147a457600080fd5b506147b1888289016144ea565b9150509295509295909350565b600080604083850312156147d157600080fd5b8235915060208301356147e3816143ac565b809150509250929050565b60008083601f84011261480057600080fd5b50813567ffffffffffffffff81111561481857600080fd5b6020830191508360208260051b850101111561483357600080fd5b9250929050565b60008083601f84011261484c57600080fd5b50813567ffffffffffffffff81111561486457600080fd5b60208301915083602082850101111561483357600080fd5b600080600080600080600080600060a08a8c03121561489a57600080fd5b89356148a5816143ac565b985060208a013567ffffffffffffffff808211156148c257600080fd5b6148ce8d838e016147ee565b909a50985060408c01359150808211156148e757600080fd5b6148f38d838e016147ee565b909850965060608c013591508082111561490c57600080fd5b6149188d838e016147ee565b909650945060808c013591508082111561493157600080fd5b5061493e8c828d0161483a565b915080935050809150509295985092959850929598565b6000806040838503121561496857600080fd5b823567ffffffffffffffff8082111561498057600080fd5b818501915085601f83011261499457600080fd5b813560206149a1826145ca565b6040516149ae82826144bd565b83815260059390931b85018201928281019150898411156149ce57600080fd5b948201945b838610156149f55785356149e6816143ac565b825294820194908201906149d3565b96505086013592505080821115614a0b57600080fd5b50614a18858286016145ee565b9150509250929050565b600081518084526020808501945080840160005b83811015614a5257815187529582019590820190600101614a36565b509495945050505050565b602081526000611b386020830184614a22565b600060208284031215614a8257600080fd5b8135611b38816143ac565b600080600060608486031215614aa257600080fd5b8335614aad816143ac565b9250602084013567ffffffffffffffff80821115614aca57600080fd5b614ad6878388016145ee565b93506040860135915080821115614aec57600080fd5b50614af9868287016145ee565b9150509250925092565b60008060008060808587031215614b1957600080fd5b8435614b24816143ac565b93506020850135925060408501359150606085013567ffffffffffffffff8111156145b257600080fd5b80151581146143c157600080fd5b600060208284031215614b6e57600080fd5b8135611b3881614b4e565b60008060208385031215614b8c57600080fd5b823567ffffffffffffffff811115614ba357600080fd5b614baf8582860161483a565b90969095509350505050565b634e487b7160e01b600052602160045260246000fd5b6001600160a01b038616815260a060208201526000614bf360a0830187614468565b9050841515604083015283606083015260038310614c2157634e487b7160e01b600052602160045260246000fd5b8260808301529695505050505050565b60008060408385031215614c4457600080fd5b8235614c4f816143ac565b915060208301356147e381614b4e565b60008060208385031215614c7257600080fd5b823567ffffffffffffffff811115614c8957600080fd5b614baf858286016147ee565b6000602080830181845280855180835260408601915060408160051b870101925083870160005b82811015614cea57603f19888603018452614cd8858351614468565b94509285019290850190600101614cbc565b5092979650505050505050565b60008060408385031215614d0a57600080fd5b8235614d15816143ac565b915060208301356147e3816143ac565b600080600080600060a08688031215614d3d57600080fd5b8535614d48816143ac565b94506020860135614d58816143ac565b93506040860135925060608601359150608086013567ffffffffffffffff811115614d8257600080fd5b6147b1888289016144ea565b600080600060608486031215614da357600080fd5b8335614dae816143ac565b95602085013595506040909401359392505050565b600181811c90821680614dd757607f821691505b60208210811415614df857634e487b7160e01b600052602260045260246000fd5b50919050565b634e487b7160e01b600052603260045260246000fd5b634e487b7160e01b600052601160045260246000fd5b6000600019821415614e3e57614e3e614e14565b5060010190565b600060208284031215614e5757600080fd5b8151611b38816143ac565b6000816000190483118215151615614e7c57614e7c614e14565b500290565b600082614e9e57634e487b7160e01b600052601260045260246000fd5b500490565b6000808335601e19843603018112614eba57600080fd5b83018035915067ffffffffffffffff821115614ed557600080fd5b60200191503681900382131561483357600080fd5b60008219821115614efd57614efd614e14565b500190565b600082821015614f1457614f14614e14565b500390565b81835281816020850137506000828201602090810191909152601f909101601f19169091010190565b818352600060208085019450848460051b86018460005b87811015614fc35783830389528135601e19883603018112614f7a57600080fd5b8701803567ffffffffffffffff811115614f9357600080fd5b803603891315614fa257600080fd5b614faf8582898501614f19565b9a87019a9450505090840190600101614f59565b5090979650505050505050565b60a081526000614fe360a083018b614a22565b8281036020840152614ff6818a8c614f42565b9050828103604084015261500a8189614a22565b9050828103606084015261501f818789614f42565b905082810360808401528381527f07ffffffffffffffffffffffffffffffffffffffffffffffffffffffffffffff84111561505957600080fd5b8360051b80866020840137600091016020019081529a9950505050505050505050565b60006020828403121561508e57600080fd5b5051919050565b6000602082840312156150a757600080fd5b8151611b3881614b4e565b6040815260006150c56040830185614a22565b82810360208401526150d78185614a22565b95945050505050565b60006001600160a01b03808816835280871660208401525060a0604083015261510c60a0830186614a22565b828103606084015261511e8186614a22565b905082810360808401526151328185614468565b98975050505050505050565b60006020828403121561515057600080fd5b8151611b38816143f0565b600060033d11156125f85760046000803e5060005160e01c90565b600060443d10156151845790565b6040516003193d81016004833e81513d67ffffffffffffffff81602484011181841117156151b457505050505090565b82850191508151818111156151cc5750505050505090565b843d87010160208285010111156151e65750505050505090565b6151f5602082860101876144bd565b509095945050505050565b7f416363657373436f6e74726f6c3a206163636f756e742000000000000000000081526000835161523881601785016020880161443c565b7f206973206d697373696e6720726f6c6520000000000000000000000000000000601791840191820152835161527581602884016020880161443c565b01602801949350505050565b634e487b7160e01b600052603160045260246000fd5b600082516152a981846020870161443c565b9190910192915050565b60006001600160a01b03808816835280871660208401525084604083015283606083015260a060808301526152eb60a0830184614468565b979650505050505050565b60008161530557615305614e14565b50600019019056fe416464726573733a206c6f772d6c6576656c2064656c65676174652063616c6c206661696c6564a164736f6c6343000809000a",
  "linkReferences": {},
  "deployedLinkReferences": {}
}