{
  "_format": "hh-sol-artifact-1",
  "contractName": "LazyNFT",
  "sourceName": "contracts/LazyNFT.sol",
  "abi": [
    {
      "inputs": [
        {
          "internalType": "address payable",
          "name": "_controlCenter",
          "type": "address"
        },
        {
          "internalType": "string",
          "name": "_name",
          "type": "string"
        },
        {
          "internalType": "string",
          "name": "_symbol",
          "type": "string"
        },
        {
          "internalType": "address",
          "name": "_trustedForwarder",
          "type": "address"
        },
        {
          "internalType": "string",
          "name": "_contractUri",
          "type": "string"
        },
        {
          "internalType": "string",
          "name": "_baseTokenUri",
          "type": "string"
        },
        {
          "internalType": "uint256",
          "name": "_maxSupply",
          "type": "uint256"
        },
        {
          "internalType": "uint256",
          "name": "_royaltyBps",
          "type": "uint256"
        }
      ],
      "stateMutability": "nonpayable",
      "type": "constructor"
    },
    {
      "anonymous": false,
      "inputs": [
        {
          "indexed": true,
          "internalType": "address",
          "name": "owner",
          "type": "address"
        },
        {
          "indexed": true,
          "internalType": "address",
          "name": "approved",
          "type": "address"
        },
        {
          "indexed": true,
          "internalType": "uint256",
          "name": "tokenId",
          "type": "uint256"
        }
      ],
      "name": "Approval",
      "type": "event"
    },
    {
      "anonymous": false,
      "inputs": [
        {
          "indexed": true,
          "internalType": "address",
          "name": "owner",
          "type": "address"
        },
        {
          "indexed": true,
          "internalType": "address",
          "name": "operator",
          "type": "address"
        },
        {
          "indexed": false,
          "internalType": "bool",
          "name": "approved",
          "type": "bool"
        }
      ],
      "name": "ApprovalForAll",
      "type": "event"
    },
    {
      "anonymous": false,
      "inputs": [
        {
          "indexed": false,
          "internalType": "string",
          "name": "uri",
          "type": "string"
        }
      ],
      "name": "BaseTokenURIUpdated",
      "type": "event"
    },
    {
      "anonymous": false,
      "inputs": [
        {
          "indexed": true,
          "internalType": "address",
          "name": "to",
          "type": "address"
        },
        {
          "indexed": false,
          "internalType": "uint256",
          "name": "startTokenId",
          "type": "uint256"
        },
        {
          "indexed": false,
          "internalType": "uint256",
          "name": "quantity",
          "type": "uint256"
        },
        {
          "indexed": false,
          "internalType": "uint256",
          "name": "mintConditionIndex",
          "type": "uint256"
        }
      ],
      "name": "Claimed",
      "type": "event"
    },
    {
      "anonymous": false,
      "inputs": [
        {
          "indexed": true,
          "internalType": "address",
          "name": "to",
          "type": "address"
        },
        {
          "indexed": false,
          "internalType": "uint256",
          "name": "amount",
          "type": "uint256"
        }
      ],
      "name": "FundsWithdrawn",
      "type": "event"
    },
    {
      "anonymous": false,
      "inputs": [
        {
          "indexed": false,
          "internalType": "address",
          "name": "account",
          "type": "address"
        }
      ],
      "name": "Paused",
      "type": "event"
    },
    {
      "anonymous": false,
      "inputs": [
        {
          "components": [
            {
              "internalType": "uint256",
              "name": "startTimestamp",
              "type": "uint256"
            },
            {
              "internalType": "uint256",
              "name": "maxMintSupply",
              "type": "uint256"
            },
            {
              "internalType": "uint256",
              "name": "currentMintSupply",
              "type": "uint256"
            },
            {
              "internalType": "uint256",
              "name": "quantityLimitPerTransaction",
              "type": "uint256"
            },
            {
              "internalType": "uint256",
              "name": "waitTimeSecondsLimitPerTransaction",
              "type": "uint256"
            },
            {
              "internalType": "bytes32",
              "name": "merkleRoot",
              "type": "bytes32"
            },
            {
              "internalType": "uint256",
              "name": "pricePerToken",
              "type": "uint256"
            },
            {
              "internalType": "address",
              "name": "currency",
              "type": "address"
            }
          ],
          "indexed": false,
          "internalType": "struct LazyNFT.PublicMintCondition[]",
          "name": "mintConditions",
          "type": "tuple[]"
        }
      ],
      "name": "PublicMintConditionUpdated",
      "type": "event"
    },
    {
      "anonymous": false,
      "inputs": [
        {
          "indexed": false,
          "internalType": "bool",
          "name": "transferable",
          "type": "bool"
        }
      ],
      "name": "RestrictedTransferUpdated",
      "type": "event"
    },
    {
      "anonymous": false,
      "inputs": [
        {
          "indexed": true,
          "internalType": "bytes32",
          "name": "role",
          "type": "bytes32"
        },
        {
          "indexed": true,
          "internalType": "bytes32",
          "name": "previousAdminRole",
          "type": "bytes32"
        },
        {
          "indexed": true,
          "internalType": "bytes32",
          "name": "newAdminRole",
          "type": "bytes32"
        }
      ],
      "name": "RoleAdminChanged",
      "type": "event"
    },
    {
      "anonymous": false,
      "inputs": [
        {
          "indexed": true,
          "internalType": "bytes32",
          "name": "role",
          "type": "bytes32"
        },
        {
          "indexed": true,
          "internalType": "address",
          "name": "account",
          "type": "address"
        },
        {
          "indexed": true,
          "internalType": "address",
          "name": "sender",
          "type": "address"
        }
      ],
      "name": "RoleGranted",
      "type": "event"
    },
    {
      "anonymous": false,
      "inputs": [
        {
          "indexed": true,
          "internalType": "bytes32",
          "name": "role",
          "type": "bytes32"
        },
        {
          "indexed": true,
          "internalType": "address",
          "name": "account",
          "type": "address"
        },
        {
          "indexed": true,
          "internalType": "address",
          "name": "sender",
          "type": "address"
        }
      ],
      "name": "RoleRevoked",
      "type": "event"
    },
    {
      "anonymous": false,
      "inputs": [
        {
          "indexed": false,
          "internalType": "uint256",
          "name": "royaltyBps",
          "type": "uint256"
        }
      ],
      "name": "RoyaltyUpdated",
      "type": "event"
    },
    {
      "anonymous": false,
      "inputs": [
        {
          "indexed": false,
          "internalType": "uint256",
          "name": "supply",
          "type": "uint256"
        }
      ],
      "name": "TotalSupplyUpdated",
      "type": "event"
    },
    {
      "anonymous": false,
      "inputs": [
        {
          "indexed": true,
          "internalType": "address",
          "name": "from",
          "type": "address"
        },
        {
          "indexed": true,
          "internalType": "address",
          "name": "to",
          "type": "address"
        },
        {
          "indexed": true,
          "internalType": "uint256",
          "name": "tokenId",
          "type": "uint256"
        }
      ],
      "name": "Transfer",
      "type": "event"
    },
    {
      "anonymous": false,
      "inputs": [
        {
          "indexed": false,
          "internalType": "address",
          "name": "account",
          "type": "address"
        }
      ],
      "name": "Unpaused",
      "type": "event"
    },
    {
      "inputs": [],
      "name": "DEFAULT_ADMIN_ROLE",
      "outputs": [
        {
          "internalType": "bytes32",
          "name": "",
          "type": "bytes32"
        }
      ],
      "stateMutability": "view",
      "type": "function"
    },
    {
      "inputs": [],
      "name": "MINTER_ROLE",
      "outputs": [
        {
          "internalType": "bytes32",
          "name": "",
          "type": "bytes32"
        }
      ],
      "stateMutability": "view",
      "type": "function"
    },
    {
      "inputs": [],
      "name": "PAUSER_ROLE",
      "outputs": [
        {
          "internalType": "bytes32",
          "name": "",
          "type": "bytes32"
        }
      ],
      "stateMutability": "view",
      "type": "function"
    },
    {
      "inputs": [],
      "name": "TRANSFER_ROLE",
      "outputs": [
        {
          "internalType": "bytes32",
          "name": "",
          "type": "bytes32"
        }
      ],
      "stateMutability": "view",
      "type": "function"
    },
    {
      "inputs": [
        {
          "internalType": "address",
          "name": "to",
          "type": "address"
        },
        {
          "internalType": "uint256",
          "name": "tokenId",
          "type": "uint256"
        }
      ],
      "name": "approve",
      "outputs": [],
      "stateMutability": "nonpayable",
      "type": "function"
    },
    {
      "inputs": [
        {
          "internalType": "address",
          "name": "owner",
          "type": "address"
        }
      ],
      "name": "balanceOf",
      "outputs": [
        {
          "internalType": "uint256",
          "name": "",
          "type": "uint256"
        }
      ],
      "stateMutability": "view",
      "type": "function"
    },
    {
      "inputs": [
        {
          "internalType": "uint256",
          "name": "tokenId",
          "type": "uint256"
        }
      ],
      "name": "burn",
      "outputs": [],
      "stateMutability": "nonpayable",
      "type": "function"
    },
    {
      "inputs": [
        {
          "internalType": "uint256",
          "name": "quantity",
          "type": "uint256"
        },
        {
          "internalType": "bytes32[]",
          "name": "proofs",
          "type": "bytes32[]"
        }
      ],
      "name": "claim",
      "outputs": [],
      "stateMutability": "payable",
      "type": "function"
    },
    {
      "inputs": [],
      "name": "contractURI",
      "outputs": [
        {
          "internalType": "string",
          "name": "",
          "type": "string"
        }
      ],
      "stateMutability": "view",
      "type": "function"
    },
    {
      "inputs": [
        {
          "internalType": "uint256",
          "name": "tokenId",
          "type": "uint256"
        }
      ],
      "name": "getApproved",
      "outputs": [
        {
          "internalType": "address",
          "name": "",
          "type": "address"
        }
      ],
      "stateMutability": "view",
      "type": "function"
    },
    {
      "inputs": [],
      "name": "getLastStartedMintConditionIndex",
      "outputs": [
        {
          "internalType": "uint256",
          "name": "",
          "type": "uint256"
        }
      ],
      "stateMutability": "view",
      "type": "function"
    },
    {
      "inputs": [
        {
          "internalType": "bytes32",
          "name": "role",
          "type": "bytes32"
        }
      ],
      "name": "getRoleAdmin",
      "outputs": [
        {
          "internalType": "bytes32",
          "name": "",
          "type": "bytes32"
        }
      ],
      "stateMutability": "view",
      "type": "function"
    },
    {
      "inputs": [
        {
          "internalType": "bytes32",
          "name": "role",
          "type": "bytes32"
        },
        {
          "internalType": "uint256",
          "name": "index",
          "type": "uint256"
        }
      ],
      "name": "getRoleMember",
      "outputs": [
        {
          "internalType": "address",
          "name": "",
          "type": "address"
        }
      ],
      "stateMutability": "view",
      "type": "function"
    },
    {
      "inputs": [
        {
          "internalType": "bytes32",
          "name": "role",
          "type": "bytes32"
        }
      ],
      "name": "getRoleMemberCount",
      "outputs": [
        {
          "internalType": "uint256",
          "name": "",
          "type": "uint256"
        }
      ],
      "stateMutability": "view",
      "type": "function"
    },
    {
      "inputs": [
        {
          "internalType": "bytes32",
          "name": "role",
          "type": "bytes32"
        },
        {
          "internalType": "address",
          "name": "account",
          "type": "address"
        }
      ],
      "name": "grantRole",
      "outputs": [],
      "stateMutability": "nonpayable",
      "type": "function"
    },
    {
      "inputs": [
        {
          "internalType": "bytes32",
          "name": "role",
          "type": "bytes32"
        },
        {
          "internalType": "address",
          "name": "account",
          "type": "address"
        }
      ],
      "name": "hasRole",
      "outputs": [
        {
          "internalType": "bool",
          "name": "",
          "type": "bool"
        }
      ],
      "stateMutability": "view",
      "type": "function"
    },
    {
      "inputs": [
        {
          "internalType": "address",
          "name": "owner",
          "type": "address"
        },
        {
          "internalType": "address",
          "name": "operator",
          "type": "address"
        }
      ],
      "name": "isApprovedForAll",
      "outputs": [
        {
          "internalType": "bool",
          "name": "",
          "type": "bool"
        }
      ],
      "stateMutability": "view",
      "type": "function"
    },
    {
      "inputs": [
        {
          "internalType": "address",
          "name": "forwarder",
          "type": "address"
        }
      ],
      "name": "isTrustedForwarder",
      "outputs": [
        {
          "internalType": "bool",
          "name": "",
          "type": "bool"
        }
      ],
      "stateMutability": "view",
      "type": "function"
    },
    {
      "inputs": [
        {
          "internalType": "uint256",
          "name": "amount",
          "type": "uint256"
        }
      ],
      "name": "lazyMintAmount",
      "outputs": [],
      "stateMutability": "nonpayable",
      "type": "function"
    },
    {
      "inputs": [
        {
          "internalType": "string[]",
          "name": "_uris",
          "type": "string[]"
        }
      ],
      "name": "lazyMintBatch",
      "outputs": [],
      "stateMutability": "nonpayable",
      "type": "function"
    },
    {
      "inputs": [],
      "name": "maxTotalSupply",
      "outputs": [
        {
          "internalType": "uint256",
          "name": "",
          "type": "uint256"
        }
      ],
      "stateMutability": "view",
      "type": "function"
    },
    {
      "inputs": [
        {
          "internalType": "uint256",
          "name": "",
          "type": "uint256"
        }
      ],
      "name": "mintConditions",
      "outputs": [
        {
          "internalType": "uint256",
          "name": "startTimestamp",
          "type": "uint256"
        },
        {
          "internalType": "uint256",
          "name": "maxMintSupply",
          "type": "uint256"
        },
        {
          "internalType": "uint256",
          "name": "currentMintSupply",
          "type": "uint256"
        },
        {
          "internalType": "uint256",
          "name": "quantityLimitPerTransaction",
          "type": "uint256"
        },
        {
          "internalType": "uint256",
          "name": "waitTimeSecondsLimitPerTransaction",
          "type": "uint256"
        },
        {
          "internalType": "bytes32",
          "name": "merkleRoot",
          "type": "bytes32"
        },
        {
          "internalType": "uint256",
          "name": "pricePerToken",
          "type": "uint256"
        },
        {
          "internalType": "address",
          "name": "currency",
          "type": "address"
        }
      ],
      "stateMutability": "view",
      "type": "function"
    },
    {
      "inputs": [
        {
          "internalType": "bytes[]",
          "name": "data",
          "type": "bytes[]"
        }
      ],
      "name": "multicall",
      "outputs": [
        {
          "internalType": "bytes[]",
          "name": "results",
          "type": "bytes[]"
        }
      ],
      "stateMutability": "nonpayable",
      "type": "function"
    },
    {
      "inputs": [],
      "name": "name",
      "outputs": [
        {
          "internalType": "string",
          "name": "",
          "type": "string"
        }
      ],
      "stateMutability": "view",
      "type": "function"
    },
    {
      "inputs": [
        {
          "internalType": "address",
          "name": "",
          "type": "address"
        },
        {
          "internalType": "uint256",
          "name": "",
          "type": "uint256"
        }
      ],
      "name": "nextMintTimestampByCondition",
      "outputs": [
        {
          "internalType": "uint256",
          "name": "",
          "type": "uint256"
        }
      ],
      "stateMutability": "view",
      "type": "function"
    },
    {
      "inputs": [],
      "name": "nextMintTokenId",
      "outputs": [
        {
          "internalType": "uint256",
          "name": "",
          "type": "uint256"
        }
      ],
      "stateMutability": "view",
      "type": "function"
    },
    {
      "inputs": [],
      "name": "nextTokenId",
      "outputs": [
        {
          "internalType": "uint256",
          "name": "",
          "type": "uint256"
        }
      ],
      "stateMutability": "view",
      "type": "function"
    },
    {
      "inputs": [
        {
          "internalType": "uint256",
          "name": "tokenId",
          "type": "uint256"
        }
      ],
      "name": "ownerOf",
      "outputs": [
        {
          "internalType": "address",
          "name": "",
          "type": "address"
        }
      ],
      "stateMutability": "view",
      "type": "function"
    },
    {
      "inputs": [],
      "name": "pause",
      "outputs": [],
      "stateMutability": "nonpayable",
      "type": "function"
    },
    {
      "inputs": [],
      "name": "paused",
      "outputs": [
        {
          "internalType": "bool",
          "name": "",
          "type": "bool"
        }
      ],
      "stateMutability": "view",
      "type": "function"
    },
    {
      "inputs": [
        {
          "internalType": "bytes32",
          "name": "role",
          "type": "bytes32"
        },
        {
          "internalType": "address",
          "name": "account",
          "type": "address"
        }
      ],
      "name": "renounceRole",
      "outputs": [],
      "stateMutability": "nonpayable",
      "type": "function"
    },
    {
      "inputs": [
        {
          "internalType": "bytes32",
          "name": "role",
          "type": "bytes32"
        },
        {
          "internalType": "address",
          "name": "account",
          "type": "address"
        }
      ],
      "name": "revokeRole",
      "outputs": [],
      "stateMutability": "nonpayable",
      "type": "function"
    },
    {
      "inputs": [],
      "name": "royaltyBps",
      "outputs": [
        {
          "internalType": "uint256",
          "name": "",
          "type": "uint256"
        }
      ],
      "stateMutability": "view",
      "type": "function"
    },
    {
      "inputs": [
        {
          "internalType": "uint256",
          "name": "",
          "type": "uint256"
        },
        {
          "internalType": "uint256",
          "name": "salePrice",
          "type": "uint256"
        }
      ],
      "name": "royaltyInfo",
      "outputs": [
        {
          "internalType": "address",
          "name": "receiver",
          "type": "address"
        },
        {
          "internalType": "uint256",
          "name": "royaltyAmount",
          "type": "uint256"
        }
      ],
      "stateMutability": "view",
      "type": "function"
    },
    {
      "inputs": [
        {
          "internalType": "address",
          "name": "from",
          "type": "address"
        },
        {
          "internalType": "address",
          "name": "to",
          "type": "address"
        },
        {
          "internalType": "uint256",
          "name": "tokenId",
          "type": "uint256"
        }
      ],
      "name": "safeTransferFrom",
      "outputs": [],
      "stateMutability": "nonpayable",
      "type": "function"
    },
    {
      "inputs": [
        {
          "internalType": "address",
          "name": "from",
          "type": "address"
        },
        {
          "internalType": "address",
          "name": "to",
          "type": "address"
        },
        {
          "internalType": "uint256",
          "name": "tokenId",
          "type": "uint256"
        },
        {
          "internalType": "bytes",
          "name": "_data",
          "type": "bytes"
        }
      ],
      "name": "safeTransferFrom",
      "outputs": [],
      "stateMutability": "nonpayable",
      "type": "function"
    },
    {
      "inputs": [
        {
          "internalType": "address",
          "name": "operator",
          "type": "address"
        },
        {
          "internalType": "bool",
          "name": "approved",
          "type": "bool"
        }
      ],
      "name": "setApprovalForAll",
      "outputs": [],
      "stateMutability": "nonpayable",
      "type": "function"
    },
    {
      "inputs": [
        {
          "internalType": "string",
          "name": "_uri",
          "type": "string"
        }
      ],
      "name": "setBaseTokenURI",
      "outputs": [],
      "stateMutability": "nonpayable",
      "type": "function"
    },
    {
      "inputs": [
        {
          "internalType": "string",
          "name": "_URI",
          "type": "string"
        }
      ],
      "name": "setContractURI",
      "outputs": [],
      "stateMutability": "nonpayable",
      "type": "function"
    },
    {
      "inputs": [
        {
          "internalType": "uint256",
          "name": "maxSupply",
          "type": "uint256"
        }
      ],
      "name": "setMaxTotalSupply",
      "outputs": [],
      "stateMutability": "nonpayable",
      "type": "function"
    },
    {
      "inputs": [
        {
          "components": [
            {
              "internalType": "uint256",
              "name": "startTimestamp",
              "type": "uint256"
            },
            {
              "internalType": "uint256",
              "name": "maxMintSupply",
              "type": "uint256"
            },
            {
              "internalType": "uint256",
              "name": "currentMintSupply",
              "type": "uint256"
            },
            {
              "internalType": "uint256",
              "name": "quantityLimitPerTransaction",
              "type": "uint256"
            },
            {
              "internalType": "uint256",
              "name": "waitTimeSecondsLimitPerTransaction",
              "type": "uint256"
            },
            {
              "internalType": "bytes32",
              "name": "merkleRoot",
              "type": "bytes32"
            },
            {
              "internalType": "uint256",
              "name": "pricePerToken",
              "type": "uint256"
            },
            {
              "internalType": "address",
              "name": "currency",
              "type": "address"
            }
          ],
          "internalType": "struct LazyNFT.PublicMintCondition[]",
          "name": "conditions",
          "type": "tuple[]"
        }
      ],
      "name": "setPublicMintConditions",
      "outputs": [],
      "stateMutability": "nonpayable",
      "type": "function"
    },
    {
      "inputs": [
        {
          "internalType": "bool",
          "name": "_restrictedTransfer",
          "type": "bool"
        }
      ],
      "name": "setRestrictedTransfer",
      "outputs": [],
      "stateMutability": "nonpayable",
      "type": "function"
    },
    {
      "inputs": [
        {
          "internalType": "uint256",
          "name": "_royaltyBps",
          "type": "uint256"
        }
      ],
      "name": "setRoyaltyBps",
      "outputs": [],
      "stateMutability": "nonpayable",
      "type": "function"
    },
    {
      "inputs": [
        {
          "internalType": "bytes4",
          "name": "interfaceId",
          "type": "bytes4"
        }
      ],
      "name": "supportsInterface",
      "outputs": [
        {
          "internalType": "bool",
          "name": "",
          "type": "bool"
        }
      ],
      "stateMutability": "view",
      "type": "function"
    },
    {
      "inputs": [],
      "name": "symbol",
      "outputs": [
        {
          "internalType": "string",
          "name": "",
          "type": "string"
        }
      ],
      "stateMutability": "view",
      "type": "function"
    },
    {
      "inputs": [
        {
          "internalType": "uint256",
          "name": "index",
          "type": "uint256"
        }
      ],
      "name": "tokenByIndex",
      "outputs": [
        {
          "internalType": "uint256",
          "name": "",
          "type": "uint256"
        }
      ],
      "stateMutability": "view",
      "type": "function"
    },
    {
      "inputs": [
        {
          "internalType": "address",
          "name": "owner",
          "type": "address"
        },
        {
          "internalType": "uint256",
          "name": "index",
          "type": "uint256"
        }
      ],
      "name": "tokenOfOwnerByIndex",
      "outputs": [
        {
          "internalType": "uint256",
          "name": "",
          "type": "uint256"
        }
      ],
      "stateMutability": "view",
      "type": "function"
    },
    {
      "inputs": [
        {
          "internalType": "uint256",
          "name": "tokenId",
          "type": "uint256"
        }
      ],
      "name": "tokenURI",
      "outputs": [
        {
          "internalType": "string",
          "name": "",
          "type": "string"
        }
      ],
      "stateMutability": "view",
      "type": "function"
    },
    {
      "inputs": [],
      "name": "totalSupply",
      "outputs": [
        {
          "internalType": "uint256",
          "name": "",
          "type": "uint256"
        }
      ],
      "stateMutability": "view",
      "type": "function"
    },
    {
      "inputs": [
        {
          "internalType": "address",
          "name": "from",
          "type": "address"
        },
        {
          "internalType": "address",
          "name": "to",
          "type": "address"
        },
        {
          "internalType": "uint256",
          "name": "tokenId",
          "type": "uint256"
        }
      ],
      "name": "transferFrom",
      "outputs": [],
      "stateMutability": "nonpayable",
      "type": "function"
    },
    {
      "inputs": [],
      "name": "transfersRestricted",
      "outputs": [
        {
          "internalType": "bool",
          "name": "",
          "type": "bool"
        }
      ],
      "stateMutability": "view",
      "type": "function"
    },
    {
      "inputs": [],
      "name": "unpause",
      "outputs": [],
      "stateMutability": "nonpayable",
      "type": "function"
    },
    {
      "inputs": [],
      "name": "withdrawFunds",
      "outputs": [],
      "stateMutability": "nonpayable",
      "type": "function"
    }
  ],
  "bytecode": "0x60806040523480156200001157600080fd5b506040516200559e3803806200559e83398101604081905262000034916200060d565b84878781600290805190602001906200004f9291906200047d565b508051620000659060039060208401906200047d565b5050600c80546001600160a81b0319166101006001600160a01b039485168102919091179091556001600d5560158054610100600160a81b031916938c1690910292909217909155508351620000c39060169060208701906200047d565b508251620000d99060179060208601906200047d565b50600e829055620000f56000620000ef6200019b565b620001b7565b620001247f9f2df0fed2c77648de5860a4cc508cd0818c85b8b8a1ab4ceeef8d981c8956a6620000ef6200019b565b620001537f65d7a28e3265b37a6474929f336521b332c1681b933f6cb9f3376673440d862a620000ef6200019b565b620001827f8502233096d909befbda0999bb8ea2f3a6be3c138b9fbf003752a4c8bce86f6c620000ef6200019b565b6200018d81620001fa565b50505050505050506200073c565b6000620001b26200031660201b62002bd91760201c565b905090565b620001ce82826200035560201b62002c0b1760201c565b6000828152600160209081526040909120620001f591839062002c1962000365821b17901c565b505050565b6200023360006200020a6200019b565b6000918252602082815260408084206001600160a01b0393909316845291905290205460ff1690565b620002795760405162461bcd60e51b815260206004820152601160248201527037b7363c9036b7b23ab6329030b236b4b760791b60448201526064015b60405180910390fd5b612710811115620002db5760405162461bcd60e51b815260206004820152602560248201527f6270732070726f7669646564206d757374206265206c657373207468616e20316044820152640302c3030360dc1b606482015260840162000270565b60148190556040518181527f244ea8d7627f5a08f4299862bd5a45752842c183aee5b0fb0d1e4887bfa605b39060200160405180910390a150565b600c546000906001600160a01b036101009091041633141562000340575060131936013560601c90565b620001b26200038560201b62002c2e1760201c565b62000361828262000389565b5050565b60006200037c836001600160a01b0384166200042b565b90505b92915050565b3390565b6000828152602081815260408083206001600160a01b038516845290915290205460ff1662000361576000828152602081815260408083206001600160a01b03851684529091529020805460ff19166001179055620003e76200019b565b6001600160a01b0316816001600160a01b0316837f2f8788117e7eff1d82e926ec794901d17c78024a50270940304540a733656f0d60405160405180910390a45050565b600081815260018301602052604081205462000474575081546001818101845560008481526020808220909301849055845484825282860190935260409020919091556200037f565b5060006200037f565b8280546200048b90620006ff565b90600052602060002090601f016020900481019282620004af5760008555620004fa565b82601f10620004ca57805160ff1916838001178555620004fa565b82800160010185558215620004fa579182015b82811115620004fa578251825591602001919060010190620004dd565b50620005089291506200050c565b5090565b5b808211156200050857600081556001016200050d565b80516001600160a01b03811681146200053b57600080fd5b919050565b634e487b7160e01b600052604160045260246000fd5b600082601f8301126200056857600080fd5b81516001600160401b038082111562000585576200058562000540565b604051601f8301601f19908116603f01168101908282118183101715620005b057620005b062000540565b81604052838152602092508683858801011115620005cd57600080fd5b600091505b83821015620005f15785820183015181830184015290820190620005d2565b83821115620006035760008385830101525b9695505050505050565b600080600080600080600080610100898b0312156200062b57600080fd5b620006368962000523565b60208a01519098506001600160401b03808211156200065457600080fd5b620006628c838d0162000556565b985060408b01519150808211156200067957600080fd5b620006878c838d0162000556565b97506200069760608c0162000523565b965060808b0151915080821115620006ae57600080fd5b620006bc8c838d0162000556565b955060a08b0151915080821115620006d357600080fd5b50620006e28b828c0162000556565b60c08b015160e0909b0151999c989b509699959894979350505050565b600181811c908216806200071457607f821691505b602082108114156200073657634e487b7160e01b600052602260045260246000fd5b50919050565b614e52806200074c6000396000f3fe60806040526004361061034a5760003560e01c80635c975abb116101bb578063a22cb465116100f7578063d539139311610095578063e88fbd411161006f578063e88fbd41146109ec578063e8a3d48514610a02578063e985e9c514610a17578063fd59855014610a6057600080fd5b8063d539139314610964578063d547741f14610998578063e63ab1e9146109b857600080fd5b8063b88d4fde116100d1578063b88d4fde146108ee578063c63adb2b1461090e578063c87b56dd14610924578063ca15c8731461094457600080fd5b8063a22cb46514610881578063ac9650d8146108a1578063b7cdd0bc146108ce57600080fd5b80638456cb591161016457806391d148541161013e57806391d14854146107f3578063938e3d7b1461083757806395d89b4114610857578063a217fddf1461086c57600080fd5b80638456cb591461079e5780638ba448c2146107b35780639010d07c146107d357600080fd5b806370a082311161019557806370a082311461074e57806375794a3c1461076e5780638423df791461078457600080fd5b80635c975abb146107015780635da53d58146107195780636352211e1461072e57600080fd5b80632f2ff15d1161028a5780633f4ba83a1161023357806342966c681161020d57806342966c681461066d5780634ce40a321461068d5780634f6ccce7146106ad578063572b6c05146106cd57600080fd5b80633f4ba83a14610618578063428131081461062d57806342842e0e1461064d57600080fd5b806330176e131161026457806330176e13146105b857806336568abe146105d85780633f3e4c11146105f857600080fd5b80632f2ff15d146105655780632f52ebb7146105855780632f745c591461059857600080fd5b80631f72d831116102f757806324600fc3116102d157806324600fc3146104cb578063248a9ca3146104e05780632a55205a146105105780632ab4d0521461054f57600080fd5b80631f72d83114610457578063206b60f91461047757806323b872dd146104ab57600080fd5b8063095ea7b311610328578063095ea7b3146103de57806318160ddd146104005780631edab0811461041f57600080fd5b806301ffc9a71461034f57806306fdde0314610384578063081812fc146103a6575b600080fd5b34801561035b57600080fd5b5061036f61036a366004614541565b610ac4565b60405190151581526020015b60405180910390f35b34801561039057600080fd5b50610399610af0565b60405161037b91906145b6565b3480156103b257600080fd5b506103c66103c13660046145c9565b610b82565b6040516001600160a01b03909116815260200161037b565b3480156103ea57600080fd5b506103fe6103f93660046145f7565b610c1c565b005b34801561040c57600080fd5b50600a545b60405190815260200161037b565b34801561042b57600080fd5b5061041161043a3660046145f7565b601260209081526000928352604080842090915290825290205481565b34801561046357600080fd5b506103fe6104723660046145c9565b610d44565b34801561048357600080fd5b506104117f8502233096d909befbda0999bb8ea2f3a6be3c138b9fbf003752a4c8bce86f6c81565b3480156104b757600080fd5b506103fe6104c6366004614623565b610e2d565b3480156104d757600080fd5b506103fe610eaf565b3480156104ec57600080fd5b506104116104fb3660046145c9565b60009081526020819052604090206001015490565b34801561051c57600080fd5b5061053061052b366004614664565b61116d565b604080516001600160a01b03909316835260208301919091520161037b565b34801561055b57600080fd5b50610411600e5481565b34801561057157600080fd5b506103fe610580366004614686565b611218565b6103fe610593366004614702565b61123a565b3480156105a457600080fd5b506104116105b33660046145f7565b611811565b3480156105c457600080fd5b506103fe6105d336600461474e565b6118b9565b3480156105e457600080fd5b506103fe6105f3366004614686565b611950565b34801561060457600080fd5b506103fe6106133660046145c9565b611972565b34801561062457600080fd5b506103fe6119f4565b34801561063957600080fd5b506103fe6106483660046147c0565b611a76565b34801561065957600080fd5b506103fe610668366004614623565b611eca565b34801561067957600080fd5b506103fe6106883660046145c9565b611ee5565b34801561069957600080fd5b506103fe6106a8366004614823565b611f6e565b3480156106b957600080fd5b506104116106c83660046145c9565b61210a565b3480156106d957600080fd5b5061036f6106e8366004614865565b600c5461010090046001600160a01b0390811691161490565b34801561070d57600080fd5b50600c5460ff1661036f565b34801561072557600080fd5b506104116121ae565b34801561073a57600080fd5b506103c66107493660046145c9565b6122ab565b34801561075a57600080fd5b50610411610769366004614865565b612336565b34801561077a57600080fd5b50610411600f5481565b34801561079057600080fd5b5060155461036f9060ff1681565b3480156107aa57600080fd5b506103fe6123d0565b3480156107bf57600080fd5b506103fe6107ce366004614890565b612450565b3480156107df57600080fd5b506103c66107ee366004614664565b6124de565b3480156107ff57600080fd5b5061036f61080e366004614686565b6000918252602082815260408084206001600160a01b0393909316845291905290205460ff1690565b34801561084357600080fd5b506103fe61085236600461474e565b6124fd565b34801561086357600080fd5b50610399612658565b34801561087857600080fd5b50610411600081565b34801561088d57600080fd5b506103fe61089c3660046148ad565b612667565b3480156108ad57600080fd5b506108c16108bc366004614823565b612769565b60405161037b91906148db565b3480156108da57600080fd5b506103fe6108e93660046145c9565b61285e565b3480156108fa57600080fd5b506103fe610909366004614953565b6129a1565b34801561091a57600080fd5b5061041160145481565b34801561093057600080fd5b5061039961093f3660046145c9565b612a2a565b34801561095057600080fd5b5061041161095f3660046145c9565b612b4a565b34801561097057600080fd5b506104117f9f2df0fed2c77648de5860a4cc508cd0818c85b8b8a1ab4ceeef8d981c8956a681565b3480156109a457600080fd5b506103fe6109b3366004614686565b612b61565b3480156109c457600080fd5b506104117f65d7a28e3265b37a6474929f336521b332c1681b933f6cb9f3376673440d862a81565b3480156109f857600080fd5b5061041160105481565b348015610a0e57600080fd5b50610399612b6b565b348015610a2357600080fd5b5061036f610a32366004614a33565b6001600160a01b03918216600090815260076020908152604080832093909416825291909152205460ff1690565b348015610a6c57600080fd5b50610a80610a7b3660046145c9565b612b7a565b604080519889526020890197909752958701949094526060860192909252608085015260a084015260c08301526001600160a01b031660e08201526101000161037b565b6000610acf82612c32565b80610aea57506001600160e01b0319821663152a902d60e11b145b92915050565b606060028054610aff90614a61565b80601f0160208091040260200160405190810160405280929190818152602001828054610b2b90614a61565b8015610b785780601f10610b4d57610100808354040283529160200191610b78565b820191906000526020600020905b815481529060010190602001808311610b5b57829003601f168201915b5050505050905090565b6000818152600460205260408120546001600160a01b0316610c005760405162461bcd60e51b815260206004820152602c60248201527f4552433732313a20617070726f76656420717565727920666f72206e6f6e657860448201526b34b9ba32b73a103a37b5b2b760a11b60648201526084015b60405180910390fd5b506000908152600660205260409020546001600160a01b031690565b6000610c27826122ab565b9050806001600160a01b0316836001600160a01b03161415610c955760405162461bcd60e51b815260206004820152602160248201527f4552433732313a20617070726f76616c20746f2063757272656e74206f776e656044820152603960f91b6064820152608401610bf7565b806001600160a01b0316610ca7612c57565b6001600160a01b03161480610cc35750610cc381610a32612c57565b610d355760405162461bcd60e51b815260206004820152603860248201527f4552433732313a20617070726f76652063616c6c6572206973206e6f74206f7760448201527f6e6572206e6f7220617070726f76656420666f7220616c6c00000000000000006064820152608401610bf7565b610d3f8383612c61565b505050565b610d51600061080e612c57565b610d915760405162461bcd60e51b815260206004820152601160248201527037b7363c9036b7b23ab6329030b236b4b760791b6044820152606401610bf7565b612710811115610df15760405162461bcd60e51b815260206004820152602560248201527f6270732070726f7669646564206d757374206265206c657373207468616e20316044820152640302c3030360dc1b6064820152608401610bf7565b60148190556040518181527f244ea8d7627f5a08f4299862bd5a45752842c183aee5b0fb0d1e4887bfa605b3906020015b60405180910390a150565b610e3e610e38612c57565b82612ccf565b610ea45760405162461bcd60e51b815260206004820152603160248201527f4552433732313a207472616e736665722063616c6c6572206973206e6f74206f6044820152701ddb995c881b9bdc88185c1c1c9bdd9959607a1b6064820152608401610bf7565b610d3f838383612dc6565b6015546040805163a217fddf60e01b815290516101009092046001600160a01b0316916391d1485491839163a217fddf91600480820192602092909190829003018186803b158015610f0057600080fd5b505afa158015610f14573d6000803e3d6000fd5b505050506040513d601f19601f82011682018060405250810190610f389190614a9c565b610f40612c57565b6040516001600160e01b031960e085901b16815260048101929092526001600160a01b0316602482015260440160206040518083038186803b158015610f8557600080fd5b505afa158015610f99573d6000803e3d6000fd5b505050506040513d601f19601f82011682018060405250810190610fbd9190614ab5565b610ffe5760405162461bcd60e51b81526020600482015260126024820152713737ba10383937ba37b1b7b61030b236b4b760711b6044820152606401610bf7565b60155460405163f2aab4b360e01b815230600482015260009161010090046001600160a01b03169063f2aab4b39060240160206040518083038186803b15801561104757600080fd5b505afa15801561105b573d6000803e3d6000fd5b505050506040513d601f19601f8201168201806040525081019061107f9190614ad2565b60405190915047906000906001600160a01b0384169083908381818185875af1925050503d80600081146110cf576040519150601f19603f3d011682016040523d82523d6000602084013e6110d4565b606091505b50509050806111255760405162461bcd60e51b815260206004820152601860248201527f6661696c656420746f207472616e736665722066756e647300000000000000006044820152606401610bf7565b826001600160a01b03167feaff4b37086828766ad3268786972c0cd24259d4c87a80f9d3963a3c3d999b0d8360405161116091815260200190565b60405180910390a2505050565b60155460405163f2aab4b360e01b815230600482015260009182916101009091046001600160a01b03169063f2aab4b39060240160206040518083038186803b1580156111b957600080fd5b505afa1580156111cd573d6000803e3d6000fd5b505050506040513d601f19601f820116820180604052508101906111f19190614ad2565b601454909250612710906112059085614b05565b61120f9190614b3a565b90509250929050565b6112228282612f85565b6000828152600160205260409020610d3f9082612c19565b6002600d54141561128d5760405162461bcd60e51b815260206004820152601f60248201527f5265656e7472616e637947756172643a207265656e7472616e742063616c6c006044820152606401610bf7565b6002600d55600c5460ff16156112d85760405162461bcd60e51b815260206004820152601060248201526f14185d5cd8589b194e881c185d5cd95960821b6044820152606401610bf7565b60006112e26121ae565b90506000601182815481106112f9576112f9614b4e565b600091825260209182902060408051610100810182526008909302909101805483526001810154938301939093526002830154908201526003820154606082015260048201546080820152600582015460a0820152600682015460c08201526007909101546001600160a01b031660e08201529050846113bb5760405162461bcd60e51b815260206004820152600d60248201527f6e656564207175616e74697479000000000000000000000000000000000000006044820152606401610bf7565b600e54856010546113cc9190614b64565b111561141a5760405162461bcd60e51b815260206004820152601760248201527f657863656564206d617820737570706c79206c696d69740000000000000000006044820152606401610bf7565b600f548560105461142b9190614b64565b11156114795760405162461bcd60e51b815260206004820152601b60248201527f63616e6e6f7420636c61696d20756e6d696e74656420746f6b656e00000000006044820152606401610bf7565b80606001518511156114cd5760405162461bcd60e51b815260206004820152600f60248201527f657863656564207478206c696d697400000000000000000000000000000000006044820152606401610bf7565b80602001518582604001516114e29190614b64565b11156115305760405162461bcd60e51b815260206004820152601660248201527f657863656564206d6178206d696e7420737570706c79000000000000000000006044820152606401610bf7565b6000601354836115409190614b64565b9050600060126000611550612c57565b6001600160a01b031681526020808201929092526040908101600090812085825290925290205490508015806115865750804210155b6115d25760405162461bcd60e51b815260206004820152600f60248201527f63616e6e6f74206d696e742079657400000000000000000000000000000000006044820152606401610bf7565b60a0830151156116b55760006115e6612c57565b60405160200161160e919060609190911b6bffffffffffffffffffffffff1916815260140190565b60405160208183030381529060405280519060200120905061166787878080602002602001604051908101604052809392919081815260200183836020028082843760009201919091525050505060a086015183612fb2565b6116b35760405162461bcd60e51b815260206004820152600e60248201527f696e76616c69642070726f6f66730000000000000000000000000000000000006044820152606401610bf7565b505b86601185815481106116c9576116c9614b4e565b906000526020600020906008020160020160008282546116e99190614b64565b909155505060808301514281019081101561170357506000195b8060126000611710612c57565b6001600160a01b031681526020808201929092526040908101600090812087825290925290205560c08401511561175e5761175e8460e001518560c001518a6117599190614b05565b613061565b60105460005b898110156117aa5761177f611777612c57565b601054613227565b6001601060008282546117929190614b64565b909155508190506117a281614b7c565b915050611764565b506117b3612c57565b60408051838152602081018c90529081018890526001600160a01b0391909116907f9cdcf2f7714cca3508c7f0110b04a90a80a3a8dd0e35de99689db74d28c5383e9060600160405180910390a250506001600d5550505050505050565b600061181c83612336565b82106118905760405162461bcd60e51b815260206004820152602b60248201527f455243373231456e756d657261626c653a206f776e657220696e646578206f7560448201527f74206f6620626f756e64730000000000000000000000000000000000000000006064820152608401610bf7565b506001600160a01b03919091166000908152600860209081526040808320938352929052205490565b6118c6600061080e612c57565b6119065760405162461bcd60e51b815260206004820152601160248201527037b7363c9036b7b23ab6329030b236b4b760791b6044820152606401610bf7565b61191260178383614421565b507fe6e4cd5c2dc7d2c20519b41832cd550fd3ea1186bf299d108179bf71fb8e00e58282604051611944929190614b97565b60405180910390a15050565b61195a8282613241565b6000828152600160205260409020610d3f90826132d9565b61197f600061080e612c57565b6119bf5760405162461bcd60e51b815260206004820152601160248201527037b7363c9036b7b23ab6329030b236b4b760791b6044820152606401610bf7565b600e8190556040518181527ff8cbdbee6d402ad22cddbc250098e39cd0d24f0fad122f64794577167c605df990602001610e22565b611a207f65d7a28e3265b37a6474929f336521b332c1681b933f6cb9f3376673440d862a61080e612c57565b611a6c5760405162461bcd60e51b815260206004820181905260248201527f6d75737420686176652070617573657220726f6c6520746f20756e70617573656044820152606401610bf7565b611a746132ee565b565b611a83600061080e612c57565b611ac35760405162461bcd60e51b815260206004820152601160248201527037b7363c9036b7b23ab6329030b236b4b760791b6044820152606401610bf7565b80611b105760405162461bcd60e51b815260206004820152601a60248201527f6e656564732061206c697374206f6620636f6e646974696f6e730000000000006044820152606401610bf7565b60115415611b3f5760115460138054600090611b2d908490614b64565b90915550611b3f9050601160006144a5565b6000805b82811015611e8c578115611be257838382818110611b6357611b63614b4e565b90506101000201600001358210611be25760405162461bcd60e51b815260206004820152602960248201527f737461727454696d657374616d70206d75737420626520696e20617363656e6460448201527f696e67206f7264657200000000000000000000000000000000000000000000006064820152608401610bf7565b6000848483818110611bf657611bf6614b4e565b905061010002016020013511611c4e5760405162461bcd60e51b815260206004820152601b60248201527f6d6178206d696e7420737570706c792063616e6e6f74206265203000000000006044820152606401610bf7565b6000848483818110611c6257611c62614b4e565b905061010002016060013511611cba5760405162461bcd60e51b815260206004820152601a60248201527f7175616e74697479206c696d69742063616e6e6f7420626520300000000000006044820152606401610bf7565b6011604051806101000160405280868685818110611cda57611cda614b4e565b611cee926101009091020135905042614b64565b8152602001868685818110611d0557611d05614b4e565b9050610100020160200135815260200160008152602001868685818110611d2e57611d2e614b4e565b90506101000201606001358152602001868685818110611d5057611d50614b4e565b90506101000201608001358152602001868685818110611d7257611d72614b4e565b9050610100020160a001358152602001868685818110611d9457611d94614b4e565b9050610100020160c001358152602001868685818110611db657611db6614b4e565b9050610100020160e0016020810190611dcf9190614865565b6001600160a01b0390811690915282546001808201855560009485526020948590208451600890930201918255938301519381019390935560408201516002840155606082015160038401556080820151600484015560a0820151600584015560c0820151600684015560e090910151600790920180546001600160a01b03191692909116919091179055838382818110611e6c57611e6c614b4e565b905061010002016000013591508080611e8490614b7c565b915050611b43565b507f0d81786d9719fff6cc2cf3c64025550dbba243da255d6c5fa0879e8ad6af83cc6011604051611ebd9190614bc6565b60405180910390a1505050565b610d3f838383604051806020016040528060008152506129a1565b611ef0610e38612c57565b611f625760405162461bcd60e51b815260206004820152603060248201527f4552433732314275726e61626c653a2063616c6c6572206973206e6f74206f7760448201527f6e6572206e6f7220617070726f766564000000000000000000000000000000006064820152608401610bf7565b611f6b81613390565b50565b600c5460ff1615611fb45760405162461bcd60e51b815260206004820152601060248201526f14185d5cd8589b194e881c185d5cd95960821b6044820152606401610bf7565b611fe07f9f2df0fed2c77648de5860a4cc508cd0818c85b8b8a1ab4ceeef8d981c8956a661080e612c57565b61202c5760405162461bcd60e51b815260206004820152601d60248201527f6d7573742068617665206d696e74657220726f6c6520746f206d696e740000006044820152606401610bf7565b600e54600f5461203d908390614b64565b11156120975760405162461bcd60e51b8152602060048201526024808201527f63616e6e6f74206d696e74206d6f7265207468616e206d6178546f74616c537560448201526370706c7960e01b6064820152608401610bf7565b600f5460005b82811015612102578383828181106120b7576120b7614b4e565b90506020028101906120c99190614c64565b60008481526018602052604090206120e2929091614421565b506120ee600183614b64565b9150806120fa81614b7c565b91505061209d565b50600f555050565b6000612115600a5490565b82106121895760405162461bcd60e51b815260206004820152602c60248201527f455243373231456e756d657261626c653a20676c6f62616c20696e646578206f60448201527f7574206f6620626f756e647300000000000000000000000000000000000000006064820152608401610bf7565b600a828154811061219c5761219c614b4e565b90600052602060002001549050919050565b6011546000906122005760405162461bcd60e51b815260206004820152601860248201527f6e6f207075626c6963206d696e7420636f6e646974696f6e00000000000000006044820152606401610bf7565b6011545b8015612262576011612217600183614cab565b8154811061222757612227614b4e565b90600052602060002090600802016000015442106122505761224a600182614cab565b91505090565b8061225a81614cc2565b915050612204565b5060405162461bcd60e51b815260206004820152601860248201527f6e6f20616374697665206d696e7420636f6e646974696f6e00000000000000006044820152606401610bf7565b6000818152600460205260408120546001600160a01b031680610aea5760405162461bcd60e51b815260206004820152602960248201527f4552433732313a206f776e657220717565727920666f72206e6f6e657869737460448201527f656e7420746f6b656e00000000000000000000000000000000000000000000006064820152608401610bf7565b60006001600160a01b0382166123b45760405162461bcd60e51b815260206004820152602a60248201527f4552433732313a2062616c616e636520717565727920666f7220746865207a6560448201527f726f2061646472657373000000000000000000000000000000000000000000006064820152608401610bf7565b506001600160a01b031660009081526005602052604090205490565b6123fc7f65d7a28e3265b37a6474929f336521b332c1681b933f6cb9f3376673440d862a61080e612c57565b6124485760405162461bcd60e51b815260206004820152601e60248201527f6d75737420686176652070617573657220726f6c6520746f20706175736500006044820152606401610bf7565b611a74613437565b61245d600061080e612c57565b61249d5760405162461bcd60e51b815260206004820152601160248201527037b7363c9036b7b23ab6329030b236b4b760791b6044820152606401610bf7565b6015805460ff19168215159081179091556040519081527ffb4ba02cee22486df888d7ffb97c6100ec3193781e025cb9a4bc6fc358d626cc90602001610e22565b60008281526001602052604081206124f690836134b3565b9392505050565b6015546040805163a217fddf60e01b815290516101009092046001600160a01b0316916391d1485491839163a217fddf91600480820192602092909190829003018186803b15801561254e57600080fd5b505afa158015612562573d6000803e3d6000fd5b505050506040513d601f19601f820116820180604052508101906125869190614a9c565b61258e612c57565b6040516001600160e01b031960e085901b16815260048101929092526001600160a01b0316602482015260440160206040518083038186803b1580156125d357600080fd5b505afa1580156125e7573d6000803e3d6000fd5b505050506040513d601f19601f8201168201806040525081019061260b9190614ab5565b61264c5760405162461bcd60e51b81526020600482015260126024820152713737ba10383937ba37b1b7b61030b236b4b760711b6044820152606401610bf7565b610d3f60168383614421565b606060038054610aff90614a61565b61266f612c57565b6001600160a01b0316826001600160a01b031614156126d05760405162461bcd60e51b815260206004820152601960248201527f4552433732313a20617070726f766520746f2063616c6c6572000000000000006044820152606401610bf7565b80600760006126dd612c57565b6001600160a01b03908116825260208083019390935260409182016000908120918716808252919093529120805460ff191692151592909217909155612721612c57565b6001600160a01b03167f17307eab39ab6107e8899845ad3d59bd9653f200f220920489ca2b5937696c318360405161275d911515815260200190565b60405180910390a35050565b60608167ffffffffffffffff8111156127845761278461493d565b6040519080825280602002602001820160405280156127b757816020015b60608152602001906001900390816127a25790505b50905060005b8281101561285757612827308585848181106127db576127db614b4e565b90506020028101906127ed9190614c64565b8080601f0160208091040260200160405190810160405280939291908181526020018383808284376000920191909152506134bf92505050565b82828151811061283957612839614b4e565b6020026020010181905250808061284f90614b7c565b9150506127bd565b5092915050565b600c5460ff16156128a45760405162461bcd60e51b815260206004820152601060248201526f14185d5cd8589b194e881c185d5cd95960821b6044820152606401610bf7565b6128d07f9f2df0fed2c77648de5860a4cc508cd0818c85b8b8a1ab4ceeef8d981c8956a661080e612c57565b61291c5760405162461bcd60e51b815260206004820152601d60248201527f6d7573742068617665206d696e74657220726f6c6520746f206d696e740000006044820152606401610bf7565b600e5481600f5461292d9190614b64565b11156129875760405162461bcd60e51b8152602060048201526024808201527f63616e6e6f74206d696e74206d6f7265207468616e206d6178546f74616c537560448201526370706c7960e01b6064820152608401610bf7565b80600f60008282546129999190614b64565b909155505050565b6129b26129ac612c57565b83612ccf565b612a185760405162461bcd60e51b815260206004820152603160248201527f4552433732313a207472616e736665722063616c6c6572206973206e6f74206f6044820152701ddb995c881b9bdc88185c1c1c9bdd9959607a1b6064820152608401610bf7565b612a24848484846134e4565b50505050565b60606000612a36613562565b600084815260186020526040812080549293509091612a5490614a61565b90501115612afb5760008381526018602052604090208054612a7590614a61565b80601f0160208091040260200160405190810160405280929190818152602001828054612aa190614a61565b8015612aee5780601f10612ac357610100808354040283529160200191612aee565b820191906000526020600020905b815481529060010190602001808311612ad157829003601f168201915b5050505050915050919050565b805115612b345780612b0c84613571565b604051602001612b1d929190614cd9565b604051602081830303815290604052915050919050565b5050604080516020810190915260008152919050565b6000818152600160205260408120610aea9061366f565b61195a8282613679565b606060168054610aff90614a61565b60118181548110612b8a57600080fd5b600091825260209091206008909102018054600182015460028301546003840154600485015460058601546006870154600790970154959750939592949193909290916001600160a01b031688565b600c5460009061010090046001600160a01b0316331415612c01575060131936013560601c90565b503390565b905090565b612c1582826136a1565b5050565b60006124f6836001600160a01b038416613740565b3390565b60006001600160e01b0319821663780e9d6360e01b1480610aea5750610aea8261378f565b6000612c06612bd9565b600081815260066020526040902080546001600160a01b0319166001600160a01b0384169081179091558190612c96826122ab565b6001600160a01b03167f8c5be1e5ebec7d5bd14f71427d1e84f3dd0314c0f7b2291e5b200ac8c7c3b92560405160405180910390a45050565b6000818152600460205260408120546001600160a01b0316612d485760405162461bcd60e51b815260206004820152602c60248201527f4552433732313a206f70657261746f7220717565727920666f72206e6f6e657860448201526b34b9ba32b73a103a37b5b2b760a11b6064820152608401610bf7565b6000612d53836122ab565b9050806001600160a01b0316846001600160a01b03161480612d8e5750836001600160a01b0316612d8384610b82565b6001600160a01b0316145b80612dbe57506001600160a01b0380821660009081526007602090815260408083209388168352929052205460ff165b949350505050565b826001600160a01b0316612dd9826122ab565b6001600160a01b031614612e555760405162461bcd60e51b815260206004820152602960248201527f4552433732313a207472616e73666572206f6620746f6b656e2074686174206960448201527f73206e6f74206f776e00000000000000000000000000000000000000000000006064820152608401610bf7565b6001600160a01b038216612eb75760405162461bcd60e51b8152602060048201526024808201527f4552433732313a207472616e7366657220746f20746865207a65726f206164646044820152637265737360e01b6064820152608401610bf7565b612ec28383836137cf565b612ecd600082612c61565b6001600160a01b0383166000908152600560205260408120805460019290612ef6908490614cab565b90915550506001600160a01b0382166000908152600560205260408120805460019290612f24908490614b64565b909155505060008181526004602052604080822080546001600160a01b0319166001600160a01b0386811691821790925591518493918716917fddf252ad1be2c89b69c2b068fc378daa952ba7f163c4a11628f55a4df523b3ef91a4505050565b600082815260208190526040902060010154612fa881612fa3612c57565b6138e2565b610d3f83836136a1565b600081815b8551811015613056576000868281518110612fd457612fd4614b4e565b60200260200101519050808311613016576040805160208101859052908101829052606001604051602081830303815290604052805190602001209250613043565b60408051602081018390529081018490526060016040516020818303038152906040528051906020012092505b508061304e81614b7c565b915050612fb7565b509092149392505050565b6001600160a01b0382166130be57803414612c155760405162461bcd60e51b815260206004820152600f60248201527f76616c756520213d20616d6f756e7400000000000000000000000000000000006044820152606401610bf7565b816001600160a01b03166323b872dd6130d5612c57565b60155460405163f2aab4b360e01b81523060048201526101009091046001600160a01b03169063f2aab4b39060240160206040518083038186803b15801561311c57600080fd5b505afa158015613130573d6000803e3d6000fd5b505050506040513d601f19601f820116820180604052508101906131549190614ad2565b6040516001600160e01b031960e085901b1681526001600160a01b0392831660048201529116602482015260448101849052606401602060405180830381600087803b1580156131a357600080fd5b505af11580156131b7573d6000803e3d6000fd5b505050506040513d601f19601f820116820180604052508101906131db9190614ab5565b612c155760405162461bcd60e51b815260206004820152601a60248201527f6661696c656420746f207472616e73666572207061796d656e740000000000006044820152606401610bf7565b612c15828260405180602001604052806000815250613960565b613249612c57565b6001600160a01b0316816001600160a01b0316146132cf5760405162461bcd60e51b815260206004820152602f60248201527f416363657373436f6e74726f6c3a2063616e206f6e6c792072656e6f756e636560448201527f20726f6c657320666f722073656c6600000000000000000000000000000000006064820152608401610bf7565b612c1582826139de565b60006124f6836001600160a01b038416613a7b565b600c5460ff166133405760405162461bcd60e51b815260206004820152601460248201527f5061757361626c653a206e6f74207061757365640000000000000000000000006044820152606401610bf7565b600c805460ff191690557f5db9ee0a495bf2e6ff9c91a7834c1ba4fdd244a5e8aa4e537bd38aeae4b073aa613373612c57565b6040516001600160a01b03909116815260200160405180910390a1565b600061339b826122ab565b90506133a9816000846137cf565b6133b4600083612c61565b6001600160a01b03811660009081526005602052604081208054600192906133dd908490614cab565b909155505060008281526004602052604080822080546001600160a01b0319169055518391906001600160a01b038416907fddf252ad1be2c89b69c2b068fc378daa952ba7f163c4a11628f55a4df523b3ef908390a45050565b600c5460ff161561347d5760405162461bcd60e51b815260206004820152601060248201526f14185d5cd8589b194e881c185d5cd95960821b6044820152606401610bf7565b600c805460ff191660011790557f62e78cea01bee320cd4e420270b5ea74000d11b0c9f74754ebdbfc544b05a258613373612c57565b60006124f68383613b6e565b60606124f68383604051806060016040528060278152602001614e1f60279139613b98565b6134ef848484612dc6565b6134fb84848484613c6c565b612a245760405162461bcd60e51b815260206004820152603260248201527f4552433732313a207472616e7366657220746f206e6f6e20455243373231526560448201527131b2b4bb32b91034b6b83632b6b2b73a32b960711b6064820152608401610bf7565b606060178054610aff90614a61565b6060816135955750506040805180820190915260018152600360fc1b602082015290565b8160005b81156135bf57806135a981614b7c565b91506135b89050600a83614b3a565b9150613599565b60008167ffffffffffffffff8111156135da576135da61493d565b6040519080825280601f01601f191660200182016040528015613604576020820181803683370190505b5090505b8415612dbe57613619600183614cab565b9150613626600a86614d08565b613631906030614b64565b60f81b81838151811061364657613646614b4e565b60200101906001600160f81b031916908160001a905350613668600a86614b3a565b9450613608565b6000610aea825490565b60008281526020819052604090206001015461369781612fa3612c57565b610d3f83836139de565b6000828152602081815260408083206001600160a01b038516845290915290205460ff16612c15576000828152602081815260408083206001600160a01b03851684529091529020805460ff191660011790556136fc612c57565b6001600160a01b0316816001600160a01b0316837f2f8788117e7eff1d82e926ec794901d17c78024a50270940304540a733656f0d60405160405180910390a45050565b600081815260018301602052604081205461378757508154600181810184556000848152602080822090930184905584548482528286019093526040902091909155610aea565b506000610aea565b60006001600160e01b031982166380ac58cd60e01b14806137c057506001600160e01b03198216635b5e139f60e01b145b80610aea5750610aea82613dcb565b6137da838383613df0565b60155460ff1680156137f457506001600160a01b03831615155b801561380857506001600160a01b03821615155b15610d3f576001600160a01b03831660009081527f7c7a990f752005aea38438cc35abc5417bd322e6c964ec21d52573494225142c602052604090205460ff168061388a57506001600160a01b03821660009081527f7c7a990f752005aea38438cc35abc5417bd322e6c964ec21d52573494225142c602052604090205460ff165b610d3f5760405162461bcd60e51b815260206004820152602360248201527f7265737472696374656420746f205452414e534645525f524f4c4520686f6c6460448201526265727360e81b6064820152608401610bf7565b6000828152602081815260408083206001600160a01b038516845290915290205460ff16612c155761391e816001600160a01b03166014613e74565b613929836020613e74565b60405160200161393a929190614d1c565b60408051601f198184030181529082905262461bcd60e51b8252610bf7916004016145b6565b61396a838361401d565b6139776000848484613c6c565b610d3f5760405162461bcd60e51b815260206004820152603260248201527f4552433732313a207472616e7366657220746f206e6f6e20455243373231526560448201527131b2b4bb32b91034b6b83632b6b2b73a32b960711b6064820152608401610bf7565b6000828152602081815260408083206001600160a01b038516845290915290205460ff1615612c15576000828152602081815260408083206001600160a01b03851684529091529020805460ff19169055613a37612c57565b6001600160a01b0316816001600160a01b0316837ff6391f5c32d9c69d2a47ea670b442974b53935d1edc7fd64eb21e047a839171b60405160405180910390a45050565b60008181526001830160205260408120548015613b64576000613a9f600183614cab565b8554909150600090613ab390600190614cab565b9050818114613b18576000866000018281548110613ad357613ad3614b4e565b9060005260206000200154905080876000018481548110613af657613af6614b4e565b6000918252602080832090910192909255918252600188019052604090208390555b8554869080613b2957613b29614d9d565b600190038181906000526020600020016000905590558560010160008681526020019081526020016000206000905560019350505050610aea565b6000915050610aea565b6000826000018281548110613b8557613b85614b4e565b9060005260206000200154905092915050565b6060833b613bf75760405162461bcd60e51b815260206004820152602660248201527f416464726573733a2064656c65676174652063616c6c20746f206e6f6e2d636f6044820152651b9d1c9858dd60d21b6064820152608401610bf7565b600080856001600160a01b031685604051613c129190614db3565b600060405180830381855af49150503d8060008114613c4d576040519150601f19603f3d011682016040523d82523d6000602084013e613c52565b606091505b5091509150613c6282828661416b565b9695505050505050565b60006001600160a01b0384163b15613dc057836001600160a01b031663150b7a02613c95612c57565b8786866040518563ffffffff1660e01b8152600401613cb79493929190614dcf565b602060405180830381600087803b158015613cd157600080fd5b505af1925050508015613d01575060408051601f3d908101601f19168201909252613cfe91810190614e01565b60015b613da6573d808015613d2f576040519150601f19603f3d011682016040523d82523d6000602084013e613d34565b606091505b508051613d9e5760405162461bcd60e51b815260206004820152603260248201527f4552433732313a207472616e7366657220746f206e6f6e20455243373231526560448201527131b2b4bb32b91034b6b83632b6b2b73a32b960711b6064820152608401610bf7565b805181602001fd5b6001600160e01b031916630a85bd0160e11b149050612dbe565b506001949350505050565b60006001600160e01b03198216635a05180f60e01b1480610aea5750610aea826141a4565b613dfb8383836141d9565b600c5460ff1615610d3f5760405162461bcd60e51b815260206004820152602b60248201527f4552433732315061757361626c653a20746f6b656e207472616e73666572207760448201527f68696c65207061757365640000000000000000000000000000000000000000006064820152608401610bf7565b60606000613e83836002614b05565b613e8e906002614b64565b67ffffffffffffffff811115613ea657613ea661493d565b6040519080825280601f01601f191660200182016040528015613ed0576020820181803683370190505b509050600360fc1b81600081518110613eeb57613eeb614b4e565b60200101906001600160f81b031916908160001a905350600f60fb1b81600181518110613f1a57613f1a614b4e565b60200101906001600160f81b031916908160001a9053506000613f3e846002614b05565b613f49906001614b64565b90505b6001811115613fce577f303132333435363738396162636465660000000000000000000000000000000085600f1660108110613f8a57613f8a614b4e565b1a60f81b828281518110613fa057613fa0614b4e565b60200101906001600160f81b031916908160001a90535060049490941c93613fc781614cc2565b9050613f4c565b5083156124f65760405162461bcd60e51b815260206004820181905260248201527f537472696e67733a20686578206c656e67746820696e73756666696369656e746044820152606401610bf7565b6001600160a01b0382166140735760405162461bcd60e51b815260206004820181905260248201527f4552433732313a206d696e7420746f20746865207a65726f20616464726573736044820152606401610bf7565b6000818152600460205260409020546001600160a01b0316156140d85760405162461bcd60e51b815260206004820152601c60248201527f4552433732313a20746f6b656e20616c7265616479206d696e746564000000006044820152606401610bf7565b6140e4600083836137cf565b6001600160a01b038216600090815260056020526040812080546001929061410d908490614b64565b909155505060008181526004602052604080822080546001600160a01b0319166001600160a01b03861690811790915590518392907fddf252ad1be2c89b69c2b068fc378daa952ba7f163c4a11628f55a4df523b3ef908290a45050565b6060831561417a5750816124f6565b82511561418a5782518084602001fd5b8160405162461bcd60e51b8152600401610bf791906145b6565b60006001600160e01b03198216637965db0b60e01b1480610aea57506301ffc9a760e01b6001600160e01b0319831614610aea565b6001600160a01b0383166142345761422f81600a80546000838152600b60205260408120829055600182018355919091527fc65a7bb8d6351c1cf70c95a316cc6a92839c986682d98bc35f958f4883f9d2a80155565b614257565b816001600160a01b0316836001600160a01b031614614257576142578382614291565b6001600160a01b03821661426e57610d3f8161432e565b826001600160a01b0316826001600160a01b031614610d3f57610d3f82826143dd565b6000600161429e84612336565b6142a89190614cab565b6000838152600960205260409020549091508082146142fb576001600160a01b03841660009081526008602090815260408083208584528252808320548484528184208190558352600990915290208190555b5060009182526009602090815260408084208490556001600160a01b039094168352600881528383209183525290812055565b600a5460009061434090600190614cab565b6000838152600b6020526040812054600a805493945090928490811061436857614368614b4e565b9060005260206000200154905080600a838154811061438957614389614b4e565b6000918252602080832090910192909255828152600b9091526040808220849055858252812055600a8054806143c1576143c1614d9d565b6001900381819060005260206000200160009055905550505050565b60006143e883612336565b6001600160a01b039093166000908152600860209081526040808320868452825280832085905593825260099052919091209190915550565b82805461442d90614a61565b90600052602060002090601f01602090048101928261444f5760008555614495565b82601f106144685782800160ff19823516178555614495565b82800160010185558215614495579182015b8281111561449557823582559160200191906001019061447a565b506144a19291506144c6565b5090565b5080546000825560080290600052602060002090810190611f6b91906144db565b5b808211156144a157600081556001016144c7565b5b808211156144a1576000808255600182018190556002820181905560038201819055600482018190556005820181905560068201556007810180546001600160a01b03191690556008016144dc565b6001600160e01b031981168114611f6b57600080fd5b60006020828403121561455357600080fd5b81356124f68161452b565b60005b83811015614579578181015183820152602001614561565b83811115612a245750506000910152565b600081518084526145a281602086016020860161455e565b601f01601f19169290920160200192915050565b6020815260006124f6602083018461458a565b6000602082840312156145db57600080fd5b5035919050565b6001600160a01b0381168114611f6b57600080fd5b6000806040838503121561460a57600080fd5b8235614615816145e2565b946020939093013593505050565b60008060006060848603121561463857600080fd5b8335614643816145e2565b92506020840135614653816145e2565b929592945050506040919091013590565b6000806040838503121561467757600080fd5b50508035926020909101359150565b6000806040838503121561469957600080fd5b8235915060208301356146ab816145e2565b809150509250929050565b60008083601f8401126146c857600080fd5b50813567ffffffffffffffff8111156146e057600080fd5b6020830191508360208260051b85010111156146fb57600080fd5b9250929050565b60008060006040848603121561471757600080fd5b83359250602084013567ffffffffffffffff81111561473557600080fd5b614741868287016146b6565b9497909650939450505050565b6000806020838503121561476157600080fd5b823567ffffffffffffffff8082111561477957600080fd5b818501915085601f83011261478d57600080fd5b81358181111561479c57600080fd5b8660208285010111156147ae57600080fd5b60209290920196919550909350505050565b600080602083850312156147d357600080fd5b823567ffffffffffffffff808211156147eb57600080fd5b818501915085601f8301126147ff57600080fd5b81358181111561480e57600080fd5b8660208260081b85010111156147ae57600080fd5b6000806020838503121561483657600080fd5b823567ffffffffffffffff81111561484d57600080fd5b614859858286016146b6565b90969095509350505050565b60006020828403121561487757600080fd5b81356124f6816145e2565b8015158114611f6b57600080fd5b6000602082840312156148a257600080fd5b81356124f681614882565b600080604083850312156148c057600080fd5b82356148cb816145e2565b915060208301356146ab81614882565b6000602080830181845280855180835260408601915060408160051b870101925083870160005b8281101561493057603f1988860301845261491e85835161458a565b94509285019290850190600101614902565b5092979650505050505050565b634e487b7160e01b600052604160045260246000fd5b6000806000806080858703121561496957600080fd5b8435614974816145e2565b93506020850135614984816145e2565b925060408501359150606085013567ffffffffffffffff808211156149a857600080fd5b818701915087601f8301126149bc57600080fd5b8135818111156149ce576149ce61493d565b604051601f8201601f19908116603f011681019083821181831017156149f6576149f661493d565b816040528281528a6020848701011115614a0f57600080fd5b82602086016020830137600060208483010152809550505050505092959194509250565b60008060408385031215614a4657600080fd5b8235614a51816145e2565b915060208301356146ab816145e2565b600181811c90821680614a7557607f821691505b60208210811415614a9657634e487b7160e01b600052602260045260246000fd5b50919050565b600060208284031215614aae57600080fd5b5051919050565b600060208284031215614ac757600080fd5b81516124f681614882565b600060208284031215614ae457600080fd5b81516124f6816145e2565b634e487b7160e01b600052601160045260246000fd5b6000816000190483118215151615614b1f57614b1f614aef565b500290565b634e487b7160e01b600052601260045260246000fd5b600082614b4957614b49614b24565b500490565b634e487b7160e01b600052603260045260246000fd5b60008219821115614b7757614b77614aef565b500190565b6000600019821415614b9057614b90614aef565b5060010190565b60208152816020820152818360408301376000818301604090810191909152601f909201601f19160101919050565b60006020808301818452808554808352604092508286019150866000528360002060005b82811015614c575781548452600180830154878601526002830154868601526003830154606086015260048301546080860152600583015460a0860152600683015460c086015260078301546001600160a01b031660e08601526101009094019360089092019101614bea565b5091979650505050505050565b6000808335601e19843603018112614c7b57600080fd5b83018035915067ffffffffffffffff821115614c9657600080fd5b6020019150368190038213156146fb57600080fd5b600082821015614cbd57614cbd614aef565b500390565b600081614cd157614cd1614aef565b506000190190565b60008351614ceb81846020880161455e565b835190830190614cff81836020880161455e565b01949350505050565b600082614d1757614d17614b24565b500690565b7f416363657373436f6e74726f6c3a206163636f756e7420000000000000000000815260008351614d5481601785016020880161455e565b7f206973206d697373696e6720726f6c65200000000000000000000000000000006017918401918201528351614d9181602884016020880161455e565b01602801949350505050565b634e487b7160e01b600052603160045260246000fd5b60008251614dc581846020870161455e565b9190910192915050565b60006001600160a01b03808716835280861660208401525083604083015260806060830152613c62608083018461458a565b600060208284031215614e1357600080fd5b81516124f68161452b56fe416464726573733a206c6f772d6c6576656c2064656c65676174652063616c6c206661696c6564a164736f6c6343000809000a",
  "linkReferences": {},
  "deployedLinkReferences": {}
}