{
  "_format": "hh-sol-artifact-1",
  "contractName": "NFTCollection",
  "sourceName": "contracts/NFTCollection.sol",
  "abi": [
    {
      "inputs": [
        {
          "internalType": "address payable",
          "name": "_controlCenter",
          "type": "address"
        },
        {
          "internalType": "address",
          "name": "_trustedForwarder",
          "type": "address"
        },
        {
          "internalType": "string",
          "name": "_uri",
          "type": "string"
        },
        {
          "internalType": "uint256",
          "name": "_royaltyBps",
          "type": "uint256"
        }
      ],
      "stateMutability": "nonpayable",
      "type": "constructor"
    },
    {
      "anonymous": false,
      "inputs": [
        {
          "indexed": true,
          "internalType": "address",
          "name": "account",
          "type": "address"
        },
        {
          "indexed": true,
          "internalType": "address",
          "name": "operator",
          "type": "address"
        },
        {
          "indexed": false,
          "internalType": "bool",
          "name": "approved",
          "type": "bool"
        }
      ],
      "name": "ApprovalForAll",
      "type": "event"
    },
    {
      "anonymous": false,
      "inputs": [
        {
          "indexed": true,
          "internalType": "address",
          "name": "redeemer",
          "type": "address"
        },
        {
          "indexed": true,
          "internalType": "uint256",
          "name": "tokenId",
          "type": "uint256"
        },
        {
          "indexed": true,
          "internalType": "address",
          "name": "sourceOfUnderlying",
          "type": "address"
        },
        {
          "indexed": false,
          "internalType": "uint256",
          "name": "tokenAmountReceived",
          "type": "uint256"
        },
        {
          "indexed": false,
          "internalType": "uint256",
          "name": "sharesRedeemed",
          "type": "uint256"
        }
      ],
      "name": "ERC20Redeemed",
      "type": "event"
    },
    {
      "anonymous": false,
      "inputs": [
        {
          "indexed": true,
          "internalType": "address",
          "name": "creator",
          "type": "address"
        },
        {
          "indexed": true,
          "internalType": "address",
          "name": "sourceOfUnderlying",
          "type": "address"
        },
        {
          "indexed": false,
          "internalType": "uint256",
          "name": "totalAmountOfUnderlying",
          "type": "uint256"
        },
        {
          "indexed": false,
          "internalType": "uint256",
          "name": "shares",
          "type": "uint256"
        },
        {
          "indexed": false,
          "internalType": "uint256",
          "name": "tokenId",
          "type": "uint256"
        },
        {
          "indexed": false,
          "internalType": "string",
          "name": "tokenURI",
          "type": "string"
        }
      ],
      "name": "ERC20WrappedToken",
      "type": "event"
    },
    {
      "anonymous": false,
      "inputs": [
        {
          "indexed": true,
          "internalType": "address",
          "name": "redeemer",
          "type": "address"
        },
        {
          "indexed": true,
          "internalType": "address",
          "name": "sourceOfUnderlying",
          "type": "address"
        },
        {
          "indexed": false,
          "internalType": "uint256",
          "name": "tokenIdOfUnderlying",
          "type": "uint256"
        },
        {
          "indexed": false,
          "internalType": "uint256",
          "name": "tokenId",
          "type": "uint256"
        }
      ],
      "name": "ERC721Redeemed",
      "type": "event"
    },
    {
      "anonymous": false,
      "inputs": [
        {
          "indexed": true,
          "internalType": "address",
          "name": "creator",
          "type": "address"
        },
        {
          "indexed": true,
          "internalType": "address",
          "name": "sourceOfUnderlying",
          "type": "address"
        },
        {
          "indexed": false,
          "internalType": "uint256",
          "name": "tokenIdOfUnderlying",
          "type": "uint256"
        },
        {
          "indexed": false,
          "internalType": "uint256",
          "name": "tokenId",
          "type": "uint256"
        },
        {
          "indexed": false,
          "internalType": "string",
          "name": "tokenURI",
          "type": "string"
        }
      ],
      "name": "ERC721WrappedToken",
      "type": "event"
    },
    {
      "anonymous": false,
      "inputs": [
        {
          "indexed": true,
          "internalType": "address",
          "name": "creator",
          "type": "address"
        },
        {
          "indexed": false,
          "internalType": "uint256[]",
          "name": "tokenIds",
          "type": "uint256[]"
        },
        {
          "indexed": false,
          "internalType": "string[]",
          "name": "tokenURIs",
          "type": "string[]"
        },
        {
          "indexed": false,
          "internalType": "uint256[]",
          "name": "tokenSupplies",
          "type": "uint256[]"
        }
      ],
      "name": "NativeTokens",
      "type": "event"
    },
    {
      "anonymous": false,
      "inputs": [
        {
          "indexed": false,
          "internalType": "address",
          "name": "account",
          "type": "address"
        }
      ],
      "name": "Paused",
      "type": "event"
    },
    {
      "anonymous": false,
      "inputs": [
        {
          "indexed": false,
          "internalType": "bool",
          "name": "transferable",
          "type": "bool"
        }
      ],
      "name": "RestrictedTransferUpdated",
      "type": "event"
    },
    {
      "anonymous": false,
      "inputs": [
        {
          "indexed": true,
          "internalType": "bytes32",
          "name": "role",
          "type": "bytes32"
        },
        {
          "indexed": true,
          "internalType": "bytes32",
          "name": "previousAdminRole",
          "type": "bytes32"
        },
        {
          "indexed": true,
          "internalType": "bytes32",
          "name": "newAdminRole",
          "type": "bytes32"
        }
      ],
      "name": "RoleAdminChanged",
      "type": "event"
    },
    {
      "anonymous": false,
      "inputs": [
        {
          "indexed": true,
          "internalType": "bytes32",
          "name": "role",
          "type": "bytes32"
        },
        {
          "indexed": true,
          "internalType": "address",
          "name": "account",
          "type": "address"
        },
        {
          "indexed": true,
          "internalType": "address",
          "name": "sender",
          "type": "address"
        }
      ],
      "name": "RoleGranted",
      "type": "event"
    },
    {
      "anonymous": false,
      "inputs": [
        {
          "indexed": true,
          "internalType": "bytes32",
          "name": "role",
          "type": "bytes32"
        },
        {
          "indexed": true,
          "internalType": "address",
          "name": "account",
          "type": "address"
        },
        {
          "indexed": true,
          "internalType": "address",
          "name": "sender",
          "type": "address"
        }
      ],
      "name": "RoleRevoked",
      "type": "event"
    },
    {
      "anonymous": false,
      "inputs": [
        {
          "indexed": false,
          "internalType": "uint256",
          "name": "royaltyBps",
          "type": "uint256"
        }
      ],
      "name": "RoyaltyUpdated",
      "type": "event"
    },
    {
      "anonymous": false,
      "inputs": [
        {
          "indexed": true,
          "internalType": "address",
          "name": "operator",
          "type": "address"
        },
        {
          "indexed": true,
          "internalType": "address",
          "name": "from",
          "type": "address"
        },
        {
          "indexed": true,
          "internalType": "address",
          "name": "to",
          "type": "address"
        },
        {
          "indexed": false,
          "internalType": "uint256[]",
          "name": "ids",
          "type": "uint256[]"
        },
        {
          "indexed": false,
          "internalType": "uint256[]",
          "name": "values",
          "type": "uint256[]"
        }
      ],
      "name": "TransferBatch",
      "type": "event"
    },
    {
      "anonymous": false,
      "inputs": [
        {
          "indexed": true,
          "internalType": "address",
          "name": "operator",
          "type": "address"
        },
        {
          "indexed": true,
          "internalType": "address",
          "name": "from",
          "type": "address"
        },
        {
          "indexed": true,
          "internalType": "address",
          "name": "to",
          "type": "address"
        },
        {
          "indexed": false,
          "internalType": "uint256",
          "name": "id",
          "type": "uint256"
        },
        {
          "indexed": false,
          "internalType": "uint256",
          "name": "value",
          "type": "uint256"
        }
      ],
      "name": "TransferSingle",
      "type": "event"
    },
    {
      "anonymous": false,
      "inputs": [
        {
          "indexed": false,
          "internalType": "string",
          "name": "value",
          "type": "string"
        },
        {
          "indexed": true,
          "internalType": "uint256",
          "name": "id",
          "type": "uint256"
        }
      ],
      "name": "URI",
      "type": "event"
    },
    {
      "anonymous": false,
      "inputs": [
        {
          "indexed": false,
          "internalType": "address",
          "name": "account",
          "type": "address"
        }
      ],
      "name": "Unpaused",
      "type": "event"
    },
    {
      "inputs": [],
      "name": "DEFAULT_ADMIN_ROLE",
      "outputs": [
        {
          "internalType": "bytes32",
          "name": "",
          "type": "bytes32"
        }
      ],
      "stateMutability": "view",
      "type": "function"
    },
    {
      "inputs": [],
      "name": "MINTER_ROLE",
      "outputs": [
        {
          "internalType": "bytes32",
          "name": "",
          "type": "bytes32"
        }
      ],
      "stateMutability": "view",
      "type": "function"
    },
    {
      "inputs": [],
      "name": "PAUSER_ROLE",
      "outputs": [
        {
          "internalType": "bytes32",
          "name": "",
          "type": "bytes32"
        }
      ],
      "stateMutability": "view",
      "type": "function"
    },
    {
      "inputs": [],
      "name": "TRANSFER_ROLE",
      "outputs": [
        {
          "internalType": "bytes32",
          "name": "",
          "type": "bytes32"
        }
      ],
      "stateMutability": "view",
      "type": "function"
    },
    {
      "inputs": [],
      "name": "_contractURI",
      "outputs": [
        {
          "internalType": "string",
          "name": "",
          "type": "string"
        }
      ],
      "stateMutability": "view",
      "type": "function"
    },
    {
      "inputs": [
        {
          "internalType": "address",
          "name": "account",
          "type": "address"
        },
        {
          "internalType": "uint256",
          "name": "id",
          "type": "uint256"
        }
      ],
      "name": "balanceOf",
      "outputs": [
        {
          "internalType": "uint256",
          "name": "",
          "type": "uint256"
        }
      ],
      "stateMutability": "view",
      "type": "function"
    },
    {
      "inputs": [
        {
          "internalType": "address[]",
          "name": "accounts",
          "type": "address[]"
        },
        {
          "internalType": "uint256[]",
          "name": "ids",
          "type": "uint256[]"
        }
      ],
      "name": "balanceOfBatch",
      "outputs": [
        {
          "internalType": "uint256[]",
          "name": "",
          "type": "uint256[]"
        }
      ],
      "stateMutability": "view",
      "type": "function"
    },
    {
      "inputs": [
        {
          "internalType": "address",
          "name": "account",
          "type": "address"
        },
        {
          "internalType": "uint256",
          "name": "id",
          "type": "uint256"
        },
        {
          "internalType": "uint256",
          "name": "value",
          "type": "uint256"
        }
      ],
      "name": "burn",
      "outputs": [],
      "stateMutability": "nonpayable",
      "type": "function"
    },
    {
      "inputs": [
        {
          "internalType": "address",
          "name": "account",
          "type": "address"
        },
        {
          "internalType": "uint256[]",
          "name": "ids",
          "type": "uint256[]"
        },
        {
          "internalType": "uint256[]",
          "name": "values",
          "type": "uint256[]"
        }
      ],
      "name": "burnBatch",
      "outputs": [],
      "stateMutability": "nonpayable",
      "type": "function"
    },
    {
      "inputs": [],
      "name": "contractURI",
      "outputs": [
        {
          "internalType": "string",
          "name": "",
          "type": "string"
        }
      ],
      "stateMutability": "view",
      "type": "function"
    },
    {
      "inputs": [
        {
          "internalType": "address",
          "name": "to",
          "type": "address"
        },
        {
          "internalType": "string[]",
          "name": "_nftURIs",
          "type": "string[]"
        },
        {
          "internalType": "uint256[]",
          "name": "_nftSupplies",
          "type": "uint256[]"
        },
        {
          "internalType": "bytes",
          "name": "data",
          "type": "bytes"
        }
      ],
      "name": "createNativeTokens",
      "outputs": [
        {
          "internalType": "uint256[]",
          "name": "nftIds",
          "type": "uint256[]"
        }
      ],
      "stateMutability": "nonpayable",
      "type": "function"
    },
    {
      "inputs": [
        {
          "internalType": "uint256",
          "name": "_nftId",
          "type": "uint256"
        }
      ],
      "name": "creator",
      "outputs": [
        {
          "internalType": "address",
          "name": "",
          "type": "address"
        }
      ],
      "stateMutability": "view",
      "type": "function"
    },
    {
      "inputs": [
        {
          "internalType": "uint256",
          "name": "",
          "type": "uint256"
        }
      ],
      "name": "erc20WrappedTokens",
      "outputs": [
        {
          "internalType": "address",
          "name": "source",
          "type": "address"
        },
        {
          "internalType": "uint256",
          "name": "shares",
          "type": "uint256"
        },
        {
          "internalType": "uint256",
          "name": "underlyingTokenAmount",
          "type": "uint256"
        }
      ],
      "stateMutability": "view",
      "type": "function"
    },
    {
      "inputs": [
        {
          "internalType": "uint256",
          "name": "",
          "type": "uint256"
        }
      ],
      "name": "erc721WrappedTokens",
      "outputs": [
        {
          "internalType": "address",
          "name": "source",
          "type": "address"
        },
        {
          "internalType": "uint256",
          "name": "tokenId",
          "type": "uint256"
        }
      ],
      "stateMutability": "view",
      "type": "function"
    },
    {
      "inputs": [
        {
          "internalType": "bytes32",
          "name": "role",
          "type": "bytes32"
        }
      ],
      "name": "getRoleAdmin",
      "outputs": [
        {
          "internalType": "bytes32",
          "name": "",
          "type": "bytes32"
        }
      ],
      "stateMutability": "view",
      "type": "function"
    },
    {
      "inputs": [
        {
          "internalType": "bytes32",
          "name": "role",
          "type": "bytes32"
        },
        {
          "internalType": "uint256",
          "name": "index",
          "type": "uint256"
        }
      ],
      "name": "getRoleMember",
      "outputs": [
        {
          "internalType": "address",
          "name": "",
          "type": "address"
        }
      ],
      "stateMutability": "view",
      "type": "function"
    },
    {
      "inputs": [
        {
          "internalType": "bytes32",
          "name": "role",
          "type": "bytes32"
        }
      ],
      "name": "getRoleMemberCount",
      "outputs": [
        {
          "internalType": "uint256",
          "name": "",
          "type": "uint256"
        }
      ],
      "stateMutability": "view",
      "type": "function"
    },
    {
      "inputs": [
        {
          "internalType": "bytes32",
          "name": "role",
          "type": "bytes32"
        },
        {
          "internalType": "address",
          "name": "account",
          "type": "address"
        }
      ],
      "name": "grantRole",
      "outputs": [],
      "stateMutability": "nonpayable",
      "type": "function"
    },
    {
      "inputs": [
        {
          "internalType": "bytes32",
          "name": "role",
          "type": "bytes32"
        },
        {
          "internalType": "address",
          "name": "account",
          "type": "address"
        }
      ],
      "name": "hasRole",
      "outputs": [
        {
          "internalType": "bool",
          "name": "",
          "type": "bool"
        }
      ],
      "stateMutability": "view",
      "type": "function"
    },
    {
      "inputs": [
        {
          "internalType": "address",
          "name": "account",
          "type": "address"
        },
        {
          "internalType": "address",
          "name": "operator",
          "type": "address"
        }
      ],
      "name": "isApprovedForAll",
      "outputs": [
        {
          "internalType": "bool",
          "name": "",
          "type": "bool"
        }
      ],
      "stateMutability": "view",
      "type": "function"
    },
    {
      "inputs": [
        {
          "internalType": "address",
          "name": "forwarder",
          "type": "address"
        }
      ],
      "name": "isTrustedForwarder",
      "outputs": [
        {
          "internalType": "bool",
          "name": "",
          "type": "bool"
        }
      ],
      "stateMutability": "view",
      "type": "function"
    },
    {
      "inputs": [
        {
          "internalType": "address",
          "name": "to",
          "type": "address"
        },
        {
          "internalType": "uint256",
          "name": "id",
          "type": "uint256"
        },
        {
          "internalType": "uint256",
          "name": "amount",
          "type": "uint256"
        },
        {
          "internalType": "bytes",
          "name": "data",
          "type": "bytes"
        }
      ],
      "name": "mint",
      "outputs": [],
      "stateMutability": "nonpayable",
      "type": "function"
    },
    {
      "inputs": [
        {
          "internalType": "address",
          "name": "to",
          "type": "address"
        },
        {
          "internalType": "uint256[]",
          "name": "ids",
          "type": "uint256[]"
        },
        {
          "internalType": "uint256[]",
          "name": "amounts",
          "type": "uint256[]"
        },
        {
          "internalType": "bytes",
          "name": "data",
          "type": "bytes"
        }
      ],
      "name": "mintBatch",
      "outputs": [],
      "stateMutability": "nonpayable",
      "type": "function"
    },
    {
      "inputs": [
        {
          "internalType": "bytes[]",
          "name": "data",
          "type": "bytes[]"
        }
      ],
      "name": "multicall",
      "outputs": [
        {
          "internalType": "bytes[]",
          "name": "results",
          "type": "bytes[]"
        }
      ],
      "stateMutability": "nonpayable",
      "type": "function"
    },
    {
      "inputs": [],
      "name": "nextTokenId",
      "outputs": [
        {
          "internalType": "uint256",
          "name": "",
          "type": "uint256"
        }
      ],
      "stateMutability": "view",
      "type": "function"
    },
    {
      "inputs": [
        {
          "internalType": "address",
          "name": "",
          "type": "address"
        },
        {
          "internalType": "address",
          "name": "",
          "type": "address"
        },
        {
          "internalType": "uint256[]",
          "name": "",
          "type": "uint256[]"
        },
        {
          "internalType": "uint256[]",
          "name": "",
          "type": "uint256[]"
        },
        {
          "internalType": "bytes",
          "name": "",
          "type": "bytes"
        }
      ],
      "name": "onERC1155BatchReceived",
      "outputs": [
        {
          "internalType": "bytes4",
          "name": "",
          "type": "bytes4"
        }
      ],
      "stateMutability": "nonpayable",
      "type": "function"
    },
    {
      "inputs": [
        {
          "internalType": "address",
          "name": "",
          "type": "address"
        },
        {
          "internalType": "address",
          "name": "",
          "type": "address"
        },
        {
          "internalType": "uint256",
          "name": "",
          "type": "uint256"
        },
        {
          "internalType": "uint256",
          "name": "",
          "type": "uint256"
        },
        {
          "internalType": "bytes",
          "name": "",
          "type": "bytes"
        }
      ],
      "name": "onERC1155Received",
      "outputs": [
        {
          "internalType": "bytes4",
          "name": "",
          "type": "bytes4"
        }
      ],
      "stateMutability": "nonpayable",
      "type": "function"
    },
    {
      "inputs": [
        {
          "internalType": "address",
          "name": "",
          "type": "address"
        },
        {
          "internalType": "address",
          "name": "",
          "type": "address"
        },
        {
          "internalType": "uint256",
          "name": "",
          "type": "uint256"
        },
        {
          "internalType": "bytes",
          "name": "",
          "type": "bytes"
        }
      ],
      "name": "onERC721Received",
      "outputs": [
        {
          "internalType": "bytes4",
          "name": "",
          "type": "bytes4"
        }
      ],
      "stateMutability": "nonpayable",
      "type": "function"
    },
    {
      "inputs": [],
      "name": "pause",
      "outputs": [],
      "stateMutability": "nonpayable",
      "type": "function"
    },
    {
      "inputs": [],
      "name": "paused",
      "outputs": [
        {
          "internalType": "bool",
          "name": "",
          "type": "bool"
        }
      ],
      "stateMutability": "view",
      "type": "function"
    },
    {
      "inputs": [
        {
          "internalType": "uint256",
          "name": "_nftId",
          "type": "uint256"
        },
        {
          "internalType": "uint256",
          "name": "_amount",
          "type": "uint256"
        }
      ],
      "name": "redeemERC20",
      "outputs": [],
      "stateMutability": "nonpayable",
      "type": "function"
    },
    {
      "inputs": [
        {
          "internalType": "uint256",
          "name": "_nftId",
          "type": "uint256"
        }
      ],
      "name": "redeemERC721",
      "outputs": [],
      "stateMutability": "nonpayable",
      "type": "function"
    },
    {
      "inputs": [
        {
          "internalType": "bytes32",
          "name": "role",
          "type": "bytes32"
        },
        {
          "internalType": "address",
          "name": "account",
          "type": "address"
        }
      ],
      "name": "renounceRole",
      "outputs": [],
      "stateMutability": "nonpayable",
      "type": "function"
    },
    {
      "inputs": [
        {
          "internalType": "bytes32",
          "name": "role",
          "type": "bytes32"
        },
        {
          "internalType": "address",
          "name": "account",
          "type": "address"
        }
      ],
      "name": "revokeRole",
      "outputs": [],
      "stateMutability": "nonpayable",
      "type": "function"
    },
    {
      "inputs": [],
      "name": "royaltyBps",
      "outputs": [
        {
          "internalType": "uint256",
          "name": "",
          "type": "uint256"
        }
      ],
      "stateMutability": "view",
      "type": "function"
    },
    {
      "inputs": [
        {
          "internalType": "uint256",
          "name": "",
          "type": "uint256"
        },
        {
          "internalType": "uint256",
          "name": "salePrice",
          "type": "uint256"
        }
      ],
      "name": "royaltyInfo",
      "outputs": [
        {
          "internalType": "address",
          "name": "receiver",
          "type": "address"
        },
        {
          "internalType": "uint256",
          "name": "royaltyAmount",
          "type": "uint256"
        }
      ],
      "stateMutability": "view",
      "type": "function"
    },
    {
      "inputs": [
        {
          "internalType": "address",
          "name": "from",
          "type": "address"
        },
        {
          "internalType": "address",
          "name": "to",
          "type": "address"
        },
        {
          "internalType": "uint256[]",
          "name": "ids",
          "type": "uint256[]"
        },
        {
          "internalType": "uint256[]",
          "name": "amounts",
          "type": "uint256[]"
        },
        {
          "internalType": "bytes",
          "name": "data",
          "type": "bytes"
        }
      ],
      "name": "safeBatchTransferFrom",
      "outputs": [],
      "stateMutability": "nonpayable",
      "type": "function"
    },
    {
      "inputs": [
        {
          "internalType": "address",
          "name": "from",
          "type": "address"
        },
        {
          "internalType": "address",
          "name": "to",
          "type": "address"
        },
        {
          "internalType": "uint256",
          "name": "id",
          "type": "uint256"
        },
        {
          "internalType": "uint256",
          "name": "amount",
          "type": "uint256"
        },
        {
          "internalType": "bytes",
          "name": "data",
          "type": "bytes"
        }
      ],
      "name": "safeTransferFrom",
      "outputs": [],
      "stateMutability": "nonpayable",
      "type": "function"
    },
    {
      "inputs": [
        {
          "internalType": "address",
          "name": "operator",
          "type": "address"
        },
        {
          "internalType": "bool",
          "name": "approved",
          "type": "bool"
        }
      ],
      "name": "setApprovalForAll",
      "outputs": [],
      "stateMutability": "nonpayable",
      "type": "function"
    },
    {
      "inputs": [
        {
          "internalType": "string",
          "name": "_URI",
          "type": "string"
        }
      ],
      "name": "setContractURI",
      "outputs": [],
      "stateMutability": "nonpayable",
      "type": "function"
    },
    {
      "inputs": [
        {
          "internalType": "bool",
          "name": "_restrictedTransfer",
          "type": "bool"
        }
      ],
      "name": "setRestrictedTransfer",
      "outputs": [],
      "stateMutability": "nonpayable",
      "type": "function"
    },
    {
      "inputs": [
        {
          "internalType": "uint256",
          "name": "_royaltyBps",
          "type": "uint256"
        }
      ],
      "name": "setRoyaltyBps",
      "outputs": [],
      "stateMutability": "nonpayable",
      "type": "function"
    },
    {
      "inputs": [
        {
          "internalType": "bytes4",
          "name": "interfaceId",
          "type": "bytes4"
        }
      ],
      "name": "supportsInterface",
      "outputs": [
        {
          "internalType": "bool",
          "name": "",
          "type": "bool"
        }
      ],
      "stateMutability": "view",
      "type": "function"
    },
    {
      "inputs": [
        {
          "internalType": "uint256",
          "name": "",
          "type": "uint256"
        }
      ],
      "name": "tokenState",
      "outputs": [
        {
          "internalType": "address",
          "name": "creator",
          "type": "address"
        },
        {
          "internalType": "string",
          "name": "uri",
          "type": "string"
        },
        {
          "internalType": "enum NFTCollection.UnderlyingType",
          "name": "underlyingType",
          "type": "uint8"
        }
      ],
      "stateMutability": "view",
      "type": "function"
    },
    {
      "inputs": [
        {
          "internalType": "uint256",
          "name": "_nftId",
          "type": "uint256"
        }
      ],
      "name": "tokenURI",
      "outputs": [
        {
          "internalType": "string",
          "name": "",
          "type": "string"
        }
      ],
      "stateMutability": "view",
      "type": "function"
    },
    {
      "inputs": [
        {
          "internalType": "uint256",
          "name": "id",
          "type": "uint256"
        }
      ],
      "name": "totalSupply",
      "outputs": [
        {
          "internalType": "uint256",
          "name": "",
          "type": "uint256"
        }
      ],
      "stateMutability": "view",
      "type": "function"
    },
    {
      "inputs": [],
      "name": "transfersRestricted",
      "outputs": [
        {
          "internalType": "bool",
          "name": "",
          "type": "bool"
        }
      ],
      "stateMutability": "view",
      "type": "function"
    },
    {
      "inputs": [],
      "name": "unpause",
      "outputs": [],
      "stateMutability": "nonpayable",
      "type": "function"
    },
    {
      "inputs": [
        {
          "internalType": "uint256",
          "name": "_nftId",
          "type": "uint256"
        }
      ],
      "name": "uri",
      "outputs": [
        {
          "internalType": "string",
          "name": "",
          "type": "string"
        }
      ],
      "stateMutability": "view",
      "type": "function"
    },
    {
      "inputs": [
        {
          "internalType": "address",
          "name": "_tokenContract",
          "type": "address"
        },
        {
          "internalType": "uint256",
          "name": "_tokenAmount",
          "type": "uint256"
        },
        {
          "internalType": "uint256",
          "name": "_numOfNftsToMint",
          "type": "uint256"
        },
        {
          "internalType": "string",
          "name": "_nftURI",
          "type": "string"
        }
      ],
      "name": "wrapERC20",
      "outputs": [],
      "stateMutability": "nonpayable",
      "type": "function"
    },
    {
      "inputs": [
        {
          "internalType": "address",
          "name": "_nftContract",
          "type": "address"
        },
        {
          "internalType": "uint256",
          "name": "_tokenId",
          "type": "uint256"
        },
        {
          "internalType": "string",
          "name": "_nftURI",
          "type": "string"
        }
      ],
      "name": "wrapERC721",
      "outputs": [],
      "stateMutability": "nonpayable",
      "type": "function"
    }
  ],
  "bytecode": "0x60806040523480156200001157600080fd5b50604051620060bd380380620060bd833981016040819052620000349162000535565b82828062000042816200014b565b506005805460ff191690556200006360006200005d62000164565b62000180565b620000927f9f2df0fed2c77648de5860a4cc508cd0818c85b8b8a1ab4ceeef8d981c8956a66200005d62000164565b620000c17f65d7a28e3265b37a6474929f336521b332c1681b933f6cb9f3376673440d862a6200005d62000164565b50600780546001600160a01b03199081166001600160a01b03938416179091556008805490911691861691909117905581516200010690600b90602085019062000460565b50620001367f8502233096d909befbda0999bb8ea2f3a6be3c138b9fbf003752a4c8bce86f6c6200005d62000164565b6200014181620001c3565b5050505062000682565b80516200016090600490602084019062000460565b5050565b60006200017b6200030360201b62002cf51760201c565b905090565b6200019782826200033c60201b62002d251760201c565b6000828152600160209081526040909120620001be91839062002d3362000348821b17901c565b505050565b620001fc6000620001d362000164565b6000918252602082815260408084206001600160a01b0393909316845291905290205460ff1690565b6200024e5760405162461bcd60e51b815260206004820152601660248201527f6f6e6c79206d6f64756c652061646d696e20726f6c650000000000000000000060448201526064015b60405180910390fd5b612710811115620002c85760405162461bcd60e51b815260206004820152603e60248201527f4e4654436f6c6c656374696f6e3a20496e76616c6964206270732070726f766960448201527f6465643b206d757374206265206c657373207468616e2031302c3030302e0000606482015260840162000245565b600a8190556040518181527f244ea8d7627f5a08f4299862bd5a45752842c183aee5b0fb0d1e4887bfa605b39060200160405180910390a150565b6007546000906001600160a01b031633141562000327575060131936013560601c90565b6200017b6200036860201b62002d481760201c565b6200016082826200036c565b60006200035f836001600160a01b0384166200040e565b90505b92915050565b3390565b6000828152602081815260408083206001600160a01b038516845290915290205460ff1662000160576000828152602081815260408083206001600160a01b03851684529091529020805460ff19166001179055620003ca62000164565b6001600160a01b0316816001600160a01b0316837f2f8788117e7eff1d82e926ec794901d17c78024a50270940304540a733656f0d60405160405180910390a45050565b6000818152600183016020526040812054620004575750815460018181018455600084815260208082209093018490558454848252828601909352604090209190915562000362565b50600062000362565b8280546200046e9062000645565b90600052602060002090601f016020900481019282620004925760008555620004dd565b82601f10620004ad57805160ff1916838001178555620004dd565b82800160010185558215620004dd579182015b82811115620004dd578251825591602001919060010190620004c0565b50620004eb929150620004ef565b5090565b5b80821115620004eb5760008155600101620004f0565b6001600160a01b03811681146200051c57600080fd5b50565b634e487b7160e01b600052604160045260246000fd5b600080600080608085870312156200054c57600080fd5b8451620005598162000506565b809450506020808601516200056e8162000506565b60408701519094506001600160401b03808211156200058c57600080fd5b818801915088601f830112620005a157600080fd5b815181811115620005b657620005b66200051f565b604051601f8201601f19908116603f01168101908382118183101715620005e157620005e16200051f565b816040528281528b86848701011115620005fa57600080fd5b600093505b828410156200061e5784840186015181850187015292850192620005ff565b82841115620006305760008684830101525b60609a909a0151989b979a5050505050505050565b600181811c908216806200065a57607f821691505b602082108114156200067c57634e487b7160e01b600052602260045260246000fd5b50919050565b615a2b80620006926000396000f3fe608060405234801561001057600080fd5b50600436106103405760003560e01c80638456cb59116101bd578063c63adb2b116100f9578063e63ab1e9116100a2578063f23a6e611161007c578063f23a6e611461084e578063f242432a1461086d578063f5298aca14610880578063fafdcc881461089357600080fd5b8063e63ab1e9146107e3578063e8a3d4851461080a578063e985e9c51461081257600080fd5b8063d5391393116100d3578063d539139314610796578063d547741f146107bd578063db884b0c146107d057600080fd5b8063c63adb2b1461077a578063c87b56dd146103a3578063ca15c8731461078357600080fd5b80639745cc3d11610166578063ac9650d811610140578063ac9650d814610713578063bc197c8114610733578063bd85b03914610752578063c0e727401461077257600080fd5b80639745cc3d146106d6578063a217fddf146106f8578063a22cb4651461070057600080fd5b806391d148541161019757806391d1485414610679578063938e3d7b146106b057806393b778d4146106c357600080fd5b80638456cb591461064b5780638ba448c2146106535780639010d07c1461066657600080fd5b806336568abe1161028c5780635c975abb11610235578063731133e91161020f578063731133e91461060f57806375794a3c146106225780637a61080b1461062b5780638423df791461063e57600080fd5b80635c975abb146105935780635cd9913d1461059e5780636b20c454146105fc57600080fd5b80634e1273f4116102665780634e1273f414610510578063510b515814610530578063572b6c051461057157600080fd5b806336568abe146104c2578063367a182b146104d55780633f4ba83a1461050857600080fd5b80631f7fdffa116102ee5780632a55205a116102c85780632a55205a1461046a5780632eb2c2d61461049c5780632f2ff15d146104af57600080fd5b80631f7fdffa1461040d578063206b60f914610420578063248a9ca31461044757600080fd5b80630e89341c1161031f5780630e89341c146103a3578063150b7a02146103c35780631f72d831146103fa57600080fd5b8062fdd58e1461034557806301ffc9a71461036b578063090a32821461038e575b600080fd5b610358610353366004614a0d565b6108a6565b6040519081526020015b60405180910390f35b61037e610379366004614a4f565b610954565b6040519015158152602001610362565b6103a161039c366004614ab5565b61097f565b005b6103b66103b1366004614b11565b610f0d565b6040516103629190614b82565b6103e16103d1366004614c4c565b630a85bd0160e11b949350505050565b6040516001600160e01b03199091168152602001610362565b6103a1610408366004614b11565b610fb2565b6103a161041b366004614d4d565b6110bf565b6103587f8502233096d909befbda0999bb8ea2f3a6be3c138b9fbf003752a4c8bce86f6c81565b610358610455366004614b11565b60009081526020819052604090206001015490565b61047d610478366004614ddc565b611270565b604080516001600160a01b039093168352602083019190915201610362565b6103a16104aa366004614dfe565b611317565b6103a16104bd366004614eac565b6113cb565b6103a16104d0366004614eac565b6113f2565b61047d6104e3366004614b11565b600e60205260009081526040902080546001909101546001600160a01b039091169082565b6103a1611414565b61052361051e366004614edc565b6114bc565b6040516103629190614fe4565b61055961053e366004614b11565b6000908152600d60205260409020546001600160a01b031690565b6040516001600160a01b039091168152602001610362565b61037e61057f366004614ff7565b6007546001600160a01b0391821691161490565b60055460ff1661037e565b6105d76105ac366004614b11565b600f602052600090815260409020805460018201546002909201546001600160a01b03909116919083565b604080516001600160a01b039094168452602084019290925290820152606001610362565b6103a161060a366004615014565b6115fa565b6103a161061d36600461508a565b611691565b61035860095481565b6103a1610639366004614ddc565b6117b4565b600c5461037e9060ff1681565b6103a16119d3565b6103a16106613660046150e3565b611a79565b610559610674366004614ddc565b611b13565b61037e610687366004614eac565b6000918252602082815260408084206001600160a01b0393909316845291905290205460ff1690565b6103a16106be366004615100565b611b32565b6103a16106d1366004614b11565b611cba565b6106e96106e4366004614b11565b611e35565b60405161036293929190615158565b610358600081565b6103a161070e3660046151a8565b611eed565b61072661072136600461521b565b612009565b6040516103629190615251565b6103e1610741366004614dfe565b63bc197c8160e01b95945050505050565b610358610760366004614b11565b60009081526006602052604090205490565b6103b66120fe565b610358600a5481565b610358610791366004614b11565b61218c565b6103587f9f2df0fed2c77648de5860a4cc508cd0818c85b8b8a1ab4ceeef8d981c8956a681565b6103a16107cb366004614eac565b6121a3565b6103a16107de3660046152b3565b6121ad565b6103587f65d7a28e3265b37a6474929f336521b332c1681b933f6cb9f3376673440d862a81565b6103b6612725565b61037e61082036600461531d565b6001600160a01b03918216600090815260036020908152604080832093909416825291909152205460ff1690565b6103e161085c36600461534b565b63f23a6e6160e01b95945050505050565b6103a161087b36600461534b565b6127b7565b6103a161088e3660046153b4565b612850565b6105236108a13660046153e9565b6128e7565b60006001600160a01b0383166109295760405162461bcd60e51b815260206004820152602b60248201527f455243313135353a2062616c616e636520717565727920666f7220746865207a60448201527f65726f206164647265737300000000000000000000000000000000000000000060648201526084015b60405180910390fd5b5060008181526002602090815260408083206001600160a01b03861684529091529020545b92915050565b600061095f82612d4c565b8061094e57506001600160e01b0319821663152a902d60e11b1492915050565b60055460ff16156109c55760405162461bcd60e51b815260206004820152601060248201526f14185d5cd8589b194e881c185d5cd95960821b6044820152606401610920565b6109f17f9f2df0fed2c77648de5860a4cc508cd0818c85b8b8a1ab4ceeef8d981c8956a6610687612d57565b610a715760405162461bcd60e51b815260206004820152604560248201527f4e4654436f6c6c656374696f6e3a204f6e6c79206163636f756e74732077697460448201527f68204d494e5445525f524f4c452063616e2063616c6c20746869732066756e636064820152643a34b7b71760d91b608482015260a401610920565b610a79612d57565b6040516331a9108f60e11b8152600481018590526001600160a01b0391821691861690636352211e9060240160206040518083038186803b158015610abd57600080fd5b505afa158015610ad1573d6000803e3d6000fd5b505050506040513d601f19601f82011682018060405250810190610af5919061548e565b6001600160a01b031614610b715760405162461bcd60e51b815260206004820152603560248201527f4e4654436f6c6c656374696f6e3a204f6e6c7920746865206f776e6572206f6660448201527f20746865204e46542063616e20777261702069742e00000000000000000000006064820152608401610920565b60405163020604bf60e21b81526004810184905230906001600160a01b0386169063081812fc9060240160206040518083038186803b158015610bb357600080fd5b505afa158015610bc7573d6000803e3d6000fd5b505050506040513d601f19601f82011682018060405250810190610beb919061548e565b6001600160a01b03161480610c8f5750836001600160a01b031663e985e9c5610c12612d57565b6040516001600160e01b031960e084901b1681526001600160a01b03909116600482015230602482015260440160206040518083038186803b158015610c5757600080fd5b505afa158015610c6b573d6000803e3d6000fd5b505050506040513d601f19601f82011682018060405250810190610c8f91906154ab565b610d015760405162461bcd60e51b815260206004820152603d60248201527f4e4654436f6c6c656374696f6e3a204d75737420617070726f7665207468652060448201527f636f6e747261637420746f207472616e7366657220746865204e46542e0000006064820152608401610920565b6000610d0b612d57565b600980549192506001906000610d2183856154de565b9091555050604051632142170760e11b81526001600160a01b038381166004830152306024830152604482018790528716906342842e0e90606401600060405180830381600087803b158015610d7657600080fd5b505af1158015610d8a573d6000803e3d6000fd5b50505050610daa8282600160405180602001604052806000815250612d61565b6040518060600160405280836001600160a01b0316815260200185858080601f01602080910402602001604051908101604052809392919081815260200183838082843760009201829052509385525050600260209384015250838152600d825260409020825181546001600160a01b0319166001600160a01b039091161781558282015180519192610e45926001850192909101906148e8565b5060408201518160020160006101000a81548160ff02191690836002811115610e7057610e70615142565b0217905550506040805180820182526001600160a01b0389811680835260208084018b81526000888152600e90925290859020935184546001600160a01b031916908416178455516001909301929092559151909250908416907f797091bed1dcc535a592c3da1115fdb7467204ef9fb70943f0fc855ebe0a30f590610efd90899086908a908a9061551f565b60405180910390a3505050505050565b6000818152600d60205260409020600101805460609190610f2d9061553f565b80601f0160208091040260200160405190810160405280929190818152602001828054610f599061553f565b8015610fa65780601f10610f7b57610100808354040283529160200191610fa6565b820191906000526020600020905b815481529060010190602001808311610f8957829003601f168201915b50505050509050919050565b610fbf6000610687612d57565b61100b5760405162461bcd60e51b815260206004820152601660248201527f6f6e6c79206d6f64756c652061646d696e20726f6c65000000000000000000006044820152606401610920565b6127108111156110835760405162461bcd60e51b815260206004820152603e60248201527f4e4654436f6c6c656374696f6e3a20496e76616c6964206270732070726f766960448201527f6465643b206d757374206265206c657373207468616e2031302c3030302e00006064820152608401610920565b600a8190556040518181527f244ea8d7627f5a08f4299862bd5a45752842c183aee5b0fb0d1e4887bfa605b3906020015b60405180910390a150565b60018060005b8551811015611175576009548682815181106110e3576110e361557a565b6020026020010151101580156110f65750825b1561110057600092505b6000600d60008884815181106111185761111861557a565b6020026020010151815260200190815260200160002060020160009054906101000a900460ff16600281111561115057611150615142565b1415801561115b5750815b1561116557600091505b61116e81615590565b90506110c5565b50816111e95760405162461bcd60e51b815260206004820152603960248201527f4e4654436f6c6c656374696f6e3a2063616e6e6f742063616c6c20746869732060448201527f666e20666f72206372656174696e67206e6577204e4654732e000000000000006064820152608401610920565b8061125c5760405162461bcd60e51b815260206004820152603a60248201527f4e4654436f6c6c656374696f6e3a2063616e6e6f7420667265656c79206d696e60448201527f74206d6f7265206f66204552433230206f72204552433732312e0000000000006064820152608401610920565b61126886868686612d96565b505050505050565b60085460405163f2aab4b360e01b815230600482015260009182916001600160a01b039091169063f2aab4b39060240160206040518083038186803b1580156112b857600080fd5b505afa1580156112cc573d6000803e3d6000fd5b505050506040513d601f19601f820116820180604052508101906112f0919061548e565b600a549092506127109061130490856155ab565b61130e91906155ca565b90509250929050565b61131f612d57565b6001600160a01b0316856001600160a01b03161480611345575061134585610820612d57565b6113b75760405162461bcd60e51b815260206004820152603260248201527f455243313135353a207472616e736665722063616c6c6572206973206e6f742060448201527f6f776e6572206e6f7220617070726f76656400000000000000000000000000006064820152608401610920565b6113c48585858585612e40565b5050505050565b6113d582826130b2565b60008281526001602052604090206113ed9082612d33565b505050565b6113fc82826130df565b60008281526001602052604090206113ed9082613177565b6114407f65d7a28e3265b37a6474929f336521b332c1681b933f6cb9f3376673440d862a610687612d57565b6114b25760405162461bcd60e51b815260206004820152603b60248201527f455243313135355072657365744d696e7465725061757365723a206d7573742060448201527f686176652070617573657220726f6c6520746f20756e706175736500000000006064820152608401610920565b6114ba61318c565b565b606081518351146115355760405162461bcd60e51b815260206004820152602960248201527f455243313135353a206163636f756e747320616e6420696473206c656e67746860448201527f206d69736d6174636800000000000000000000000000000000000000000000006064820152608401610920565b6000835167ffffffffffffffff81111561155157611551614b95565b60405190808252806020026020018201604052801561157a578160200160208202803683370190505b50905060005b84518110156115f2576115c585828151811061159e5761159e61557a565b60200260200101518583815181106115b8576115b861557a565b60200260200101516108a6565b8282815181106115d7576115d761557a565b60209081029190910101526115eb81615590565b9050611580565b509392505050565b611602612d57565b6001600160a01b0316836001600160a01b03161480611628575061162883610820612d57565b6116865760405162461bcd60e51b815260206004820152602960248201527f455243313135353a2063616c6c6572206973206e6f74206f776e6572206e6f7260448201526808185c1c1c9bdd995960ba1b6064820152608401610920565b6113ed83838361322e565b60095483106117085760405162461bcd60e51b815260206004820152603960248201527f4e4654436f6c6c656374696f6e3a2063616e6e6f742063616c6c20746869732060448201527f666e20666f72206372656174696e67206e6577204e4654732e000000000000006064820152608401610920565b6000838152600d6020526040812060029081015460ff169081111561172f5761172f615142565b146117a25760405162461bcd60e51b815260206004820152603a60248201527f4e4654436f6c6c656374696f6e3a2063616e6e6f7420667265656c79206d696e60448201527f74206d6f7265206f66204552433230206f72204552433732312e0000000000006064820152608401610920565b6117ae848484846132b0565b50505050565b60006117be612d57565b9050816117cb82856108a6565b101561183f5760405162461bcd60e51b815260206004820152603360248201527f4e4654436f6c6c656374696f6e3a2043616e6e6f742072656465656d20616e2060448201527f4e465420796f7520646f206e6f74206f776e2e000000000000000000000000006064820152608401610920565b61184a81848461335a565b6000838152600f60205260408120600181015460029091015461186e9085906155ab565b61187891906155ca565b6000858152600f60205260409081902054905163a9059cbb60e01b81526001600160a01b0385811660048301526024820184905292935091169063a9059cbb90604401602060405180830381600087803b1580156118d557600080fd5b505af11580156118e9573d6000803e3d6000fd5b505050506040513d601f19601f8201168201806040525081019061190d91906154ab565b6119715760405162461bcd60e51b815260206004820152602f60248201527f4e4654436f6c6c656374696f6e3a204661696c656420746f207472616e73666560448201526e391022a9219918103a37b5b2b7399760891b6064820152608401610920565b6000848152600f60209081526040918290205482518481529182018690526001600160a01b03908116928792918616917fb80333a30b48beb3745280a5e4bb1b8e53f79569e454ec99ba13678dfbe728eb91015b60405180910390a450505050565b6119ff7f65d7a28e3265b37a6474929f336521b332c1681b933f6cb9f3376673440d862a610687612d57565b611a715760405162461bcd60e51b815260206004820152603960248201527f455243313135355072657365744d696e7465725061757365723a206d7573742060448201527f686176652070617573657220726f6c6520746f207061757365000000000000006064820152608401610920565b6114ba61338d565b611a866000610687612d57565b611ad25760405162461bcd60e51b815260206004820152601660248201527f6f6e6c79206d6f64756c652061646d696e20726f6c65000000000000000000006044820152606401610920565b600c805460ff19168215159081179091556040519081527ffb4ba02cee22486df888d7ffb97c6100ec3193781e025cb9a4bc6fc358d626cc906020016110b4565b6000828152600160205260408120611b2b9083613409565b9392505050565b6008546040805163a217fddf60e01b815290516001600160a01b03909216916391d1485491839163a217fddf91600480820192602092909190829003018186803b158015611b7f57600080fd5b505afa158015611b93573d6000803e3d6000fd5b505050506040513d601f19601f82011682018060405250810190611bb791906155ec565b611bbf612d57565b6040516001600160e01b031960e085901b16815260048101929092526001600160a01b0316602482015260440160206040518083038186803b158015611c0457600080fd5b505afa158015611c18573d6000803e3d6000fd5b505050506040513d601f19601f82011682018060405250810190611c3c91906154ab565b611cae5760405162461bcd60e51b815260206004820152603c60248201527f4e4654436f6c6c656374696f6e3a206f6e6c7920612070726f746f636f6c206160448201527f646d696e2063616e2063616c6c20746869732066756e6374696f6e2e000000006064820152608401610920565b6113ed600b838361496c565b6000611cc4612d57565b90506000611cd282846108a6565b11611d455760405162461bcd60e51b815260206004820152603360248201527f4e4654436f6c6c656374696f6e3a2043616e6e6f742072656465656d20616e2060448201527f4e465420796f7520646f206e6f74206f776e2e000000000000000000000000006064820152608401610920565b611d518183600161335a565b6000828152600e60205260409081902080546001909101549151632142170760e11b81523060048201526001600160a01b03848116602483015260448201939093529116906342842e0e90606401600060405180830381600087803b158015611db957600080fd5b505af1158015611dcd573d6000803e3d6000fd5b5050506000838152600e6020908152604091829020805460019091015483519081529182018690526001600160a01b0390811693508416917fea7b88a04220a2292e142652e8e1a59cc00e7d27d8ad6b11da6cf5870e6ba86691015b60405180910390a35050565b600d60205260009081526040902080546001820180546001600160a01b039092169291611e619061553f565b80601f0160208091040260200160405190810160405280929190818152602001828054611e8d9061553f565b8015611eda5780601f10611eaf57610100808354040283529160200191611eda565b820191906000526020600020905b815481529060010190602001808311611ebd57829003601f168201915b5050506002909301549192505060ff1683565b816001600160a01b0316611eff612d57565b6001600160a01b03161415611f7c5760405162461bcd60e51b815260206004820152602960248201527f455243313135353a2073657474696e6720617070726f76616c2073746174757360448201527f20666f722073656c6600000000000000000000000000000000000000000000006064820152608401610920565b8060036000611f89612d57565b6001600160a01b03908116825260208083019390935260409182016000908120918716808252919093529120805460ff191692151592909217909155611fcd612d57565b6001600160a01b03167f17307eab39ab6107e8899845ad3d59bd9653f200f220920489ca2b5937696c3183604051611e29911515815260200190565b60608167ffffffffffffffff81111561202457612024614b95565b60405190808252806020026020018201604052801561205757816020015b60608152602001906001900390816120425790505b50905060005b828110156120f7576120c73085858481811061207b5761207b61557a565b905060200281019061208d9190615605565b8080601f01602080910402602001604051908101604052809392919081815260200183838082843760009201919091525061341592505050565b8282815181106120d9576120d961557a565b602002602001018190525080806120ef90615590565b91505061205d565b5092915050565b600b805461210b9061553f565b80601f01602080910402602001604051908101604052809291908181526020018280546121379061553f565b80156121845780601f1061215957610100808354040283529160200191612184565b820191906000526020600020905b81548152906001019060200180831161216757829003601f168201915b505050505081565b600081815260016020526040812061094e9061343a565b6113fc8282613444565b60055460ff16156121f35760405162461bcd60e51b815260206004820152601060248201526f14185d5cd8589b194e881c185d5cd95960821b6044820152606401610920565b61221f7f9f2df0fed2c77648de5860a4cc508cd0818c85b8b8a1ab4ceeef8d981c8956a6610687612d57565b61229f5760405162461bcd60e51b815260206004820152604560248201527f4e4654436f6c6c656374696f6e3a204f6e6c79206163636f756e74732077697460448201527f68204d494e5445525f524f4c452063616e2063616c6c20746869732066756e636064820152643a34b7b71760d91b608482015260a401610920565b60006122a9612d57565b6040516370a0823160e01b81526001600160a01b03808316600483015291925086918816906370a082319060240160206040518083038186803b1580156122ef57600080fd5b505afa158015612303573d6000803e3d6000fd5b505050506040513d601f19601f8201168201806040525081019061232791906155ec565b101561239b5760405162461bcd60e51b815260206004820152603b60248201527f4e4654436f6c6c656374696f6e3a204d757374206f776e2074686520616d6f7560448201527f6e74206f6620746f6b656e73206265696e6720777261707065642e00000000006064820152608401610920565b604051636eb1769f60e11b81526001600160a01b03828116600483015230602483015286919088169063dd62ed3e9060440160206040518083038186803b1580156123e557600080fd5b505afa1580156123f9573d6000803e3d6000fd5b505050506040513d601f19601f8201168201806040525081019061241d91906155ec565b10156124915760405162461bcd60e51b815260206004820152603d60248201527f4e4654436f6c6c656374696f6e3a204d75737420617070726f7665207468697360448201527f20636f6e747261637420746f207472616e7366657220746f6b656e732e0000006064820152608401610920565b6040516323b872dd60e01b81526001600160a01b038281166004830152306024830152604482018790528716906323b872dd90606401602060405180830381600087803b1580156124e157600080fd5b505af11580156124f5573d6000803e3d6000fd5b505050506040513d601f19601f8201168201806040525081019061251991906154ab565b61257d5760405162461bcd60e51b815260206004820152602f60248201527f4e4654436f6c6c656374696f6e3a204661696c656420746f207472616e73666560448201526e391022a9219918103a37b5b2b7399760891b6064820152608401610920565b6009805490600190600061259183856154de565b925050819055506125b382828760405180602001604052806000815250612d61565b6040518060600160405280836001600160a01b0316815260200185858080601f0160208091040260200160405190810160405280939291908181526020018383808284376000920182905250938552505060016020938401819052858352600d84526040909220845181546001600160a01b0319166001600160a01b03909116178155848401518051919461264d948601935001906148e8565b5060408201518160020160006101000a81548160ff0219169083600281111561267857612678615142565b021790555050604080516060810182526001600160a01b038a811680835260208084018b81528486018d81526000898152600f90935291869020945185546001600160a01b031916908516178555516001850155516002909301929092559151909250908416907f53af9a53d4a11cb382035aa13d6d8e24575569953176d87464ba37e7013a6aa490612714908a908a9087908b908b9061564c565b60405180910390a350505050505050565b6060600b80546127349061553f565b80601f01602080910402602001604051908101604052809291908181526020018280546127609061553f565b80156127ad5780601f10612782576101008083540402835291602001916127ad565b820191906000526020600020905b81548152906001019060200180831161279057829003601f168201915b5050505050905090565b6127bf612d57565b6001600160a01b0316856001600160a01b031614806127e557506127e585610820612d57565b6128435760405162461bcd60e51b815260206004820152602960248201527f455243313135353a2063616c6c6572206973206e6f74206f776e6572206e6f7260448201526808185c1c1c9bdd995960ba1b6064820152608401610920565b6113c4858585858561346c565b612858612d57565b6001600160a01b0316836001600160a01b0316148061287e575061287e83610820612d57565b6128dc5760405162461bcd60e51b815260206004820152602960248201527f455243313135353a2063616c6c6572206973206e6f74206f776e6572206e6f7260448201526808185c1c1c9bdd995960ba1b6064820152608401610920565b6113ed83838361335a565b60606128f560055460ff1690565b156129355760405162461bcd60e51b815260206004820152601060248201526f14185d5cd8589b194e881c185d5cd95960821b6044820152606401610920565b6129617f9f2df0fed2c77648de5860a4cc508cd0818c85b8b8a1ab4ceeef8d981c8956a6610687612d57565b6129e15760405162461bcd60e51b815260206004820152604560248201527f4e4654436f6c6c656374696f6e3a204f6e6c79206163636f756e74732077697460448201527f68204d494e5445525f524f4c452063616e2063616c6c20746869732066756e636064820152643a34b7b71760d91b608482015260a401610920565b848314612a565760405162461bcd60e51b815260206004820152603a60248201527f4e4654436f6c6c656374696f6e3a204d7573742073706563696679206571756160448201527f6c206e756d626572206f6620636f6e6669672076616c7565732e0000000000006064820152608401610920565b84612ac95760405162461bcd60e51b815260206004820152602c60248201527f4e4654436f6c6c656374696f6e3a204d75737420637265617465206174206c6560448201527f617374206f6e65204e46542e00000000000000000000000000000000000000006064820152608401610920565b6000612ad3612d57565b90508567ffffffffffffffff811115612aee57612aee614b95565b604051908082528060200260200182016040528015612b17578160200160208202803683370190505b5060095490925060005b87811015612c585781848281518110612b3c57612b3c61557a565b6020026020010181815250506040518060600160405280846001600160a01b031681526020018a8a84818110612b7457612b7461557a565b9050602002810190612b869190615605565b8080601f01602080910402602001604051908101604052809392919081815260200183838082843760009201829052509385525050506020918201819052848152600d825260409020825181546001600160a01b0319166001600160a01b039091161781558282015180519192612c05926001850192909101906148e8565b5060408201518160020160006101000a81548160ff02191690836002811115612c3057612c30615142565b0217905550612c44915060019050836154de565b915080612c5081615590565b915050612b21565b5080600981905550612ca089848888808060200260200160405190810160405280939291908181526020018383602002808284376000920191909152508a9250613628915050565b816001600160a01b03167fbea5a4b7cf9a3f7d8bf7c987614db5dcfdcd917a2cd5788a210c0ebdccfc5da4848a8a8a8a604051612ce19594939291906156cc565b60405180910390a250509695505050505050565b6007546000906001600160a01b0316331415612d18575060131936013560601c90565b503390565b905090565b90565b612d2f82826136ab565b5050565b6000611b2b836001600160a01b03841661374a565b3390565b600061094e82613799565b6000612d1d612cf5565b612d6d848484846137be565b60008381526006602052604081208054849290612d8b9084906154de565b909155505050505050565b612dc27f9f2df0fed2c77648de5860a4cc508cd0818c85b8b8a1ab4ceeef8d981c8956a6610687612d57565b612e345760405162461bcd60e51b815260206004820152603860248201527f455243313135355072657365744d696e7465725061757365723a206d7573742060448201527f68617665206d696e74657220726f6c6520746f206d696e7400000000000000006064820152608401610920565b6117ae84848484613628565b8151835114612ea25760405162461bcd60e51b815260206004820152602860248201527f455243313135353a2069647320616e6420616d6f756e7473206c656e677468206044820152670dad2e6dac2e8c6d60c31b6064820152608401610920565b6001600160a01b038416612f065760405162461bcd60e51b815260206004820152602560248201527f455243313135353a207472616e7366657220746f20746865207a65726f206164604482015264647265737360d81b6064820152608401610920565b6000612f10612d57565b9050612f208187878787876138cc565b60005b845181101561304c576000858281518110612f4057612f4061557a565b602002602001015190506000858381518110612f5e57612f5e61557a565b60209081029190910181015160008481526002835260408082206001600160a01b038e168352909352919091205490915081811015612ff25760405162461bcd60e51b815260206004820152602a60248201527f455243313135353a20696e73756666696369656e742062616c616e636520666f60448201526939103a3930b739b332b960b11b6064820152608401610920565b60008381526002602090815260408083206001600160a01b038e8116855292528083208585039055908b168252812080548492906130319084906154de565b925050819055505050508061304590615590565b9050612f23565b50846001600160a01b0316866001600160a01b0316826001600160a01b03167f4a39dc06d4c0dbc64b70af90fd698a233a518aa5d07e595d983b8c0526c8f7fb878760405161309c929190615790565b60405180910390a4611268818787878787613a22565b6000828152602081905260409020600101546130d5816130d0612d57565b613bd7565b6113ed83836136ab565b6130e7612d57565b6001600160a01b0316816001600160a01b03161461316d5760405162461bcd60e51b815260206004820152602f60248201527f416363657373436f6e74726f6c3a2063616e206f6e6c792072656e6f756e636560448201527f20726f6c657320666f722073656c6600000000000000000000000000000000006064820152608401610920565b612d2f8282613c55565b6000611b2b836001600160a01b038416613cf2565b60055460ff166131de5760405162461bcd60e51b815260206004820152601460248201527f5061757361626c653a206e6f74207061757365640000000000000000000000006044820152606401610920565b6005805460ff191690557f5db9ee0a495bf2e6ff9c91a7834c1ba4fdd244a5e8aa4e537bd38aeae4b073aa613211612d57565b6040516001600160a01b03909116815260200160405180910390a1565b613239838383613de5565b60005b82518110156117ae578181815181106132575761325761557a565b6020026020010151600660008584815181106132755761327561557a565b60200260200101518152602001908152602001600020600082825461329a91906157be565b909155506132a9905081615590565b905061323c565b6132dc7f9f2df0fed2c77648de5860a4cc508cd0818c85b8b8a1ab4ceeef8d981c8956a6610687612d57565b61334e5760405162461bcd60e51b815260206004820152603860248201527f455243313135355072657365744d696e7465725061757365723a206d7573742060448201527f68617665206d696e74657220726f6c6520746f206d696e7400000000000000006064820152608401610920565b6117ae84848484612d61565b613365838383614028565b600082815260066020526040812080548392906133839084906157be565b9091555050505050565b60055460ff16156133d35760405162461bcd60e51b815260206004820152601060248201526f14185d5cd8589b194e881c185d5cd95960821b6044820152606401610920565b6005805460ff191660011790557f62e78cea01bee320cd4e420270b5ea74000d11b0c9f74754ebdbfc544b05a258613211612d57565b6000611b2b83836141b0565b6060611b2b83836040518060600160405280602781526020016159f8602791396141da565b600061094e825490565b600082815260208190526040902060010154613462816130d0612d57565b6113ed8383613c55565b6001600160a01b0384166134d05760405162461bcd60e51b815260206004820152602560248201527f455243313135353a207472616e7366657220746f20746865207a65726f206164604482015264647265737360d81b6064820152608401610920565b60006134da612d57565b90506134fa8187876134eb886142ae565b6134f4886142ae565b876138cc565b60008481526002602090815260408083206001600160a01b038a168452909152902054838110156135805760405162461bcd60e51b815260206004820152602a60248201527f455243313135353a20696e73756666696369656e742062616c616e636520666f60448201526939103a3930b739b332b960b11b6064820152608401610920565b60008581526002602090815260408083206001600160a01b038b81168552925280832087850390559088168252812080548692906135bf9084906154de565b909155505060408051868152602081018690526001600160a01b03808916928a821692918616917fc3d58168c5ae7397731d063d5bbf3d657854427343f4c083240f7aacaa2d0f62910160405180910390a461361f8288888888886142f9565b50505050505050565b61363484848484614404565b60005b83518110156113c4578281815181106136525761365261557a565b6020026020010151600660008684815181106136705761367061557a565b60200260200101518152602001908152602001600020600082825461369591906154de565b909155506136a4905081615590565b9050613637565b6000828152602081815260408083206001600160a01b038516845290915290205460ff16612d2f576000828152602081815260408083206001600160a01b03851684529091529020805460ff19166001179055613706612d57565b6001600160a01b0316816001600160a01b0316837f2f8788117e7eff1d82e926ec794901d17c78024a50270940304540a733656f0d60405160405180910390a45050565b60008181526001830160205260408120546137915750815460018181018455600084815260208082209093018490558454848252828601909352604090209190915561094e565b50600061094e565b60006001600160e01b03198216630271189760e51b148061094e575061094e826145e5565b6001600160a01b03841661381e5760405162461bcd60e51b815260206004820152602160248201527f455243313135353a206d696e7420746f20746865207a65726f206164647265736044820152607360f81b6064820152608401610920565b6000613828612d57565b905061383a816000876134eb886142ae565b60008481526002602090815260408083206001600160a01b03891684529091528120805485929061386c9084906154de565b909155505060408051858152602081018590526001600160a01b0380881692600092918516917fc3d58168c5ae7397731d063d5bbf3d657854427343f4c083240f7aacaa2d0f62910160405180910390a46113c4816000878787876142f9565b6138da868686868686614625565b600c5460ff1680156138f457506001600160a01b03851615155b801561390857506001600160a01b03841615155b15611268576001600160a01b03851660009081527f7c7a990f752005aea38438cc35abc5417bd322e6c964ec21d52573494225142c602052604090205460ff168061398a57506001600160a01b03841660009081527f7c7a990f752005aea38438cc35abc5417bd322e6c964ec21d52573494225142c602052604090205460ff165b6112685760405162461bcd60e51b815260206004820152604860248201527f4e4654436f6c6c656374696f6e3a205472616e7366657273206172652072657360448201527f7472696374656420746f206f722066726f6d205452414e534645525f524f4c4560648201527f20686f6c64657273000000000000000000000000000000000000000000000000608482015260a401610920565b6001600160a01b0384163b156112685760405163bc197c8160e01b81526001600160a01b0385169063bc197c8190613a6690899089908890889088906004016157d5565b602060405180830381600087803b158015613a8057600080fd5b505af1925050508015613ab0575060408051601f3d908101601f19168201909252613aad91810190615833565b60015b613b6657613abc615850565b806308c379a01415613af65750613ad161586b565b80613adc5750613af8565b8060405162461bcd60e51b81526004016109209190614b82565b505b60405162461bcd60e51b815260206004820152603460248201527f455243313135353a207472616e7366657220746f206e6f6e204552433131353560448201527f526563656976657220696d706c656d656e7465720000000000000000000000006064820152608401610920565b6001600160e01b0319811663bc197c8160e01b1461361f5760405162461bcd60e51b815260206004820152602860248201527f455243313135353a204552433131353552656365697665722072656a656374656044820152676420746f6b656e7360c01b6064820152608401610920565b6000828152602081815260408083206001600160a01b038516845290915290205460ff16612d2f57613c13816001600160a01b03166014614633565b613c1e836020614633565b604051602001613c2f9291906158f5565b60408051601f198184030181529082905262461bcd60e51b825261092091600401614b82565b6000828152602081815260408083206001600160a01b038516845290915290205460ff1615612d2f576000828152602081815260408083206001600160a01b03851684529091529020805460ff19169055613cae612d57565b6001600160a01b0316816001600160a01b0316837ff6391f5c32d9c69d2a47ea670b442974b53935d1edc7fd64eb21e047a839171b60405160405180910390a45050565b60008181526001830160205260408120548015613ddb576000613d166001836157be565b8554909150600090613d2a906001906157be565b9050818114613d8f576000866000018281548110613d4a57613d4a61557a565b9060005260206000200154905080876000018481548110613d6d57613d6d61557a565b6000918252602080832090910192909255918252600188019052604090208390555b8554869080613da057613da0615976565b60019003818190600052602060002001600090559055856001016000868152602001908152602001600020600090556001935050505061094e565b600091505061094e565b6001600160a01b038316613e475760405162461bcd60e51b815260206004820152602360248201527f455243313135353a206275726e2066726f6d20746865207a65726f206164647260448201526265737360e81b6064820152608401610920565b8051825114613ea95760405162461bcd60e51b815260206004820152602860248201527f455243313135353a2069647320616e6420616d6f756e7473206c656e677468206044820152670dad2e6dac2e8c6d60c31b6064820152608401610920565b6000613eb3612d57565b9050613ed3818560008686604051806020016040528060008152506138cc565b60005b8351811015613fd7576000848281518110613ef357613ef361557a565b602002602001015190506000848381518110613f1157613f1161557a565b60209081029190910181015160008481526002835260408082206001600160a01b038c168352909352919091205490915081811015613f9e5760405162461bcd60e51b8152602060048201526024808201527f455243313135353a206275726e20616d6f756e7420657863656564732062616c604482015263616e636560e01b6064820152608401610920565b60009283526002602090815260408085206001600160a01b038b1686529091529092209103905580613fcf81615590565b915050613ed6565b5060006001600160a01b0316846001600160a01b0316826001600160a01b03167f4a39dc06d4c0dbc64b70af90fd698a233a518aa5d07e595d983b8c0526c8f7fb86866040516119c5929190615790565b6001600160a01b03831661408a5760405162461bcd60e51b815260206004820152602360248201527f455243313135353a206275726e2066726f6d20746865207a65726f206164647260448201526265737360e81b6064820152608401610920565b6000614094612d57565b90506140c4818560006140a6876142ae565b6140af876142ae565b604051806020016040528060008152506138cc565b60008381526002602090815260408083206001600160a01b0388168452909152902054828110156141435760405162461bcd60e51b8152602060048201526024808201527f455243313135353a206275726e20616d6f756e7420657863656564732062616c604482015263616e636560e01b6064820152608401610920565b60008481526002602090815260408083206001600160a01b03898116808652918452828520888703905582518981529384018890529092908616917fc3d58168c5ae7397731d063d5bbf3d657854427343f4c083240f7aacaa2d0f62910160405180910390a45050505050565b60008260000182815481106141c7576141c761557a565b9060005260206000200154905092915050565b6060833b6142395760405162461bcd60e51b815260206004820152602660248201527f416464726573733a2064656c65676174652063616c6c20746f206e6f6e2d636f6044820152651b9d1c9858dd60d21b6064820152608401610920565b600080856001600160a01b031685604051614254919061598c565b600060405180830381855af49150503d806000811461428f576040519150601f19603f3d011682016040523d82523d6000602084013e614294565b606091505b50915091506142a48282866147dc565b9695505050505050565b604080516001808252818301909252606091600091906020808301908036833701905050905082816000815181106142e8576142e861557a565b602090810291909101015292915050565b6001600160a01b0384163b156112685760405163f23a6e6160e01b81526001600160a01b0385169063f23a6e619061433d90899089908890889088906004016159a8565b602060405180830381600087803b15801561435757600080fd5b505af1925050508015614387575060408051601f3d908101601f1916820190925261438491810190615833565b60015b61439357613abc615850565b6001600160e01b0319811663f23a6e6160e01b1461361f5760405162461bcd60e51b815260206004820152602860248201527f455243313135353a204552433131353552656365697665722072656a656374656044820152676420746f6b656e7360c01b6064820152608401610920565b6001600160a01b0384166144645760405162461bcd60e51b815260206004820152602160248201527f455243313135353a206d696e7420746f20746865207a65726f206164647265736044820152607360f81b6064820152608401610920565b81518351146144c65760405162461bcd60e51b815260206004820152602860248201527f455243313135353a2069647320616e6420616d6f756e7473206c656e677468206044820152670dad2e6dac2e8c6d60c31b6064820152608401610920565b60006144d0612d57565b90506144e1816000878787876138cc565b60005b845181101561457d578381815181106144ff576144ff61557a565b60200260200101516002600087848151811061451d5761451d61557a565b602002602001015181526020019081526020016000206000886001600160a01b03166001600160a01b03168152602001908152602001600020600082825461456591906154de565b9091555081905061457581615590565b9150506144e4565b50846001600160a01b031660006001600160a01b0316826001600160a01b03167f4a39dc06d4c0dbc64b70af90fd698a233a518aa5d07e595d983b8c0526c8f7fb87876040516145ce929190615790565b60405180910390a46113c481600087878787613a22565b60006001600160e01b03198216636cdb3d1360e11b148061461657506001600160e01b031982166303a24d0760e21b145b8061094e575061094e82614815565b61126886868686868661483a565b606060006146428360026155ab565b61464d9060026154de565b67ffffffffffffffff81111561466557614665614b95565b6040519080825280601f01601f19166020018201604052801561468f576020820181803683370190505b509050600360fc1b816000815181106146aa576146aa61557a565b60200101906001600160f81b031916908160001a905350600f60fb1b816001815181106146d9576146d961557a565b60200101906001600160f81b031916908160001a90535060006146fd8460026155ab565b6147089060016154de565b90505b600181111561478d577f303132333435363738396162636465660000000000000000000000000000000085600f16601081106147495761474961557a565b1a60f81b82828151811061475f5761475f61557a565b60200101906001600160f81b031916908160001a90535060049490941c93614786816159e0565b905061470b565b508315611b2b5760405162461bcd60e51b815260206004820181905260248201527f537472696e67733a20686578206c656e67746820696e73756666696369656e746044820152606401610920565b606083156147eb575081611b2b565b8251156147fb5782518084602001fd5b8160405162461bcd60e51b81526004016109209190614b82565b60006001600160e01b03198216635a05180f60e01b148061094e575061094e826148b3565b60055460ff16156112685760405162461bcd60e51b815260206004820152602c60248201527f455243313135355061757361626c653a20746f6b656e207472616e736665722060448201527f7768696c652070617573656400000000000000000000000000000000000000006064820152608401610920565b60006001600160e01b03198216637965db0b60e01b148061094e57506301ffc9a760e01b6001600160e01b031983161461094e565b8280546148f49061553f565b90600052602060002090601f016020900481019282614916576000855561495c565b82601f1061492f57805160ff191683800117855561495c565b8280016001018555821561495c579182015b8281111561495c578251825591602001919060010190614941565b506149689291506149e0565b5090565b8280546149789061553f565b90600052602060002090601f01602090048101928261499a576000855561495c565b82601f106149b35782800160ff1982351617855561495c565b8280016001018555821561495c579182015b8281111561495c5782358255916020019190600101906149c5565b5b8082111561496857600081556001016149e1565b6001600160a01b0381168114614a0a57600080fd5b50565b60008060408385031215614a2057600080fd5b8235614a2b816149f5565b946020939093013593505050565b6001600160e01b031981168114614a0a57600080fd5b600060208284031215614a6157600080fd5b8135611b2b81614a39565b60008083601f840112614a7e57600080fd5b50813567ffffffffffffffff811115614a9657600080fd5b602083019150836020828501011115614aae57600080fd5b9250929050565b60008060008060608587031215614acb57600080fd5b8435614ad6816149f5565b935060208501359250604085013567ffffffffffffffff811115614af957600080fd5b614b0587828801614a6c565b95989497509550505050565b600060208284031215614b2357600080fd5b5035919050565b60005b83811015614b45578181015183820152602001614b2d565b838111156117ae5750506000910152565b60008151808452614b6e816020860160208601614b2a565b601f01601f19169290920160200192915050565b602081526000611b2b6020830184614b56565b634e487b7160e01b600052604160045260246000fd5b601f8201601f1916810167ffffffffffffffff81118282101715614bd157614bd1614b95565b6040525050565b600082601f830112614be957600080fd5b813567ffffffffffffffff811115614c0357614c03614b95565b604051614c1a601f8301601f191660200182614bab565b818152846020838601011115614c2f57600080fd5b816020850160208301376000918101602001919091529392505050565b60008060008060808587031215614c6257600080fd5b8435614c6d816149f5565b93506020850135614c7d816149f5565b925060408501359150606085013567ffffffffffffffff811115614ca057600080fd5b614cac87828801614bd8565b91505092959194509250565b600067ffffffffffffffff821115614cd257614cd2614b95565b5060051b60200190565b600082601f830112614ced57600080fd5b81356020614cfa82614cb8565b604051614d078282614bab565b83815260059390931b8501820192828101915086841115614d2757600080fd5b8286015b84811015614d425780358352918301918301614d2b565b509695505050505050565b60008060008060808587031215614d6357600080fd5b8435614d6e816149f5565b9350602085013567ffffffffffffffff80821115614d8b57600080fd5b614d9788838901614cdc565b94506040870135915080821115614dad57600080fd5b614db988838901614cdc565b93506060870135915080821115614dcf57600080fd5b50614cac87828801614bd8565b60008060408385031215614def57600080fd5b50508035926020909101359150565b600080600080600060a08688031215614e1657600080fd5b8535614e21816149f5565b94506020860135614e31816149f5565b9350604086013567ffffffffffffffff80821115614e4e57600080fd5b614e5a89838a01614cdc565b94506060880135915080821115614e7057600080fd5b614e7c89838a01614cdc565b93506080880135915080821115614e9257600080fd5b50614e9f88828901614bd8565b9150509295509295909350565b60008060408385031215614ebf57600080fd5b823591506020830135614ed1816149f5565b809150509250929050565b60008060408385031215614eef57600080fd5b823567ffffffffffffffff80821115614f0757600080fd5b818501915085601f830112614f1b57600080fd5b81356020614f2882614cb8565b604051614f358282614bab565b83815260059390931b8501820192828101915089841115614f5557600080fd5b948201945b83861015614f7c578535614f6d816149f5565b82529482019490820190614f5a565b96505086013592505080821115614f9257600080fd5b50614f9f85828601614cdc565b9150509250929050565b600081518084526020808501945080840160005b83811015614fd957815187529582019590820190600101614fbd565b509495945050505050565b602081526000611b2b6020830184614fa9565b60006020828403121561500957600080fd5b8135611b2b816149f5565b60008060006060848603121561502957600080fd5b8335615034816149f5565b9250602084013567ffffffffffffffff8082111561505157600080fd5b61505d87838801614cdc565b9350604086013591508082111561507357600080fd5b5061508086828701614cdc565b9150509250925092565b600080600080608085870312156150a057600080fd5b84356150ab816149f5565b93506020850135925060408501359150606085013567ffffffffffffffff811115614ca057600080fd5b8015158114614a0a57600080fd5b6000602082840312156150f557600080fd5b8135611b2b816150d5565b6000806020838503121561511357600080fd5b823567ffffffffffffffff81111561512a57600080fd5b61513685828601614a6c565b90969095509350505050565b634e487b7160e01b600052602160045260246000fd5b6001600160a01b038416815260606020820152600061517a6060830185614b56565b90506003831061519a57634e487b7160e01b600052602160045260246000fd5b826040830152949350505050565b600080604083850312156151bb57600080fd5b82356151c6816149f5565b91506020830135614ed1816150d5565b60008083601f8401126151e857600080fd5b50813567ffffffffffffffff81111561520057600080fd5b6020830191508360208260051b8501011115614aae57600080fd5b6000806020838503121561522e57600080fd5b823567ffffffffffffffff81111561524557600080fd5b615136858286016151d6565b6000602080830181845280855180835260408601915060408160051b870101925083870160005b828110156152a657603f19888603018452615294858351614b56565b94509285019290850190600101615278565b5092979650505050505050565b6000806000806000608086880312156152cb57600080fd5b85356152d6816149f5565b94506020860135935060408601359250606086013567ffffffffffffffff81111561530057600080fd5b61530c88828901614a6c565b969995985093965092949392505050565b6000806040838503121561533057600080fd5b823561533b816149f5565b91506020830135614ed1816149f5565b600080600080600060a0868803121561536357600080fd5b853561536e816149f5565b9450602086013561537e816149f5565b93506040860135925060608601359150608086013567ffffffffffffffff8111156153a857600080fd5b614e9f88828901614bd8565b6000806000606084860312156153c957600080fd5b83356153d4816149f5565b95602085013595506040909401359392505050565b6000806000806000806080878903121561540257600080fd5b863561540d816149f5565b9550602087013567ffffffffffffffff8082111561542a57600080fd5b6154368a838b016151d6565b9097509550604089013591508082111561544f57600080fd5b61545b8a838b016151d6565b9095509350606089013591508082111561547457600080fd5b5061548189828a01614bd8565b9150509295509295509295565b6000602082840312156154a057600080fd5b8151611b2b816149f5565b6000602082840312156154bd57600080fd5b8151611b2b816150d5565b634e487b7160e01b600052601160045260246000fd5b600082198211156154f1576154f16154c8565b500190565b81835281816020850137506000828201602090810191909152601f909101601f19169091010190565b8481528360208201526060604082015260006142a46060830184866154f6565b600181811c9082168061555357607f821691505b6020821081141561557457634e487b7160e01b600052602260045260246000fd5b50919050565b634e487b7160e01b600052603260045260246000fd5b60006000198214156155a4576155a46154c8565b5060010190565b60008160001904831182151516156155c5576155c56154c8565b500290565b6000826155e757634e487b7160e01b600052601260045260246000fd5b500490565b6000602082840312156155fe57600080fd5b5051919050565b6000808335601e1984360301811261561c57600080fd5b83018035915067ffffffffffffffff82111561563757600080fd5b602001915036819003821315614aae57600080fd5b8581528460208201528360408201526080606082015260006156726080830184866154f6565b979650505050505050565b81835260007f07ffffffffffffffffffffffffffffffffffffffffffffffffffffffffffffff8311156156af57600080fd5b8260051b8083602087013760009401602001938452509192915050565b6060815260006156df6060830188614fa9565b602083820381850152818783528183019050818860051b8401018960005b8a81101561576c57858303601f190184528135368d9003601e1901811261572357600080fd5b8c01803567ffffffffffffffff81111561573c57600080fd5b8036038e131561574b57600080fd5b61575885828985016154f6565b9587019594505050908401906001016156fd565b5050858103604087015261578181888a61567d565b9b9a5050505050505050505050565b6040815260006157a36040830185614fa9565b82810360208401526157b58185614fa9565b95945050505050565b6000828210156157d0576157d06154c8565b500390565b60006001600160a01b03808816835280871660208401525060a0604083015261580160a0830186614fa9565b82810360608401526158138186614fa9565b905082810360808401526158278185614b56565b98975050505050505050565b60006020828403121561584557600080fd5b8151611b2b81614a39565b600060033d1115612d225760046000803e5060005160e01c90565b600060443d10156158795790565b6040516003193d81016004833e81513d67ffffffffffffffff81602484011181841117156158a957505050505090565b82850191508151818111156158c15750505050505090565b843d87010160208285010111156158db5750505050505090565b6158ea60208286010187614bab565b509095945050505050565b7f416363657373436f6e74726f6c3a206163636f756e742000000000000000000081526000835161592d816017850160208801614b2a565b7f206973206d697373696e6720726f6c6520000000000000000000000000000000601791840191820152835161596a816028840160208801614b2a565b01602801949350505050565b634e487b7160e01b600052603160045260246000fd5b6000825161599e818460208701614b2a565b9190910192915050565b60006001600160a01b03808816835280871660208401525084604083015283606083015260a0608083015261567260a0830184614b56565b6000816159ef576159ef6154c8565b50600019019056fe416464726573733a206c6f772d6c6576656c2064656c65676174652063616c6c206661696c6564a164736f6c6343000809000a",
  "linkReferences": {},
  "deployedLinkReferences": {}
}